{
  "contractName": "CappedSTO",
  "abi": [
    {
      "constant": true,
      "inputs": [],
      "name": "rate",
      "outputs": [
        {
          "name": "",
          "type": "uint256"
        }
      ],
      "payable": false,
      "stateMutability": "view",
      "type": "function"
    },
    {
      "constant": true,
      "inputs": [],
      "name": "allowBeneficialInvestments",
      "outputs": [
        {
          "name": "",
          "type": "bool"
        }
      ],
      "payable": false,
      "stateMutability": "view",
      "type": "function"
    },
    {
      "constant": true,
      "inputs": [],
      "name": "endTime",
      "outputs": [
        {
          "name": "",
          "type": "uint256"
        }
      ],
      "payable": false,
      "stateMutability": "view",
      "type": "function"
    },
    {
      "constant": true,
      "inputs": [],
      "name": "cap",
      "outputs": [
        {
          "name": "",
          "type": "uint256"
        }
      ],
      "payable": false,
      "stateMutability": "view",
      "type": "function"
    },
    {
      "constant": false,
      "inputs": [],
      "name": "unpause",
      "outputs": [],
      "payable": false,
      "stateMutability": "nonpayable",
      "type": "function"
    },
    {
      "constant": true,
      "inputs": [],
      "name": "wallet",
      "outputs": [
        {
          "name": "",
          "type": "address"
        }
      ],
      "payable": false,
      "stateMutability": "view",
      "type": "function"
    },
    {
      "constant": true,
      "inputs": [],
      "name": "paused",
      "outputs": [
        {
          "name": "",
          "type": "bool"
        }
      ],
      "payable": false,
      "stateMutability": "view",
      "type": "function"
    },
    {
      "constant": false,
      "inputs": [
        {
          "name": "_amount",
          "type": "uint256"
        }
      ],
      "name": "takeFee",
      "outputs": [
        {
          "name": "",
          "type": "bool"
        }
      ],
      "payable": false,
      "stateMutability": "nonpayable",
      "type": "function"
    },
    {
      "constant": true,
      "inputs": [],
      "name": "totalTokensSold",
      "outputs": [
        {
          "name": "",
          "type": "uint256"
        }
      ],
      "payable": false,
      "stateMutability": "view",
      "type": "function"
    },
    {
      "constant": true,
      "inputs": [
        {
          "name": "",
          "type": "address"
        }
      ],
      "name": "investors",
      "outputs": [
        {
          "name": "",
          "type": "uint256"
        }
      ],
      "payable": false,
      "stateMutability": "view",
      "type": "function"
    },
    {
      "constant": true,
      "inputs": [],
      "name": "polyToken",
      "outputs": [
        {
          "name": "",
          "type": "address"
        }
      ],
      "payable": false,
      "stateMutability": "view",
      "type": "function"
    },
    {
      "constant": true,
      "inputs": [],
      "name": "startTime",
      "outputs": [
        {
          "name": "",
          "type": "uint256"
        }
      ],
      "payable": false,
      "stateMutability": "view",
      "type": "function"
    },
    {
      "constant": false,
      "inputs": [],
      "name": "pause",
      "outputs": [],
      "payable": false,
      "stateMutability": "nonpayable",
      "type": "function"
    },
    {
      "constant": false,
      "inputs": [
        {
          "name": "_tokenContract",
          "type": "address"
        }
      ],
      "name": "reclaimERC20",
      "outputs": [],
      "payable": false,
      "stateMutability": "nonpayable",
      "type": "function"
    },
    {
      "constant": true,
      "inputs": [
        {
          "name": "_fundRaiseType",
          "type": "uint8"
        }
      ],
      "name": "getRaised",
      "outputs": [
        {
          "name": "",
          "type": "uint256"
        }
      ],
      "payable": false,
      "stateMutability": "view",
      "type": "function"
    },
    {
      "constant": true,
      "inputs": [],
      "name": "pausedTime",
      "outputs": [
        {
          "name": "",
          "type": "uint256"
        }
      ],
      "payable": false,
      "stateMutability": "view",
      "type": "function"
    },
    {
      "constant": true,
      "inputs": [],
      "name": "securityToken",
      "outputs": [
        {
          "name": "",
          "type": "address"
        }
      ],
      "payable": false,
      "stateMutability": "view",
      "type": "function"
    },
    {
      "constant": true,
      "inputs": [],
      "name": "factory",
      "outputs": [
        {
          "name": "",
          "type": "address"
        }
      ],
      "payable": false,
      "stateMutability": "view",
      "type": "function"
    },
    {
      "constant": true,
      "inputs": [
        {
          "name": "",
          "type": "uint8"
        }
      ],
      "name": "fundsRaised",
      "outputs": [
        {
          "name": "",
          "type": "uint256"
        }
      ],
      "payable": false,
      "stateMutability": "view",
      "type": "function"
    },
    {
      "constant": true,
      "inputs": [
        {
          "name": "",
          "type": "uint8"
        }
      ],
      "name": "fundRaiseTypes",
      "outputs": [
        {
          "name": "",
          "type": "bool"
        }
      ],
      "payable": false,
      "stateMutability": "view",
      "type": "function"
    },
    {
      "constant": true,
      "inputs": [],
      "name": "FEE_ADMIN",
      "outputs": [
        {
          "name": "",
          "type": "bytes32"
        }
      ],
      "payable": false,
      "stateMutability": "view",
      "type": "function"
    },
    {
      "constant": true,
      "inputs": [],
      "name": "investorCount",
      "outputs": [
        {
          "name": "",
          "type": "uint256"
        }
      ],
      "payable": false,
      "stateMutability": "view",
      "type": "function"
    },
    {
      "inputs": [
        {
          "name": "_securityToken",
          "type": "address"
        },
        {
          "name": "_polyAddress",
          "type": "address"
        }
      ],
      "payable": false,
      "stateMutability": "nonpayable",
      "type": "constructor"
    },
    {
      "payable": true,
      "stateMutability": "payable",
      "type": "fallback"
    },
    {
      "anonymous": false,
      "inputs": [
        {
          "indexed": true,
          "name": "purchaser",
          "type": "address"
        },
        {
          "indexed": true,
          "name": "beneficiary",
          "type": "address"
        },
        {
          "indexed": false,
          "name": "value",
          "type": "uint256"
        },
        {
          "indexed": false,
          "name": "amount",
          "type": "uint256"
        }
      ],
      "name": "TokenPurchase",
      "type": "event"
    },
    {
      "anonymous": false,
      "inputs": [
        {
          "indexed": false,
          "name": "_allowed",
          "type": "bool"
        }
      ],
      "name": "SetAllowBeneficialInvestments",
      "type": "event"
    },
    {
      "anonymous": false,
      "inputs": [
        {
          "indexed": false,
          "name": "_fundRaiseTypes",
          "type": "uint8[]"
        }
      ],
      "name": "SetFundRaiseTypes",
      "type": "event"
    },
    {
      "anonymous": false,
      "inputs": [
        {
          "indexed": false,
          "name": "_timestammp",
          "type": "uint256"
        }
      ],
      "name": "Pause",
      "type": "event"
    },
    {
      "anonymous": false,
      "inputs": [
        {
          "indexed": false,
          "name": "_timestamp",
          "type": "uint256"
        }
      ],
      "name": "Unpause",
      "type": "event"
    },
    {
      "constant": false,
      "inputs": [
        {
          "name": "_startTime",
          "type": "uint256"
        },
        {
          "name": "_endTime",
          "type": "uint256"
        },
        {
          "name": "_cap",
          "type": "uint256"
        },
        {
          "name": "_rate",
          "type": "uint256"
        },
        {
          "name": "_fundRaiseTypes",
          "type": "uint8[]"
        },
        {
          "name": "_fundsReceiver",
          "type": "address"
        }
      ],
      "name": "configure",
      "outputs": [],
      "payable": false,
      "stateMutability": "nonpayable",
      "type": "function"
    },
    {
      "constant": true,
      "inputs": [],
      "name": "getInitFunction",
      "outputs": [
        {
          "name": "",
          "type": "bytes4"
        }
      ],
      "payable": false,
      "stateMutability": "pure",
      "type": "function"
    },
    {
      "constant": false,
      "inputs": [
        {
          "name": "_allowBeneficialInvestments",
          "type": "bool"
        }
      ],
      "name": "changeAllowBeneficialInvestments",
      "outputs": [],
      "payable": false,
      "stateMutability": "nonpayable",
      "type": "function"
    },
    {
      "constant": false,
      "inputs": [
        {
          "name": "_beneficiary",
          "type": "address"
        }
      ],
      "name": "buyTokens",
      "outputs": [],
      "payable": true,
      "stateMutability": "payable",
      "type": "function"
    },
    {
      "constant": false,
      "inputs": [
        {
          "name": "_investedPOLY",
          "type": "uint256"
        }
      ],
      "name": "buyTokensWithPoly",
      "outputs": [],
      "payable": false,
      "stateMutability": "nonpayable",
      "type": "function"
    },
    {
      "constant": true,
      "inputs": [],
      "name": "capReached",
      "outputs": [
        {
          "name": "",
          "type": "bool"
        }
      ],
      "payable": false,
      "stateMutability": "view",
      "type": "function"
    },
    {
      "constant": true,
      "inputs": [],
      "name": "getTokensSold",
      "outputs": [
        {
          "name": "",
          "type": "uint256"
        }
      ],
      "payable": false,
      "stateMutability": "view",
      "type": "function"
    },
    {
      "constant": true,
      "inputs": [],
      "name": "getPermissions",
      "outputs": [
        {
          "name": "",
          "type": "bytes32[]"
        }
      ],
      "payable": false,
      "stateMutability": "view",
      "type": "function"
    },
    {
      "constant": true,
      "inputs": [],
      "name": "getSTODetails",
      "outputs": [
        {
          "name": "",
          "type": "uint256"
        },
        {
          "name": "",
          "type": "uint256"
        },
        {
          "name": "",
          "type": "uint256"
        },
        {
          "name": "",
          "type": "uint256"
        },
        {
          "name": "",
          "type": "uint256"
        },
        {
          "name": "",
          "type": "uint256"
        },
        {
          "name": "",
          "type": "uint256"
        },
        {
          "name": "",
          "type": "bool"
        }
      ],
      "payable": false,
      "stateMutability": "view",
      "type": "function"
    }
  ],
  "bytecode": "0x60806040526002805460a060020a60ff0219169055600b805461ffff1916905534801561002b57600080fd5b5060405160408061217283398101604052805160209091015160018054600160a060020a03938416600160a060020a03199182161790915560008054821633179055600280549390921692169190911790556120e68061008c6000396000f3006080604052600436106101715763ffffffff60e060020a6000350416631040dc27811461017c5780631365eaaf146101d45780631613ec9d146102465780632c4e722e146102905780632df413e2146102b75780633197cbb6146102e0578063355274ea146102f55780633f4ba83a1461030a578063441b9e4a1461031f5780634f93594514610339578063521eb2731461034e5780635c975abb1461037f5780635f7619a41461039457806363b20117146103ac5780636f7bc9be146103c15780636faa22a5146103e257806378e97925146103f75780638456cb591461040c5780638905fd4f146104215780639a7cc13514610442578063b2cca39d1461045d578063b84dfbd214610472578063c3a07df614610487578063c45a0155146104ec578063c4d2c6bd14610501578063cb7526791461051c578063d143a37914610534578063d70afa961461054f578063d7e64c0014610564578063ec8ac4d814610579578063ee7c0db01461058d575b61017a336105a2565b005b34801561018857600080fd5b5061019161076a565b604080519889526020890197909752878701959095526060870193909352608086019190915260a085015260c0840152151560e083015251908190036101000190f35b3480156101e057600080fd5b50604080516020600460843581810135838102808601850190965280855261017a95833595602480359660443596606435963696919560a49594909101928291908501908490808284375094975050509235600160a060020a0316935061084792505050565b34801561025257600080fd5b5061025b610b10565b604080517fffffffff000000000000000000000000000000000000000000000000000000009092168252519081900360200190f35b34801561029c57600080fd5b506102a5610b6b565b60408051918252519081900360200190f35b3480156102c357600080fd5b506102cc610b71565b604080519115158252519081900360200190f35b3480156102ec57600080fd5b506102a5610b7f565b34801561030157600080fd5b506102a5610b85565b34801561031657600080fd5b5061017a610b8b565b34801561032b57600080fd5b5061017a6004351515610c61565b34801561034557600080fd5b506102cc610ded565b34801561035a57600080fd5b50610363610df8565b60408051600160a060020a039092168252519081900360200190f35b34801561038b57600080fd5b506102cc610e07565b3480156103a057600080fd5b506102cc600435610e17565b3480156103b857600080fd5b506102a561115b565b3480156103cd57600080fd5b506102a5600160a060020a0360043516611161565b3480156103ee57600080fd5b50610363611173565b34801561040357600080fd5b506102a5611182565b34801561041857600080fd5b5061017a611188565b34801561042d57600080fd5b5061017a600160a060020a03600435166112b5565b34801561044e57600080fd5b506102a560ff60043516611567565b34801561046957600080fd5b506102a5611593565b34801561047e57600080fd5b50610363611599565b34801561049357600080fd5b5061049c6115a8565b60408051602080825283518183015283519192839290830191858101910280838360005b838110156104d85781810151838201526020016104c0565b505050509050019250505060405180910390f35b3480156104f857600080fd5b506103636115ba565b34801561050d57600080fd5b506102a560ff600435166115c9565b34801561052857600080fd5b5061017a6004356115db565b34801561054057600080fd5b506102cc60ff60043516611706565b34801561055b57600080fd5b506102a561171b565b34801561057057600080fd5b506102a561173f565b61017a600160a060020a03600435166105a2565b34801561059957600080fd5b506102a5611745565b600b5460009060ff16156105b557600080fd5b600b805460ff191660011790819055610100900460ff16151561065857600160a060020a0382163314610658576040805160e560020a62461bcd02815260206004820152602d60248201527f42656e6566696369617279206164647265737320646f6573206e6f74206d617460448201527f6368206d73672e73656e64657200000000000000000000000000000000000000606482015290519081900360840190fd5b60025460a060020a900460ff16156106ba576040805160e560020a62461bcd02815260206004820152601460248201527f53686f756c64206e6f7420626520706175736564000000000000000000000000604482015290519081900360640190fd5b6000805260036020527f3617319a054d772f909f7c479a2cebe5066e836a939412e32403c99029b92eff5460ff16151561073e576040805160e560020a62461bcd02815260206004820152601d60248201527f4d6f6465206f6620696e766573746d656e74206973206e6f7420455448000000604482015290519081900360640190fd5b503461074a828261174b565b61075261188d565b61075c82826118c9565b5050600b805460ff19169055565b600080600080600080600080600554600654600d54600c54600360006001600281111561079357fe5b60ff9081168252602082019290925260400160002054166107de576000805260046020527f17ef568e3e12ab5b9c7254a8d58478811de00f9e6eb34345acd53bf8fd09d3ec5461080b565b600160005260046020527fabd6e7cb50984ff9c2f3e18a2660c3353dadf4e3291deeb275dae2cd1e44fe05545b600854600a546001600052600360205260008051602061207b83398151915254969f959e50939c50919a5098509650945060ff90911692509050565b600054600160a060020a031633146108a9576040805160e560020a62461bcd02815260206004820152601560248201527f53656e646572206973206e6f7420666163746f72790000000000000000000000604482015290519081900360640190fd5b60008311610927576040805160e560020a62461bcd02815260206004820152602660248201527f52617465206f6620746f6b656e2073686f756c6420626520677265617465722060448201527f7468616e20300000000000000000000000000000000000000000000000000000606482015290519081900360840190fd5b600160a060020a0381161515610987576040805160e560020a62461bcd02815260206004820152601d60248201527f5a65726f2061646472657373206973206e6f74207065726d6974746564000000604482015290519081900360640190fd5b42861015801561099657508585115b15156109ec576040805160e560020a62461bcd02815260206004820152601d60248201527f4461746520706172616d657465727320617265206e6f742076616c6964000000604482015290519081900360640190fd5b60008411610a44576040805160e560020a62461bcd02815260206004820152601c60248201527f4361702073686f756c642062652067726561746572207468616e203000000000604482015290519081900360640190fd5b8151600114610ac3576040805160e560020a62461bcd02815260206004820152602660248201527f4974206f6e6c792073656c656374732073696e676c652066756e64207261697360448201527f6520747970650000000000000000000000000000000000000000000000000000606482015290519081900360840190fd5b60058690556006859055600d849055600c8390556009805473ffffffffffffffffffffffffffffffffffffffff1916600160a060020a038316179055610b08826118cd565b505050505050565b604080517f636f6e6669677572652875696e743235362c75696e743235362c75696e74323581527f362c75696e743235362c75696e74385b5d2c61646472657373290000000000006020820152905190819003603a01902090565b600c5481565b600b54610100900460ff1681565b60065481565b600d5481565b600160009054906101000a9004600160a060020a0316600160a060020a0316638da5cb5b6040518163ffffffff1660e060020a028152600401602060405180830381600087803b158015610bde57600080fd5b505af1158015610bf2573d6000803e3d6000fd5b505050506040513d6020811015610c0857600080fd5b5051600160a060020a03163314610c57576040805160e560020a62461bcd028152602060048201526013602482015260008051602061209b833981519152604482015290519081900360640190fd5b610c5f611a7c565b565b600160009054906101000a9004600160a060020a0316600160a060020a0316638da5cb5b6040518163ffffffff1660e060020a028152600401602060405180830381600087803b158015610cb457600080fd5b505af1158015610cc8573d6000803e3d6000fd5b505050506040513d6020811015610cde57600080fd5b5051600160a060020a03163314610d2d576040805160e560020a62461bcd028152602060048201526013602482015260008051602061209b833981519152604482015290519081900360640190fd5b600b54610100900460ff1615158115151415610d93576040805160e560020a62461bcd02815260206004820152601560248201527f446f6573206e6f74206368616e67652076616c75650000000000000000000000604482015290519081900360640190fd5b600b805482151561010090810261ff00199092169190911791829055604080519190920460ff161515815290517fea6eddcb8f2bf55dfb29aef4bd48214ef0798b9eae2e1bbb25dac99ecf6da6ae9181900360200190a150565b600d54600a54101590565b600954600160a060020a031681565b60025460a060020a900460ff1681565b60007f4645455f41444d494e0000000000000000000000000000000000000000000000600080600160009054906101000a9004600160a060020a0316600160a060020a0316638da5cb5b6040518163ffffffff1660e060020a028152600401602060405180830381600087803b158015610e9057600080fd5b505af1158015610ea4573d6000803e3d6000fd5b505050506040513d6020811015610eba57600080fd5b505160005433600160a060020a039283168114945091161490508180610edd5750805b80610f835750600154604080517f8658b8b9000000000000000000000000000000000000000000000000000000008152336004820152306024820152604481018690529051600160a060020a0390921691638658b8b9916064808201926020929091908290030181600087803b158015610f5657600080fd5b505af1158015610f6a573d6000803e3d6000fd5b505050506040513d6020811015610f8057600080fd5b50515b1515610fd9576040805160e560020a62461bcd02815260206004820152601760248201527f5065726d697373696f6e20636865636b206661696c6564000000000000000000604482015290519081900360640190fd5b60025460015460008054604080517f8da5cb5b0000000000000000000000000000000000000000000000000000000081529051600160a060020a03958616956323b872dd95811694931692638da5cb5b92600480820193602093909283900390910190829087803b15801561104d57600080fd5b505af1158015611061573d6000803e3d6000fd5b505050506040513d602081101561107757600080fd5b50516040805160e060020a63ffffffff8616028152600160a060020a039384166004820152929091166024830152604482018990525160648083019260209291908290030181600087803b1580156110ce57600080fd5b505af11580156110e2573d6000803e3d6000fd5b505050506040513d60208110156110f857600080fd5b50511515611150576040805160e560020a62461bcd02815260206004820152601260248201527f556e61626c6520746f2074616b65206665650000000000000000000000000000604482015290519081900360640190fd5b506001949350505050565b600a5481565b600e6020526000908152604090205481565b600254600160a060020a031681565b60055481565b600160009054906101000a9004600160a060020a0316600160a060020a0316638da5cb5b6040518163ffffffff1660e060020a028152600401602060405180830381600087803b1580156111db57600080fd5b505af11580156111ef573d6000803e3d6000fd5b505050506040513d602081101561120557600080fd5b5051600160a060020a03163314611254576040805160e560020a62461bcd028152602060048201526013602482015260008051602061209b833981519152604482015290519081900360640190fd5b60065442106112ad576040805160e560020a62461bcd02815260206004820152601660248201527f53544f20686173206265656e2066696e616c697a656400000000000000000000604482015290519081900360640190fd5b610c5f611b32565b600080600160009054906101000a9004600160a060020a0316600160a060020a0316638da5cb5b6040518163ffffffff1660e060020a028152600401602060405180830381600087803b15801561130b57600080fd5b505af115801561131f573d6000803e3d6000fd5b505050506040513d602081101561133557600080fd5b5051600160a060020a03163314611384576040805160e560020a62461bcd028152602060048201526013602482015260008051602061209b833981519152604482015290519081900360640190fd5b600160a060020a03831615156113e4576040805160e560020a62461bcd02815260206004820152600f60248201527f496e76616c696420616464726573730000000000000000000000000000000000604482015290519081900360640190fd5b604080517f70a082310000000000000000000000000000000000000000000000000000000081523060048201529051849350600160a060020a038416916370a082319160248083019260209291908290030181600087803b15801561144857600080fd5b505af115801561145c573d6000803e3d6000fd5b505050506040513d602081101561147257600080fd5b5051604080517fa9059cbb000000000000000000000000000000000000000000000000000000008152336004820152602481018390529051919250600160a060020a0384169163a9059cbb916044808201926020929091908290030181600087803b1580156114e057600080fd5b505af11580156114f4573d6000803e3d6000fd5b505050506040513d602081101561150a57600080fd5b50511515611562576040805160e560020a62461bcd02815260206004820152600f60248201527f5472616e73666572206661696c65640000000000000000000000000000000000604482015290519081900360640190fd5b505050565b60006004600083600281111561157957fe5b60ff16815260208101919091526040016000205492915050565b60075481565b600154600160a060020a031681565b60408051600081526020810190915290565b600054600160a060020a031681565b60046020526000908152604090205481565b600b5460ff16156115eb57600080fd5b600b805460ff1916600117905560025460a060020a900460ff161561165a576040805160e560020a62461bcd02815260206004820152601460248201527f53686f756c64206e6f7420626520706175736564000000000000000000000000604482015290519081900360640190fd5b6001600052600360205260008051602061207b8339815191525460ff1615156116cd576040805160e560020a62461bcd02815260206004820152601e60248201527f4d6f6465206f6620696e766573746d656e74206973206e6f7420504f4c590000604482015290519081900360640190fd5b6116d7338261174b565b6009546116ef903390600160a060020a031683611bed565b6116f933826118c9565b50600b805460ff19169055565b60036020526000908152604090205460ff1681565b7f4645455f41444d494e000000000000000000000000000000000000000000000081565b60085481565b600a5490565b60006117578383611c95565b61176082611ec1565b6001600052600360205260008051602061207b8339815191525490915060ff16156117e1576117b0826004600060015b60ff1681526020810191909152604001600020549063ffffffff611ede16565b600160005260046020527fabd6e7cb50984ff9c2f3e18a2660c3353dadf4e3291deeb275dae2cd1e44fe055561181b565b6117ef826004600080611790565b6000805260046020527f17ef568e3e12ab5b9c7254a8d58478811de00f9e6eb34345acd53bf8fd09d3ec555b600a5461182e908263ffffffff611ede16565b600a5561183b8382611eeb565b60408051838152602081018390528151600160a060020a0386169233927f623b3804fa71d67900d064613da8f94b9617215ee90799290593e1745087ad18929081900390910190a361156283836118c9565b600954604051600160a060020a03909116903480156108fc02916000818181858888f193505050501580156118c6573d6000803e3d6000fd5b50565b5050565b6000808251111515611929576040805160e560020a62461bcd02815260206004820152601b60248201527f52616973652074797065206973206e6f74207370656369666965640000000000604482015290519081900360640190fd5b5060036020527f3617319a054d772f909f7c479a2cebe5066e836a939412e32403c99029b92eff805460ff1990811690915560008051602061207b833981519152805482169055600260009081527fc3a24b0501bd2c13a7e57f2db4369ec4c223447539fc0724a9d55ac4a06ebd4d80549092169091555b81518160ff161015611a0357600160036000848460ff168151811015156119c457fe5b9060200190602002015160028111156119d957fe5b60ff1681526020810191909152604001600020805460ff19169115159190911790556001016119a1565b7fe5724f42dd9f217c97b3768212ed6d6692c0135e252387d61b98af28fecd9b02826040518080602001828103825283818151815260200191508051906020019060200280838360005b83811015611a65578181015183820152602001611a4d565b505050509050019250505060405180910390a15050565b60025460a060020a900460ff161515611adf576040805160e560020a62461bcd02815260206004820152601660248201527f436f6e7472616374206973206e6f742070617573656400000000000000000000604482015290519081900360640190fd5b6002805474ff0000000000000000000000000000000000000000191690556040805142815290517faaa520fdd7d2c83061d632fa017b0432407e798818af63ea908589fceda39ab79181900360200190a1565b60025460a060020a900460ff1615611b94576040805160e560020a62461bcd02815260206004820152601260248201527f436f6e7472616374206973207061757365640000000000000000000000000000604482015290519081900360640190fd5b6002805474ff0000000000000000000000000000000000000000191660a060020a1790556040805142815290517f68b095021b1f40fe513109f513c66692f0b3219aee674a69f4efc57badb8201d9181900360200190a1565b600254604080517f23b872dd000000000000000000000000000000000000000000000000000000008152600160a060020a038681166004830152858116602483015260448201859052915191909216916323b872dd9160648083019260209291908290030181600087803b158015611c6457600080fd5b505af1158015611c78573d6000803e3d6000fd5b505050506040513d6020811015611c8e57600080fd5b5050505050565b600160a060020a0382161515611d1a576040805160e560020a62461bcd028152602060048201526024808201527f42656e656669636961727920616464726573732073686f756c64206e6f74206260448201527f6520307800000000000000000000000000000000000000000000000000000000606482015290519081900360840190fd5b801515611d97576040805160e560020a62461bcd02815260206004820152602860248201527f416d6f756e7420696e7665737465642073686f756c64206e6f7420626520657160448201527f75616c20746f2030000000000000000000000000000000000000000000000000606482015290519081900360840190fd5b600d54611db5611da683611ec1565b600a549063ffffffff611ede16565b1115611e31576040805160e560020a62461bcd02815260206004820152602760248201527f496e766573746d656e74206d6f7265207468616e20636170206973206e6f742060448201527f616c6c6f77656400000000000000000000000000000000000000000000000000606482015290519081900360840190fd5b6005544210158015611e4557506006544211155b15156118c9576040805160e560020a62461bcd02815260206004820152602260248201527f4f66666572696e6720697320636c6f7365642f4e6f742079657420737461727460448201527f6564000000000000000000000000000000000000000000000000000000000000606482015290519081900360840190fd5b6000611ed8600c5483611f6090919063ffffffff16565b92915050565b81810182811015611ed857fe5b600160a060020a0382166000908152600e60205260409020541515611f14576008805460010190555b600160a060020a0382166000908152600e6020526040902054611f3d908263ffffffff611ede16565b600160a060020a0383166000908152600e60205260409020556118c98282611f89565b6000821515611f7157506000611ed8565b50818102818382811515611f8157fe5b0414611ed857fe5b600154604080517f40c10f19000000000000000000000000000000000000000000000000000000008152600160a060020a03858116600483015260248201859052915191909216916340c10f199160448083019260209291908290030181600087803b158015611ff857600080fd5b505af115801561200c573d6000803e3d6000fd5b505050506040513d602081101561202257600080fd5b505115156118c9576040805160e560020a62461bcd02815260206004820152601b60248201527f4572726f7220696e206d696e74696e672074686520746f6b656e730000000000604482015290519081900360640190fd00a15bc60c955c405d20d9149c709e2460f1c2d9a497496a7f46004d1772c3054c53656e646572206973206e6f74206f776e657200000000000000000000000000a165627a7a72305820b23c8c2ee3a06e0fcaf3a10d39760bf3ee9d5fd3a17cf504a824cca9e99514ad0029",
  "source": "pragma solidity ^0.4.24;\n\nimport \"./ISTO.sol\";\nimport \"../../interfaces/ISecurityToken.sol\";\nimport \"openzeppelin-solidity/contracts/ReentrancyGuard.sol\";\nimport \"openzeppelin-solidity/contracts/math/SafeMath.sol\";\n\n/**\n * @title STO module for standard capped crowdsale\n */\ncontract CappedSTO is ISTO, ReentrancyGuard {\n    using SafeMath for uint256;\n\n    // Determine whether users can invest on behalf of a beneficiary\n    bool public allowBeneficialInvestments = false;\n    // How many token units a buyer gets per wei / base unit of POLY\n    uint256 public rate;\n    //How many tokens this STO will be allowed to sell to investors\n    uint256 public cap;\n\n    mapping (address => uint256) public investors;\n\n    /**\n    * Event for token purchase logging\n    * @param purchaser who paid for the tokens\n    * @param beneficiary who got the tokens\n    * @param value weis paid for purchase\n    * @param amount amount of tokens purchased\n    */\n    event TokenPurchase(address indexed purchaser, address indexed beneficiary, uint256 value, uint256 amount);\n\n    event SetAllowBeneficialInvestments(bool _allowed);\n\n    constructor (address _securityToken, address _polyAddress) public\n    Module(_securityToken, _polyAddress)\n    {\n    }\n\n    //////////////////////////////////\n    /**\n    * @notice fallback function ***DO NOT OVERRIDE***\n    */\n    function () external payable {\n        buyTokens(msg.sender);\n    }\n\n    /**\n     * @notice Function used to intialize the contract variables\n     * @param _startTime Unix timestamp at which offering get started\n     * @param _endTime Unix timestamp at which offering get ended\n     * @param _cap Maximum No. of tokens for sale\n     * @param _rate Token units a buyer gets per wei / base unit of POLY\n     * @param _fundRaiseTypes Type of currency used to collect the funds\n     * @param _fundsReceiver Ethereum account address to hold the funds\n     */\n    function configure(\n        uint256 _startTime,\n        uint256 _endTime,\n        uint256 _cap,\n        uint256 _rate,\n        FundRaiseType[] _fundRaiseTypes,\n        address _fundsReceiver\n    )\n    public\n    onlyFactory\n    {\n        require(_rate > 0, \"Rate of token should be greater than 0\");\n        require(_fundsReceiver != address(0), \"Zero address is not permitted\");\n        /*solium-disable-next-line security/no-block-members*/\n        require(_startTime >= now && _endTime > _startTime, \"Date parameters are not valid\");\n        require(_cap > 0, \"Cap should be greater than 0\");\n        require(_fundRaiseTypes.length == 1, \"It only selects single fund raise type\");\n        startTime = _startTime;\n        endTime = _endTime;\n        cap = _cap;\n        rate = _rate;\n        wallet = _fundsReceiver;\n        _setFundRaiseType(_fundRaiseTypes);\n    }\n\n    /**\n     * @notice This function returns the signature of configure function\n     */\n    function getInitFunction() public pure returns (bytes4) {\n        return bytes4(keccak256(\"configure(uint256,uint256,uint256,uint256,uint8[],address)\"));\n    }\n\n    /**\n     * @notice Function to set allowBeneficialInvestments (allow beneficiary to be different to funder)\n     * @param _allowBeneficialInvestments Boolean to allow or disallow beneficial investments\n     */\n    function changeAllowBeneficialInvestments(bool _allowBeneficialInvestments) public onlyOwner {\n        require(_allowBeneficialInvestments != allowBeneficialInvestments, \"Does not change value\");\n        allowBeneficialInvestments = _allowBeneficialInvestments;\n        emit SetAllowBeneficialInvestments(allowBeneficialInvestments);\n    }\n\n    /**\n      * @notice Low level token purchase ***DO NOT OVERRIDE***\n      * @param _beneficiary Address performing the token purchase\n      */\n    function buyTokens(address _beneficiary) public payable nonReentrant {\n        if (!allowBeneficialInvestments) {\n            require(_beneficiary == msg.sender, \"Beneficiary address does not match msg.sender\");\n        }\n\n        require(!paused, \"Should not be paused\");\n        require(fundRaiseTypes[uint8(FundRaiseType.ETH)], \"Mode of investment is not ETH\");\n\n        uint256 weiAmount = msg.value;\n        _processTx(_beneficiary, weiAmount);\n\n        _forwardFunds();\n        _postValidatePurchase(_beneficiary, weiAmount);\n    }\n\n    /**\n      * @notice low level token purchase\n      * @param _investedPOLY Amount of POLY invested\n      */\n    function buyTokensWithPoly(uint256 _investedPOLY) public nonReentrant{\n        require(!paused, \"Should not be paused\");\n        require(fundRaiseTypes[uint8(FundRaiseType.POLY)], \"Mode of investment is not POLY\");\n        _processTx(msg.sender, _investedPOLY);\n        _forwardPoly(msg.sender, wallet, _investedPOLY);\n        _postValidatePurchase(msg.sender, _investedPOLY);\n    }\n\n    /**\n    * @notice Checks whether the cap has been reached.\n    * @return bool Whether the cap was reached\n    */\n    function capReached() public view returns (bool) {\n        return totalTokensSold >= cap;\n    }\n\n    /**\n     * @notice Return the total no. of tokens sold\n     */\n    function getTokensSold() public view returns (uint256) {\n        return totalTokensSold;\n    }\n\n    /**\n     * @notice Return the permissions flag that are associated with STO\n     */\n    function getPermissions() public view returns(bytes32[]) {\n        bytes32[] memory allPermissions = new bytes32[](0);\n        return allPermissions;\n    }\n\n    /**\n     * @notice Return the STO details\n     * @return Unixtimestamp at which offering gets start.\n     * @return Unixtimestamp at which offering ends.\n     * @return Number of tokens this STO will be allowed to sell to investors.\n     * @return Amount of funds raised\n     * @return Number of individual investors this STO have.\n     * @return Amount of tokens get sold. \n     * @return Boolean value to justify whether the fund raise type is POLY or not, i.e true for POLY.\n     */\n    function getSTODetails() public view returns(uint256, uint256, uint256, uint256, uint256, uint256, uint256, bool) {\n        return (\n            startTime,\n            endTime,\n            cap,\n            rate,\n            (fundRaiseTypes[uint8(FundRaiseType.POLY)]) ? fundsRaised[uint8(FundRaiseType.POLY)]: fundsRaised[uint8(FundRaiseType.ETH)],\n            investorCount,\n            totalTokensSold,\n            (fundRaiseTypes[uint8(FundRaiseType.POLY)])\n        );\n    }\n\n    // -----------------------------------------\n    // Internal interface (extensible)\n    // -----------------------------------------\n    /**\n      * Processing the purchase as well as verify the required validations\n      * @param _beneficiary Address performing the token purchase\n      * @param _investedAmount Value in wei involved in the purchase\n    */\n    function _processTx(address _beneficiary, uint256 _investedAmount) internal {\n\n        _preValidatePurchase(_beneficiary, _investedAmount);\n        // calculate token amount to be created\n        uint256 tokens = _getTokenAmount(_investedAmount);\n\n        // update state\n        if (fundRaiseTypes[uint8(FundRaiseType.POLY)]) {\n            fundsRaised[uint8(FundRaiseType.POLY)] = fundsRaised[uint8(FundRaiseType.POLY)].add(_investedAmount);\n        } else {\n            fundsRaised[uint8(FundRaiseType.ETH)] = fundsRaised[uint8(FundRaiseType.ETH)].add(_investedAmount);\n        }\n        totalTokensSold = totalTokensSold.add(tokens);\n\n        _processPurchase(_beneficiary, tokens);\n        emit TokenPurchase(msg.sender, _beneficiary, _investedAmount, tokens);\n\n        _updatePurchasingState(_beneficiary, _investedAmount);\n    }\n\n    /**\n    * @notice Validation of an incoming purchase.\n      Use require statements to revert state when conditions are not met. Use super to concatenate validations.\n    * @param _beneficiary Address performing the token purchase\n    * @param _investedAmount Value in wei involved in the purchase\n    */\n    function _preValidatePurchase(address _beneficiary, uint256 _investedAmount) internal view {\n        require(_beneficiary != address(0), \"Beneficiary address should not be 0x\");\n        require(_investedAmount != 0, \"Amount invested should not be equal to 0\");\n        require(totalTokensSold.add(_getTokenAmount(_investedAmount)) <= cap, \"Investment more than cap is not allowed\");\n        /*solium-disable-next-line security/no-block-members*/\n        require(now >= startTime && now <= endTime, \"Offering is closed/Not yet started\");\n    }\n\n    /**\n    * @notice Validation of an executed purchase.\n      Observe state and use revert statements to undo rollback when valid conditions are not met.\n    */\n    function _postValidatePurchase(address /*_beneficiary*/, uint256 /*_investedAmount*/) internal pure {\n      // optional override\n    }\n\n    /**\n    * @notice Source of tokens.\n      Override this method to modify the way in which the crowdsale ultimately gets and sends its tokens.\n    * @param _beneficiary Address performing the token purchase\n    * @param _tokenAmount Number of tokens to be emitted\n    */\n    function _deliverTokens(address _beneficiary, uint256 _tokenAmount) internal {\n        require(ISecurityToken(securityToken).mint(_beneficiary, _tokenAmount), \"Error in minting the tokens\");\n    }\n\n    /**\n    * @notice Executed when a purchase has been validated and is ready to be executed. Not necessarily emits/sends tokens.\n    * @param _beneficiary Address receiving the tokens\n    * @param _tokenAmount Number of tokens to be purchased\n    */\n    function _processPurchase(address _beneficiary, uint256 _tokenAmount) internal {\n        if (investors[_beneficiary] == 0) {\n            investorCount = investorCount + 1;\n        }\n        investors[_beneficiary] = investors[_beneficiary].add(_tokenAmount);\n\n        _deliverTokens(_beneficiary, _tokenAmount);\n    }\n\n    /**\n    * @notice Overrides for extensions that require an internal state to check for validity\n      (current user contributions, etc.)\n    */\n    function _updatePurchasingState(address /*_beneficiary*/, uint256 /*_investedAmount*/) internal pure {\n      // optional override\n    }\n\n    /**\n    * @notice Overrides to extend the way in which ether is converted to tokens.\n    * @param _investedAmount Value in wei to be converted into tokens\n    * @return Number of tokens that can be purchased with the specified _investedAmount\n    */\n    function _getTokenAmount(uint256 _investedAmount) internal view returns (uint256) {\n        return _investedAmount.mul(rate);\n    }\n\n    /**\n    * @notice Determines how ETH is stored/forwarded on purchases.\n    */\n    function _forwardFunds() internal {\n        wallet.transfer(msg.value);\n    }\n\n    /**\n     * @notice Internal function used to forward the POLY raised to beneficiary address\n     * @param _beneficiary Address of the funds reciever\n     * @param _to Address who wants to ST-20 tokens\n     * @param _fundsAmount Amount invested by _to\n     */\n    function _forwardPoly(address _beneficiary, address _to, uint256 _fundsAmount) internal {\n        polyToken.transferFrom(_beneficiary, _to, _fundsAmount);\n    }\n\n}\n",
  "sourcePath": "/Users/polymath/polymath-core/contracts/modules/STO/CappedSTO.sol",
  "compiler": {
    "name": "solc",
    "version": "0.4.24+commit.e67f0147.Emscripten.clang"
  },
  "schemaVersion": "2.0.1",
  "updatedAt": "2018-11-20T13:57:45.510Z"
}