{
  "contractName": "LockupVolumeRestrictionTM",
  "abi": [
    {
      "constant": true,
      "inputs": [],
      "name": "ADMIN",
      "outputs": [
        {
          "name": "",
          "type": "bytes32"
        }
      ],
      "payable": false,
      "stateMutability": "view",
      "type": "function"
    },
    {
      "constant": false,
      "inputs": [],
      "name": "unpause",
      "outputs": [],
      "payable": false,
      "stateMutability": "nonpayable",
      "type": "function"
    },
    {
      "constant": true,
      "inputs": [],
      "name": "paused",
      "outputs": [
        {
          "name": "",
          "type": "bool"
        }
      ],
      "payable": false,
      "stateMutability": "view",
      "type": "function"
    },
    {
      "constant": false,
      "inputs": [
        {
          "name": "_amount",
          "type": "uint256"
        }
      ],
      "name": "takeFee",
      "outputs": [
        {
          "name": "",
          "type": "bool"
        }
      ],
      "payable": false,
      "stateMutability": "nonpayable",
      "type": "function"
    },
    {
      "constant": true,
      "inputs": [],
      "name": "polyToken",
      "outputs": [
        {
          "name": "",
          "type": "address"
        }
      ],
      "payable": false,
      "stateMutability": "view",
      "type": "function"
    },
    {
      "constant": false,
      "inputs": [],
      "name": "pause",
      "outputs": [],
      "payable": false,
      "stateMutability": "nonpayable",
      "type": "function"
    },
    {
      "constant": true,
      "inputs": [],
      "name": "securityToken",
      "outputs": [
        {
          "name": "",
          "type": "address"
        }
      ],
      "payable": false,
      "stateMutability": "view",
      "type": "function"
    },
    {
      "constant": true,
      "inputs": [],
      "name": "factory",
      "outputs": [
        {
          "name": "",
          "type": "address"
        }
      ],
      "payable": false,
      "stateMutability": "view",
      "type": "function"
    },
    {
      "constant": true,
      "inputs": [],
      "name": "FEE_ADMIN",
      "outputs": [
        {
          "name": "",
          "type": "bytes32"
        }
      ],
      "payable": false,
      "stateMutability": "view",
      "type": "function"
    },
    {
      "inputs": [
        {
          "name": "_securityToken",
          "type": "address"
        },
        {
          "name": "_polyAddress",
          "type": "address"
        }
      ],
      "payable": false,
      "stateMutability": "nonpayable",
      "type": "constructor"
    },
    {
      "anonymous": false,
      "inputs": [
        {
          "indexed": true,
          "name": "userAddress",
          "type": "address"
        },
        {
          "indexed": false,
          "name": "lockUpPeriodSeconds",
          "type": "uint256"
        },
        {
          "indexed": false,
          "name": "releaseFrequencySeconds",
          "type": "uint256"
        },
        {
          "indexed": false,
          "name": "startTime",
          "type": "uint256"
        },
        {
          "indexed": false,
          "name": "totalAmount",
          "type": "uint256"
        },
        {
          "indexed": true,
          "name": "addedIndex",
          "type": "uint256"
        }
      ],
      "name": "AddNewLockUp",
      "type": "event"
    },
    {
      "anonymous": false,
      "inputs": [
        {
          "indexed": true,
          "name": "userAddress",
          "type": "address"
        },
        {
          "indexed": false,
          "name": "lockUpPeriodSeconds",
          "type": "uint256"
        },
        {
          "indexed": false,
          "name": "releaseFrequencySeconds",
          "type": "uint256"
        },
        {
          "indexed": false,
          "name": "startTime",
          "type": "uint256"
        },
        {
          "indexed": false,
          "name": "totalAmount",
          "type": "uint256"
        },
        {
          "indexed": true,
          "name": "removedIndex",
          "type": "uint256"
        }
      ],
      "name": "RemoveLockUp",
      "type": "event"
    },
    {
      "anonymous": false,
      "inputs": [
        {
          "indexed": true,
          "name": "userAddress",
          "type": "address"
        },
        {
          "indexed": false,
          "name": "lockUpPeriodSeconds",
          "type": "uint256"
        },
        {
          "indexed": false,
          "name": "releaseFrequencySeconds",
          "type": "uint256"
        },
        {
          "indexed": false,
          "name": "startTime",
          "type": "uint256"
        },
        {
          "indexed": false,
          "name": "totalAmount",
          "type": "uint256"
        },
        {
          "indexed": true,
          "name": "modifiedIndex",
          "type": "uint256"
        }
      ],
      "name": "ModifyLockUp",
      "type": "event"
    },
    {
      "anonymous": false,
      "inputs": [
        {
          "indexed": false,
          "name": "_timestammp",
          "type": "uint256"
        }
      ],
      "name": "Pause",
      "type": "event"
    },
    {
      "anonymous": false,
      "inputs": [
        {
          "indexed": false,
          "name": "_timestamp",
          "type": "uint256"
        }
      ],
      "name": "Unpause",
      "type": "event"
    },
    {
      "constant": false,
      "inputs": [
        {
          "name": "_from",
          "type": "address"
        },
        {
          "name": "",
          "type": "address"
        },
        {
          "name": "_amount",
          "type": "uint256"
        },
        {
          "name": "",
          "type": "bytes"
        },
        {
          "name": "_isTransfer",
          "type": "bool"
        }
      ],
      "name": "verifyTransfer",
      "outputs": [
        {
          "name": "",
          "type": "uint8"
        }
      ],
      "payable": false,
      "stateMutability": "nonpayable",
      "type": "function"
    },
    {
      "constant": false,
      "inputs": [
        {
          "name": "_userAddress",
          "type": "address"
        },
        {
          "name": "_lockUpPeriodSeconds",
          "type": "uint256"
        },
        {
          "name": "_releaseFrequencySeconds",
          "type": "uint256"
        },
        {
          "name": "_startTime",
          "type": "uint256"
        },
        {
          "name": "_totalAmount",
          "type": "uint256"
        }
      ],
      "name": "addLockUp",
      "outputs": [],
      "payable": false,
      "stateMutability": "nonpayable",
      "type": "function"
    },
    {
      "constant": false,
      "inputs": [
        {
          "name": "_userAddresses",
          "type": "address[]"
        },
        {
          "name": "_lockUpPeriodsSeconds",
          "type": "uint256[]"
        },
        {
          "name": "_releaseFrequenciesSeconds",
          "type": "uint256[]"
        },
        {
          "name": "_startTimes",
          "type": "uint256[]"
        },
        {
          "name": "_totalAmounts",
          "type": "uint256[]"
        }
      ],
      "name": "addLockUpMulti",
      "outputs": [],
      "payable": false,
      "stateMutability": "nonpayable",
      "type": "function"
    },
    {
      "constant": false,
      "inputs": [
        {
          "name": "_userAddress",
          "type": "address"
        },
        {
          "name": "_lockUpIndex",
          "type": "uint256"
        }
      ],
      "name": "removeLockUp",
      "outputs": [],
      "payable": false,
      "stateMutability": "nonpayable",
      "type": "function"
    },
    {
      "constant": false,
      "inputs": [
        {
          "name": "_userAddress",
          "type": "address"
        },
        {
          "name": "_lockUpIndex",
          "type": "uint256"
        },
        {
          "name": "_lockUpPeriodSeconds",
          "type": "uint256"
        },
        {
          "name": "_releaseFrequencySeconds",
          "type": "uint256"
        },
        {
          "name": "_startTime",
          "type": "uint256"
        },
        {
          "name": "_totalAmount",
          "type": "uint256"
        }
      ],
      "name": "modifyLockUp",
      "outputs": [],
      "payable": false,
      "stateMutability": "nonpayable",
      "type": "function"
    },
    {
      "constant": true,
      "inputs": [
        {
          "name": "_userAddress",
          "type": "address"
        }
      ],
      "name": "getLockUpsLength",
      "outputs": [
        {
          "name": "",
          "type": "uint256"
        }
      ],
      "payable": false,
      "stateMutability": "view",
      "type": "function"
    },
    {
      "constant": true,
      "inputs": [
        {
          "name": "_userAddress",
          "type": "address"
        },
        {
          "name": "_lockUpIndex",
          "type": "uint256"
        }
      ],
      "name": "getLockUp",
      "outputs": [
        {
          "name": "lockUpPeriodSeconds",
          "type": "uint256"
        },
        {
          "name": "releaseFrequencySeconds",
          "type": "uint256"
        },
        {
          "name": "startTime",
          "type": "uint256"
        },
        {
          "name": "totalAmount",
          "type": "uint256"
        },
        {
          "name": "alreadyWithdrawn",
          "type": "uint256"
        }
      ],
      "payable": false,
      "stateMutability": "view",
      "type": "function"
    },
    {
      "constant": true,
      "inputs": [],
      "name": "getInitFunction",
      "outputs": [
        {
          "name": "",
          "type": "bytes4"
        }
      ],
      "payable": false,
      "stateMutability": "pure",
      "type": "function"
    },
    {
      "constant": true,
      "inputs": [],
      "name": "getPermissions",
      "outputs": [
        {
          "name": "",
          "type": "bytes32[]"
        }
      ],
      "payable": false,
      "stateMutability": "view",
      "type": "function"
    }
  ],
  "bytecode": "0x60806040526002805460a060020a60ff021916905534801561002057600080fd5b5060405160408061241383398101604052805160209091015160018054600160a060020a03938416600160a060020a0319918216179091556000805482163317905560028054939092169216919091179055612392806100816000396000f3006080604052600436106100e25763ffffffff60e060020a6000350416631613ec9d81146100e75780631babae1c146101315780632801f62d146101635780632a0acc6a146101b35780633f4ba83a146101da57806358d82d03146101ef5780635c975abb1461023e5780635f7619a4146102675780636d6266341461027f5780636faa22a5146102a05780638456cb59146102d157806398096e8f146102e6578063b84dfbd21461030a578063c3a07df61461031f578063c45a015514610384578063d70afa9614610399578063daa07afb146103ae578063de6ee1bc146103db575b600080fd5b3480156100f357600080fd5b506100fc610472565b604080517fffffffff000000000000000000000000000000000000000000000000000000009092168252519081900360200190f35b34801561013d57600080fd5b50610161600160a060020a036004351660243560443560643560843560a435610478565b005b34801561016f57600080fd5b5061016160246004803582810192908201359181358083019290820135916044358083019290820135916064358083019290820135916084359182019101356107bf565b3480156101bf57600080fd5b506101c8610a5e565b60408051918252519081900360200190f35b3480156101e657600080fd5b50610161610a6d565b3480156101fb57600080fd5b50610213600160a060020a0360043516602435610b55565b6040805195865260208601949094528484019290925260608401526080830152519081900360a00190f35b34801561024a57600080fd5b50610253610c2c565b604080519115158252519081900360200190f35b34801561027357600080fd5b50610253600435610c3c565b34801561028b57600080fd5b506101c8600160a060020a0360043516610f58565b3480156102ac57600080fd5b506102b5610f73565b60408051600160a060020a039092168252519081900360200190f35b3480156102dd57600080fd5b50610161610f82565b3480156102f257600080fd5b50610161600160a060020a0360043516602435611068565b34801561031657600080fd5b506102b56113b6565b34801561032b57600080fd5b506103346113c5565b60408051602080825283518183015283519192839290830191858101910280838360005b83811015610370578181015183820152602001610358565b505050509050019250505060405180910390f35b34801561039057600080fd5b506102b5611417565b3480156103a557600080fd5b506101c8611426565b3480156103ba57600080fd5b50610161600160a060020a036004351660243560443560643560843561144a565b3480156103e757600080fd5b50604080516020601f60643560048181013592830184900484028501840190955281845261044e94600160a060020a0381358116956024803590921695604435953695608494019181908401838280828437509497505050509135151592506116c3915050565b6040518082600381111561045e57fe5b60ff16815260200191505060405180910390f35b60005b90565b600060d960020a6420a226a4a702600080600160009054906101000a9004600160a060020a0316600160a060020a0316638da5cb5b6040518163ffffffff1660e060020a028152600401602060405180830381600087803b1580156104dc57600080fd5b505af11580156104f0573d6000803e3d6000fd5b505050506040513d602081101561050657600080fd5b505160005433600160a060020a0392831681149450911614905081806105295750805b806105b957506001546040805160e060020a638658b8b9028152336004820152306024820152604481018690529051600160a060020a0390921691638658b8b9916064808201926020929091908290030181600087803b15801561058c57600080fd5b505af11580156105a0573d6000803e3d6000fd5b505050506040513d60208110156105b657600080fd5b50515b15156105fd576040805160e560020a62461bcd0281526020600482015260176024820152600080516020612347833981519152604482015290519081900360640190fd5b600160a060020a038a16600090815260036020526040902054891061066c576040805160e560020a62461bcd02815260206004820152601d60248201527f4172726179206f7574206f6620626f756e647320657863657074696f6e000000604482015290519081900360640190fd5b85935083151561067a574293505b61068588888761172f565b60a060405190810160405280898152602001888152602001858152602001868152602001600360008d600160a060020a0316600160a060020a031681526020019081526020016000208b8154811015156106db57fe5b6000918252602080832060046005909302019190910154909252600160a060020a038d16815260039091526040902080548b90811061071657fe5b90600052602060002090600502016000820151816000015560208201518160010155604082015181600201556060820151816003015560808201518160040155905050888a600160a060020a03167f3642f8031cf5c0cb42593d4563d28e196fbdceeb8c0d10574686e8a8c5afa0c28a8a888a6040518085815260200184815260200183815260200182815260200194505050505060405180910390a350505050505050505050565b600060d960020a6420a226a4a702600080600160009054906101000a9004600160a060020a0316600160a060020a0316638da5cb5b6040518163ffffffff1660e060020a028152600401602060405180830381600087803b15801561082357600080fd5b505af1158015610837573d6000803e3d6000fd5b505050506040513d602081101561084d57600080fd5b505160005433600160a060020a0392831681149450911614905081806108705750805b8061090057506001546040805160e060020a638658b8b9028152336004820152306024820152604481018690529051600160a060020a0390921691638658b8b9916064808201926020929091908290030181600087803b1580156108d357600080fd5b505af11580156108e7573d6000803e3d6000fd5b505050506040513d60208110156108fd57600080fd5b50515b1515610944576040805160e560020a62461bcd0281526020600482015260176024820152600080516020612347833981519152604482015290519081900360640190fd5b8c8b14801561095257508c89145b801561095d57508c87145b801561096857508c85145b15156109be576040805160e560020a62461bcd02815260206004820152601b60248201527f496e707574206172726179206c656e677468206d69736d617463680000000000604482015290519081900360640190fd5b600093505b8c841015610a4e57610a438e8e868181106109da57fe5b90506020020135600160a060020a03168d8d8781811015156109f857fe5b905060200201358c8c888181101515610a0d57fe5b905060200201358b8b898181101515610a2257fe5b905060200201358a8a8a8181101515610a3757fe5b9050602002013561144a565b6001909301926109c3565b5050505050505050505050505050565b60d960020a6420a226a4a70281565b600160009054906101000a9004600160a060020a0316600160a060020a0316638da5cb5b6040518163ffffffff1660e060020a028152600401602060405180830381600087803b158015610ac057600080fd5b505af1158015610ad4573d6000803e3d6000fd5b505050506040513d6020811015610aea57600080fd5b5051600160a060020a03163314610b4b576040805160e560020a62461bcd02815260206004820152601360248201527f53656e646572206973206e6f74206f776e657200000000000000000000000000604482015290519081900360640190fd5b610b53611c5e565b565b600160a060020a038216600090815260036020526040812054819081908190819081908710610bce576040805160e560020a62461bcd02815260206004820152601d60248201527f4172726179206f7574206f6620626f756e647320657863657074696f6e000000604482015290519081900360640190fd5b600160a060020a0388166000908152600360205260409020805488908110610bf257fe5b600091825260209091206005909102018054600182015460028301546003840154600490940154929c919b50995091975095509350505050565b60025460a060020a900460ff1681565b60007f4645455f41444d494e0000000000000000000000000000000000000000000000600080600160009054906101000a9004600160a060020a0316600160a060020a0316638da5cb5b6040518163ffffffff1660e060020a028152600401602060405180830381600087803b158015610cb557600080fd5b505af1158015610cc9573d6000803e3d6000fd5b505050506040513d6020811015610cdf57600080fd5b505160005433600160a060020a039283168114945091161490508180610d025750805b80610d9257506001546040805160e060020a638658b8b9028152336004820152306024820152604481018690529051600160a060020a0390921691638658b8b9916064808201926020929091908290030181600087803b158015610d6557600080fd5b505af1158015610d79573d6000803e3d6000fd5b505050506040513d6020811015610d8f57600080fd5b50515b1515610dd6576040805160e560020a62461bcd0281526020600482015260176024820152600080516020612347833981519152604482015290519081900360640190fd5b60025460015460008054604080517f8da5cb5b0000000000000000000000000000000000000000000000000000000081529051600160a060020a03958616956323b872dd95811694931692638da5cb5b92600480820193602093909283900390910190829087803b158015610e4a57600080fd5b505af1158015610e5e573d6000803e3d6000fd5b505050506040513d6020811015610e7457600080fd5b50516040805160e060020a63ffffffff8616028152600160a060020a039384166004820152929091166024830152604482018990525160648083019260209291908290030181600087803b158015610ecb57600080fd5b505af1158015610edf573d6000803e3d6000fd5b505050506040513d6020811015610ef557600080fd5b50511515610f4d576040805160e560020a62461bcd02815260206004820152601260248201527f556e61626c6520746f2074616b65206665650000000000000000000000000000604482015290519081900360640190fd5b506001949350505050565b600160a060020a031660009081526003602052604090205490565b600254600160a060020a031681565b600160009054906101000a9004600160a060020a0316600160a060020a0316638da5cb5b6040518163ffffffff1660e060020a028152600401602060405180830381600087803b158015610fd557600080fd5b505af1158015610fe9573d6000803e3d6000fd5b505050506040513d6020811015610fff57600080fd5b5051600160a060020a03163314611060576040805160e560020a62461bcd02815260206004820152601360248201527f53656e646572206973206e6f74206f776e657200000000000000000000000000604482015290519081900360640190fd5b610b53611d14565b6000611072612291565b60d960020a6420a226a4a702600080600160009054906101000a9004600160a060020a0316600160a060020a0316638da5cb5b6040518163ffffffff1660e060020a028152600401602060405180830381600087803b1580156110d457600080fd5b505af11580156110e8573d6000803e3d6000fd5b505050506040513d60208110156110fe57600080fd5b505160005433600160a060020a0392831681149450911614905081806111215750805b806111b157506001546040805160e060020a638658b8b9028152336004820152306024820152604481018690529051600160a060020a0390921691638658b8b9916064808201926020929091908290030181600087803b15801561118457600080fd5b505af1158015611198573d6000803e3d6000fd5b505050506040513d60208110156111ae57600080fd5b50515b15156111f5576040805160e560020a62461bcd0281526020600482015260176024820152600080516020612347833981519152604482015290519081900360640190fd5b600160a060020a038716600090815260036020526040902080549095508610611268576040805160e560020a62461bcd02815260206004820152601d60248201527f4172726179206f7574206f6620626f756e647320657863657074696f6e000000604482015290519081900360640190fd5b848681548110151561127657fe5b60009182526020918290206040805160a081018252600590930290910180548084526001820154848601819052600283015485850181905260038401546060808801829052600490950154608080890191909152865194855297840192909252828501529181019190915290519196508892600160a060020a038b16927f4c7d07f9fe2adbb1058d6231cb1aa2e3ee8d65a0323fa48bbc0c964dbf3aaae49281900390910190a384546000190186101561139c5784548590600019810190811061133c57fe5b9060005260206000209060050201858781548110151561135857fe5b906000526020600020906005020160008201548160000155600182015481600101556002820154816002015560038201548160030155600482015481600401559050505b84546113ac8660001983016122c1565b5050505050505050565b600154600160a060020a031681565b6040805160018082528183019092526060918291906020808301908038833901905050905060d960020a6420a226a4a70281600081518110151561140557fe5b602090810290910101529050805b5090565b600054600160a060020a031681565b7f4645455f41444d494e000000000000000000000000000000000000000000000081565b600060d960020a6420a226a4a702600080600160009054906101000a9004600160a060020a0316600160a060020a0316638da5cb5b6040518163ffffffff1660e060020a028152600401602060405180830381600087803b1580156114ae57600080fd5b505af11580156114c2573d6000803e3d6000fd5b505050506040513d60208110156114d857600080fd5b505160005433600160a060020a0392831681149450911614905081806114fb5750805b8061158b57506001546040805160e060020a638658b8b9028152336004820152306024820152604481018690529051600160a060020a0390921691638658b8b9916064808201926020929091908290030181600087803b15801561155e57600080fd5b505af1158015611572573d6000803e3d6000fd5b505050506040513d602081101561158857600080fd5b50515b15156115cf576040805160e560020a62461bcd0281526020600482015260176024820152600080516020612347833981519152604482015290519081900360640190fd5b8593506115dd88888761172f565b8315156115e8574293505b600160a060020a0389166000818152600360208181526040808420815160a0810183528e81528084018e81528184018c815260608084018f815260808086018b8152875460018181018a55898e528b8e20985160059092029098019081559551968601969096559251600285015551838901559251600490920191909155958790529383525481518e81529283018d90528282018a90529282018a9052516000199290920193927f20247340c1f601d40d09e7f5c4edbd024e069cdc0c35584bf7a804009221ce6192918290030190a3505050505050505050565b60025460009060a060020a900460ff161580156116e85750600160a060020a03861615155b801561170b5750600160a060020a03861660009081526003602052604090205415155b156117225761171b868584611dcf565b9050611726565b5060015b95945050505050565b6000808415156117af576040805160e560020a62461bcd02815260206004820152602260248201527f6c6f636b5570506572696f645365636f6e64732063616e6e6f74206265207a6560448201527f726f000000000000000000000000000000000000000000000000000000000000606482015290519081900360840190fd5b83151561182c576040805160e560020a62461bcd02815260206004820152602660248201527f72656c656173654672657175656e63795365636f6e64732063616e6e6f74206260448201527f65207a65726f0000000000000000000000000000000000000000000000000000606482015290519081900360840190fd5b821515611883576040805160e560020a62461bcd02815260206004820152601a60248201527f746f74616c416d6f756e742063616e6e6f74206265207a65726f000000000000604482015290519081900360640190fd5b600160009054906101000a9004600160a060020a0316600160a060020a031663556f0dc76040518163ffffffff1660e060020a028152600401602060405180830381600087803b1580156118d657600080fd5b505af11580156118ea573d6000803e3d6000fd5b505050506040513d602081101561190057600080fd5b50518381151561190c57fe5b06156119ae576040805160e560020a62461bcd02815260206004820152604a60248201527f54686520746f74616c20616d6f756e7420746f2062652072656c65617365642060448201527f6973206d6f7265206772616e756c6172207468616e20616c6c6f77656420627960648201527f2074686520746f6b656e00000000000000000000000000000000000000000000608482015290519081900360a40190fd5b83858115156119b957fe5b0615611a5b576040805160e560020a62461bcd02815260206004820152604760248201527f6c6f636b5570506572696f645365636f6e6473206d757374206265206576656e60448201527f6c7920646976697369626c652062792072656c656173654672657175656e637960648201527f5365636f6e647300000000000000000000000000000000000000000000000000608482015290519081900360a40190fd5b611a6b858563ffffffff61214916565b91508183811515611a7857fe5b0615611b1a576040805160e560020a62461bcd02815260206004820152605860248201527f54686520746f74616c20616d6f756e74206265696e67206c6f636b656420757060448201527f206d757374206265206576656e6c7920646976697369626c652062792074686560648201527f206e756d626572206f6620746f74616c20706572696f64730000000000000000608482015290519081900360a40190fd5b611b2a838363ffffffff61214916565b9050600160009054906101000a9004600160a060020a0316600160a060020a031663556f0dc76040518163ffffffff1660e060020a028152600401602060405180830381600087803b158015611b7f57600080fd5b505af1158015611b93573d6000803e3d6000fd5b505050506040513d6020811015611ba957600080fd5b505181811515611bb557fe5b0615611c57576040805160e560020a62461bcd02815260206004820152604f60248201527f54686520616d6f756e7420746f2062652072656c65617365642070657220706560448201527f72696f64206973206d6f7265206772616e756c6172207468616e20616c6c6f7760648201527f65642062792074686520746f6b656e0000000000000000000000000000000000608482015290519081900360a40190fd5b5050505050565b60025460a060020a900460ff161515611cc1576040805160e560020a62461bcd02815260206004820152601660248201527f436f6e7472616374206973206e6f742070617573656400000000000000000000604482015290519081900360640190fd5b6002805474ff0000000000000000000000000000000000000000191690556040805142815290517faaa520fdd7d2c83061d632fa017b0432407e798818af63ea908589fceda39ab79181900360200190a1565b60025460a060020a900460ff1615611d76576040805160e560020a62461bcd02815260206004820152601260248201527f436f6e7472616374206973207061757365640000000000000000000000000000604482015290519081900360640190fd5b6002805474ff0000000000000000000000000000000000000000191660a060020a1790556040805142815290517f68b095021b1f40fe513109f513c66692f0b3219aee674a69f4efc57badb8201d9181900360200190a1565b6000806060611ddc6122f2565b600080600080600080600360008e600160a060020a0316600160a060020a0316815260200190815260200160002098508880549050604051908082528060200260200182016040528015611e3a578160200160208202803883390190505b509750606060405190810160405280600081526020016000815260200160008152509650600095505b8854861015611fca578886815481101515611e7a57fe5b60009182526020822060059091020180546002820154919750919550611ea59163ffffffff61216016565b4210611ecb5760048501546003860154611ec49163ffffffff61216d16565b9350611f5e565b60028501544210611f5e57611f018560010154611ef587600201544261216d90919063ffffffff16565b9063ffffffff61214916565b60018601548654919450611f1b919063ffffffff61214916565b6003860154909250611f33908363ffffffff61214916565b6004860154909150611f5b90611f4f838663ffffffff61217f16565b9063ffffffff61216d16565b93505b611f77848860005b60200201519063ffffffff61216016565b87526003850154611f8a90886001611f66565b60208801526004850154611fa090886002611f66565b604088015287518490899088908110611fb557fe5b60209081029091010152600190950194611e63565b86518c1161211c578a1515611fe25760029950612139565b600154600160a060020a03163314612044576040805160e560020a62461bcd02815260206004820152601b60248201527f53656e646572206973206e6f74207365637572697479546f6b656e0000000000604482015290519081900360640190fd5b600095505b885486101561211357888681548110151561206057fe5b600091825260208220600590910201955087906020020151888781518110151561208657fe5b60209081029091010151106120af57865160048601546120a591612160565b6004860155612113565b6120db88878151811015156120c057fe5b6020908102909101015160048701549063ffffffff61216016565b60048601558751612105908990889081106120f257fe5b602090810291909101015188519061216d565b875260019590950194612049565b60029950612139565b6121368d8d89600160200201518a600260200201516121a8565b99505b5050505050505050509392505050565b6000818381151561215657fe5b0490505b92915050565b8181018281101561215a57fe5b60008282111561217957fe5b50900390565b60008215156121905750600061215a565b508181028183828115156121a057fe5b041461215a57fe5b600154604080517f70a08231000000000000000000000000000000000000000000000000000000008152600160a060020a0387811660048301529151600093849384939116916370a082319160248082019260209290919082900301818787803b15801561221557600080fd5b505af1158015612229573d6000803e3d6000fd5b505050506040513d602081101561223f57600080fd5b50519150612253858563ffffffff61216d16565b90508082101580156122745750612270828263ffffffff61216d16565b8611155b156122825760029250612287565b600092505b5050949350505050565b60a06040519081016040528060008152602001600081526020016000815260200160008152602001600081525090565b8154818355818111156122ed576005028160050283600052602060002091820191016122ed9190612311565b505050565b6060604051908101604052806003906020820280388339509192915050565b61047591905b80821115611413576000808255600182018190556002820181905560038201819055600482015560050161231756005065726d697373696f6e20636865636b206661696c6564000000000000000000a165627a7a72305820471b555a68c0a155b3d421e7260d1dc8bac43088a22f11e24f10df3d9db60ff40029",
  "source": "pragma solidity ^0.4.24;\n\nimport \"./../../TransferManager/ITransferManager.sol\";\nimport \"openzeppelin-solidity/contracts/math/SafeMath.sol\";\n\n\ncontract LockupVolumeRestrictionTM is ITransferManager {\n\n    using SafeMath for uint256;\n\n    // permission definition\n    bytes32 public constant ADMIN = \"ADMIN\";\n\n    // a per-user lockup\n    struct LockUp {\n        uint lockUpPeriodSeconds; // total period of lockup (seconds)\n        uint releaseFrequencySeconds; // how often to release a tranche of tokens (seconds)\n        uint startTime; // when this lockup starts (seconds)\n        uint totalAmount; // total amount of locked up tokens\n        uint alreadyWithdrawn; // amount already withdrawn for this lockup\n    }\n\n    // maps user addresses to an array of lockups for that user\n    mapping (address => LockUp[]) internal lockUps;\n\n    event AddNewLockUp(\n        address indexed userAddress,\n        uint lockUpPeriodSeconds,\n        uint releaseFrequencySeconds,\n        uint startTime,\n        uint totalAmount,\n        uint indexed addedIndex\n    );\n\n    event RemoveLockUp(\n        address indexed userAddress,\n        uint lockUpPeriodSeconds,\n        uint releaseFrequencySeconds,\n        uint startTime,\n        uint totalAmount,\n        uint indexed removedIndex\n    );\n\n    event ModifyLockUp(\n        address indexed userAddress,\n        uint lockUpPeriodSeconds,\n        uint releaseFrequencySeconds,\n        uint startTime,\n        uint totalAmount,\n        uint indexed modifiedIndex\n    );\n\n    /**\n     * @notice Constructor\n     * @param _securityToken Address of the security token\n     * @param _polyAddress Address of the polytoken\n     */\n    constructor (address _securityToken, address _polyAddress)\n    public\n    Module(_securityToken, _polyAddress)\n    {\n    }\n\n\n    /** @notice Used to verify the transfer transaction and prevent locked up tokens from being transferred\n     * @param _from Address of the sender\n     * @param _amount The amount of tokens to transfer\n     * @param _isTransfer Whether or not this is an actual transfer or just a test to see if the tokens would be transferrable\n     */\n    function verifyTransfer(address  _from, address /* _to*/, uint256  _amount, bytes /* _data */, bool  _isTransfer) public returns(Result) {\n        // only attempt to verify the transfer if the token is unpaused, this isn't a mint txn, and there exists a lockup for this user\n        if (!paused && _from != address(0) && lockUps[_from].length != 0) {\n            // check if this transfer is valid\n            return _checkIfValidTransfer(_from, _amount, _isTransfer);\n        }\n        return Result.NA;\n    }\n\n    /**\n     * @notice Lets the admin create a volume restriction lockup for a given address.\n     * @param _userAddress Address of the user whose tokens should be locked up\n     * @param _lockUpPeriodSeconds Total period of lockup (seconds)\n     * @param _releaseFrequencySeconds How often to release a tranche of tokens (seconds)\n     * @param _startTime When this lockup starts (seconds)\n     * @param _totalAmount Total amount of locked up tokens\n     */\n    function addLockUp(\n        address _userAddress,\n        uint _lockUpPeriodSeconds,\n        uint _releaseFrequencySeconds,\n        uint _startTime,\n        uint _totalAmount\n        ) public withPerm(ADMIN) {\n        uint256 startTime = _startTime;\n        _checkLockUpParams(_lockUpPeriodSeconds, _releaseFrequencySeconds, _totalAmount);\n\n        // if a startTime of 0 is passed in, then start now.\n        if (startTime == 0) {\n            /*solium-disable-next-line security/no-block-members*/\n            startTime = now;\n        }\n\n        lockUps[_userAddress].push(LockUp(_lockUpPeriodSeconds, _releaseFrequencySeconds, startTime, _totalAmount, 0));\n\n        emit AddNewLockUp(\n            _userAddress,\n            _lockUpPeriodSeconds,\n            _releaseFrequencySeconds,\n            startTime,\n            _totalAmount,\n            lockUps[_userAddress].length - 1\n        );\n    }\n\n    /**\n     * @notice Lets the admin create multiple volume restriction lockups for multiple given addresses.\n     * @param _userAddresses Array of address of the user whose tokens should be locked up\n     * @param _lockUpPeriodsSeconds Array of total periods of lockup (seconds)\n     * @param _releaseFrequenciesSeconds Array of how often to release a tranche of tokens (seconds)\n     * @param _startTimes Array of When this lockup starts (seconds)\n     * @param _totalAmounts Array of total amount of locked up tokens\n     */\n    function addLockUpMulti(\n        address[] _userAddresses,\n        uint[] _lockUpPeriodsSeconds,\n        uint[] _releaseFrequenciesSeconds,\n        uint[] _startTimes,\n        uint[] _totalAmounts\n        ) external withPerm(ADMIN) {\n        require(\n            _userAddresses.length == _lockUpPeriodsSeconds.length && /*solium-disable-line operator-whitespace*/\n            _userAddresses.length == _releaseFrequenciesSeconds.length && /*solium-disable-line operator-whitespace*/\n            _userAddresses.length == _startTimes.length && \n            _userAddresses.length == _totalAmounts.length,\n            \"Input array length mismatch\"\n        );\n\n        for (uint i = 0; i < _userAddresses.length; i++) {\n            addLockUp(_userAddresses[i], _lockUpPeriodsSeconds[i], _releaseFrequenciesSeconds[i], _startTimes[i], _totalAmounts[i]);\n        }\n\n    }\n\n    /**\n     * @notice Lets the admin remove a user's lock up\n     * @param _userAddress Address of the user whose tokens are locked up\n     * @param _lockUpIndex The index of the LockUp to remove for the given userAddress\n     */\n    function removeLockUp(address _userAddress, uint _lockUpIndex) public withPerm(ADMIN) {\n        LockUp[] storage userLockUps = lockUps[_userAddress];\n        require(_lockUpIndex < userLockUps.length, \"Array out of bounds exception\");\n\n        LockUp memory toRemove = userLockUps[_lockUpIndex];\n\n        emit RemoveLockUp(\n            _userAddress,\n            toRemove.lockUpPeriodSeconds,\n            toRemove.releaseFrequencySeconds,\n            toRemove.startTime,\n            toRemove.totalAmount,\n            _lockUpIndex\n        );\n\n        if (_lockUpIndex < userLockUps.length - 1) {\n            // move the last element in the array into the index that is desired to be removed.\n            userLockUps[_lockUpIndex] = userLockUps[userLockUps.length - 1];\n        }\n        // delete the last element\n        userLockUps.length--;\n    }\n\n    /**\n     * @notice Lets the admin modify a volume restriction lockup for a given address.\n     * @param _userAddress Address of the user whose tokens should be locked up\n     * @param _lockUpIndex The index of the LockUp to edit for the given userAddress\n     * @param _lockUpPeriodSeconds Total period of lockup (seconds)\n     * @param _releaseFrequencySeconds How often to release a tranche of tokens (seconds)\n     * @param _startTime When this lockup starts (seconds)\n     * @param _totalAmount Total amount of locked up tokens\n     */\n    function modifyLockUp(\n        address _userAddress,\n        uint _lockUpIndex,\n        uint _lockUpPeriodSeconds,\n        uint _releaseFrequencySeconds,\n        uint _startTime,\n        uint _totalAmount\n        ) public withPerm(ADMIN) {\n        require(_lockUpIndex < lockUps[_userAddress].length, \"Array out of bounds exception\");\n\n        uint256 startTime = _startTime;\n        // if a startTime of 0 is passed in, then start now.\n        if (startTime == 0) {\n            /*solium-disable-next-line security/no-block-members*/\n            startTime = now;\n        }\n\n        _checkLockUpParams(_lockUpPeriodSeconds, _releaseFrequencySeconds, _totalAmount);\n\n        // Get the lockup from the master list and edit it\n        lockUps[_userAddress][_lockUpIndex] = LockUp(\n            _lockUpPeriodSeconds,\n            _releaseFrequencySeconds,\n            startTime,\n            _totalAmount,\n            lockUps[_userAddress][_lockUpIndex].alreadyWithdrawn\n        );\n\n        emit ModifyLockUp(\n            _userAddress,\n            _lockUpPeriodSeconds,\n            _releaseFrequencySeconds,\n            startTime,\n            _totalAmount,\n            _lockUpIndex\n        );\n    }\n\n    /**\n     * @notice Get the length of the lockups array for a specific user address\n     * @param _userAddress Address of the user whose tokens should be locked up\n     */\n    function getLockUpsLength(address _userAddress) public view returns (uint) {\n        return lockUps[_userAddress].length;\n    }\n\n    /**\n     * @notice Get a specific element in a user's lockups array given the user's address and the element index\n     * @param _userAddress Address of the user whose tokens should be locked up\n     * @param _lockUpIndex The index of the LockUp to edit for the given userAddress\n     */\n    function getLockUp(\n        address _userAddress,\n        uint _lockUpIndex)\n        public view returns (\n        uint lockUpPeriodSeconds,\n        uint releaseFrequencySeconds,\n        uint startTime,\n        uint totalAmount,\n        uint alreadyWithdrawn\n        ) {\n        require(_lockUpIndex < lockUps[_userAddress].length, \"Array out of bounds exception\");\n        LockUp storage userLockUp = lockUps[_userAddress][_lockUpIndex];\n        return (\n            userLockUp.lockUpPeriodSeconds,\n            userLockUp.releaseFrequencySeconds,\n            userLockUp.startTime,\n            userLockUp.totalAmount,\n            userLockUp.alreadyWithdrawn\n        );\n    }\n\n    /**\n     * @notice Takes a userAddress as input, and returns a uint that represents the number of tokens allowed to be withdrawn right now\n     * @param userAddress Address of the user whose lock ups should be checked\n     */\n    function _checkIfValidTransfer(address userAddress, uint amount, bool isTransfer) internal returns (Result) {\n        // get lock up array for this user\n        LockUp[] storage userLockUps = lockUps[userAddress];\n\n        // maps the index of userLockUps to the amount allowed in this transfer\n        uint[] memory allowedAmountPerLockup = new uint[](userLockUps.length);\n\n        uint[3] memory tokenSums = [\n            uint256(0), // allowed amount right now\n            uint256(0), // total locked up, ever\n            uint256(0) // already withdrawn, ever\n        ];\n\n        // loop over the user's lock ups\n        for (uint i = 0; i < userLockUps.length; i++) {\n            LockUp storage aLockUp = userLockUps[i];\n\n            uint allowedAmountForThisLockup = 0;\n\n            // check if lockup has entirely passed\n            /*solium-disable-next-line security/no-block-members*/\n            if (now >= aLockUp.startTime.add(aLockUp.lockUpPeriodSeconds)) {\n                // lockup has passed, or not started yet.  allow all.\n                allowedAmountForThisLockup = aLockUp.totalAmount.sub(aLockUp.alreadyWithdrawn);\n                /*solium-disable-next-line security/no-block-members*/\n            } else if (now >= aLockUp.startTime) {\n                // lockup is active. calculate how many to allow to be withdrawn right now\n                // calculate how many periods have elapsed already\n                /*solium-disable-next-line security/no-block-members*/\n                uint elapsedPeriods = (now.sub(aLockUp.startTime)).div(aLockUp.releaseFrequencySeconds);\n                // calculate the total number of periods, overall\n                uint totalPeriods = aLockUp.lockUpPeriodSeconds.div(aLockUp.releaseFrequencySeconds);\n                // calculate how much should be released per period\n                uint amountPerPeriod = aLockUp.totalAmount.div(totalPeriods);\n                // calculate the number of tokens that should be released,\n                // multiplied by the number of periods that have elapsed already\n                // and add it to the total tokenSums[0]\n                allowedAmountForThisLockup = amountPerPeriod.mul(elapsedPeriods).sub(aLockUp.alreadyWithdrawn);\n\n            }\n            // tokenSums[0] is allowed sum\n            tokenSums[0] = tokenSums[0].add(allowedAmountForThisLockup);\n            // tokenSums[1] is total locked up\n            tokenSums[1] = tokenSums[1].add(aLockUp.totalAmount);\n            // tokenSums[2] is total already withdrawn\n            tokenSums[2] = tokenSums[2].add(aLockUp.alreadyWithdrawn);\n\n            allowedAmountPerLockup[i] = allowedAmountForThisLockup;\n        }\n\n        // tokenSums[0] is allowed sum\n        if (amount <= tokenSums[0]) {\n            // transfer is valid and will succeed.\n            if (!isTransfer) {\n                // if this isn't a real transfer, don't subtract the withdrawn amounts from the lockups.  it's a \"read only\" txn\n                return Result.VALID;\n            }\n\n            // we are going to write the withdrawn balances back to the lockups, so make sure that the person calling this function is the securityToken itself, since its public\n            require(msg.sender == securityToken, \"Sender is not securityToken\");\n\n            // subtract amounts so they are now known to be withdrawen\n            for (i = 0; i < userLockUps.length; i++) {\n                aLockUp = userLockUps[i];\n\n                // tokenSums[0] is allowed sum\n                if (allowedAmountPerLockup[i] >= tokenSums[0]) {\n                    aLockUp.alreadyWithdrawn = aLockUp.alreadyWithdrawn.add(tokenSums[0]);\n                    // we withdrew the entire tokenSums[0] from the lockup.  We are done.\n                    break;\n                } else {\n                    // we have to split the tokenSums[0] across mutiple lockUps\n                    aLockUp.alreadyWithdrawn = aLockUp.alreadyWithdrawn.add(allowedAmountPerLockup[i]);\n                    // subtract the amount withdrawn from this lockup\n                    tokenSums[0] = tokenSums[0].sub(allowedAmountPerLockup[i]);\n                }\n\n            }\n            return Result.VALID;\n        }\n\n        return _checkIfUnlockedTokenTransferIsPossible(userAddress, amount, tokenSums[1], tokenSums[2]);\n    }\n\n    function _checkIfUnlockedTokenTransferIsPossible(\n        address userAddress,\n        uint amount,\n        uint totalSum,\n        uint alreadyWithdrawnSum\n        ) internal view returns (Result) {\n        // the amount the user wants to withdraw is greater than their allowed amounts according to the lockups.  however, if the user has like, 10 tokens, but only 4 are locked up, we should let the transfer go through for those 6 that aren't locked up\n        uint currentUserBalance = ISecurityToken(securityToken).balanceOf(userAddress);\n        uint stillLockedAmount = totalSum.sub(alreadyWithdrawnSum);\n        if (currentUserBalance >= stillLockedAmount && amount <= currentUserBalance.sub(stillLockedAmount)) {\n            // the user has more tokens in their balance than are actually locked up.  they should be allowed to withdraw the difference\n            return Result.VALID;\n        }\n        return Result.INVALID;\n    }\n\n\n    /**\n     * @notice Parameter checking function for creating or editing a lockup.  This function will cause an exception if any of the parameters are bad.\n     * @param lockUpPeriodSeconds Total period of lockup (seconds)\n     * @param releaseFrequencySeconds How often to release a tranche of tokens (seconds)\n     * @param totalAmount Total amount of locked up tokens\n     */\n    function _checkLockUpParams(uint lockUpPeriodSeconds, uint releaseFrequencySeconds, uint totalAmount) internal view {\n        require(lockUpPeriodSeconds != 0, \"lockUpPeriodSeconds cannot be zero\");\n        require(releaseFrequencySeconds != 0, \"releaseFrequencySeconds cannot be zero\");\n        require(totalAmount != 0, \"totalAmount cannot be zero\");\n\n        // check that the total amount to be released isn't too granular\n        require(\n            totalAmount % ISecurityToken(securityToken).granularity() == 0,\n            \"The total amount to be released is more granular than allowed by the token\"\n        );\n\n        // check that releaseFrequencySeconds evenly divides lockUpPeriodSeconds\n        require(\n            lockUpPeriodSeconds % releaseFrequencySeconds == 0,\n            \"lockUpPeriodSeconds must be evenly divisible by releaseFrequencySeconds\"\n        );\n\n        // check that totalPeriods evenly divides totalAmount\n        uint totalPeriods = lockUpPeriodSeconds.div(releaseFrequencySeconds);\n        require(\n            totalAmount % totalPeriods == 0,\n            \"The total amount being locked up must be evenly divisible by the number of total periods\"\n        );\n\n        // make sure the amount to be released per period is not too granular for the token\n        uint amountPerPeriod = totalAmount.div(totalPeriods);\n        require(\n            amountPerPeriod % ISecurityToken(securityToken).granularity() == 0,\n            \"The amount to be released per period is more granular than allowed by the token\"\n        );\n    }\n\n    /**\n     * @notice This function returns the signature of configure function\n     */\n    function getInitFunction() public pure returns (bytes4) {\n        return bytes4(0);\n    }\n\n    /**\n     * @notice Returns the permissions flag that are associated with Percentage transfer Manager\n     */\n    function getPermissions() public view returns(bytes32[]) {\n        bytes32[] memory allPermissions = new bytes32[](1);\n        allPermissions[0] = ADMIN;\n        return allPermissions;\n    }\n}\n",
  "sourcePath": "/Users/polymath/polymath-core/contracts/modules/Experimental/TransferManager/LockupVolumeRestrictionTM.sol",
  "compiler": {
    "name": "solc",
    "version": "0.4.24+commit.e67f0147.Emscripten.clang"
  },
  "schemaVersion": "2.0.1",
  "updatedAt": "2018-11-20T13:57:45.427Z"
}