{
  "contractName": "PolyOracle",
  "abi": [
    {
      "constant": true,
      "inputs": [],
      "name": "staleTime",
      "outputs": [
        {
          "name": "",
          "type": "uint256"
        }
      ],
      "payable": false,
      "stateMutability": "view",
      "type": "function"
    },
    {
      "constant": true,
      "inputs": [
        {
          "name": "",
          "type": "bytes32"
        }
      ],
      "name": "ignoreRequestIds",
      "outputs": [
        {
          "name": "",
          "type": "bool"
        }
      ],
      "payable": false,
      "stateMutability": "view",
      "type": "function"
    },
    {
      "constant": true,
      "inputs": [],
      "name": "oracleURL",
      "outputs": [
        {
          "name": "",
          "type": "string"
        }
      ],
      "payable": false,
      "stateMutability": "view",
      "type": "function"
    },
    {
      "constant": true,
      "inputs": [],
      "name": "oraclizeTimeTolerance",
      "outputs": [
        {
          "name": "",
          "type": "uint256"
        }
      ],
      "payable": false,
      "stateMutability": "view",
      "type": "function"
    },
    {
      "constant": true,
      "inputs": [
        {
          "name": "",
          "type": "address"
        }
      ],
      "name": "admin",
      "outputs": [
        {
          "name": "",
          "type": "bool"
        }
      ],
      "payable": false,
      "stateMutability": "view",
      "type": "function"
    },
    {
      "constant": true,
      "inputs": [],
      "name": "oracleQueryType",
      "outputs": [
        {
          "name": "",
          "type": "string"
        }
      ],
      "payable": false,
      "stateMutability": "view",
      "type": "function"
    },
    {
      "constant": false,
      "inputs": [],
      "name": "renounceOwnership",
      "outputs": [],
      "payable": false,
      "stateMutability": "nonpayable",
      "type": "function"
    },
    {
      "constant": true,
      "inputs": [
        {
          "name": "",
          "type": "bytes32"
        }
      ],
      "name": "requestIds",
      "outputs": [
        {
          "name": "",
          "type": "uint256"
        }
      ],
      "payable": false,
      "stateMutability": "view",
      "type": "function"
    },
    {
      "constant": true,
      "inputs": [],
      "name": "owner",
      "outputs": [
        {
          "name": "",
          "type": "address"
        }
      ],
      "payable": false,
      "stateMutability": "view",
      "type": "function"
    },
    {
      "constant": true,
      "inputs": [],
      "name": "sanityBounds",
      "outputs": [
        {
          "name": "",
          "type": "uint256"
        }
      ],
      "payable": false,
      "stateMutability": "view",
      "type": "function"
    },
    {
      "constant": true,
      "inputs": [],
      "name": "freezeOracle",
      "outputs": [
        {
          "name": "",
          "type": "bool"
        }
      ],
      "payable": false,
      "stateMutability": "view",
      "type": "function"
    },
    {
      "constant": true,
      "inputs": [],
      "name": "latestScheduledUpdate",
      "outputs": [
        {
          "name": "",
          "type": "uint256"
        }
      ],
      "payable": false,
      "stateMutability": "view",
      "type": "function"
    },
    {
      "constant": true,
      "inputs": [],
      "name": "latestUpdate",
      "outputs": [
        {
          "name": "",
          "type": "uint256"
        }
      ],
      "payable": false,
      "stateMutability": "view",
      "type": "function"
    },
    {
      "constant": false,
      "inputs": [
        {
          "name": "_newOwner",
          "type": "address"
        }
      ],
      "name": "transferOwnership",
      "outputs": [],
      "payable": false,
      "stateMutability": "nonpayable",
      "type": "function"
    },
    {
      "constant": true,
      "inputs": [],
      "name": "gasLimit",
      "outputs": [
        {
          "name": "",
          "type": "uint256"
        }
      ],
      "payable": false,
      "stateMutability": "view",
      "type": "function"
    },
    {
      "inputs": [],
      "payable": true,
      "stateMutability": "payable",
      "type": "constructor"
    },
    {
      "anonymous": false,
      "inputs": [
        {
          "indexed": false,
          "name": "_price",
          "type": "uint256"
        },
        {
          "indexed": false,
          "name": "_oldPrice",
          "type": "uint256"
        },
        {
          "indexed": false,
          "name": "_queryId",
          "type": "bytes32"
        },
        {
          "indexed": false,
          "name": "_time",
          "type": "uint256"
        }
      ],
      "name": "PriceUpdated",
      "type": "event"
    },
    {
      "anonymous": false,
      "inputs": [
        {
          "indexed": false,
          "name": "_time",
          "type": "uint256"
        },
        {
          "indexed": false,
          "name": "_queryId",
          "type": "bytes32"
        },
        {
          "indexed": false,
          "name": "_query",
          "type": "string"
        }
      ],
      "name": "NewOraclizeQuery",
      "type": "event"
    },
    {
      "anonymous": false,
      "inputs": [
        {
          "indexed": false,
          "name": "_admin",
          "type": "address"
        },
        {
          "indexed": false,
          "name": "_valid",
          "type": "bool"
        },
        {
          "indexed": false,
          "name": "_time",
          "type": "uint256"
        }
      ],
      "name": "AdminSet",
      "type": "event"
    },
    {
      "anonymous": false,
      "inputs": [
        {
          "indexed": false,
          "name": "_queryId",
          "type": "bytes32"
        },
        {
          "indexed": false,
          "name": "_time",
          "type": "uint256"
        },
        {
          "indexed": false,
          "name": "_result",
          "type": "string"
        }
      ],
      "name": "StalePriceUpdate",
      "type": "event"
    },
    {
      "anonymous": false,
      "inputs": [
        {
          "indexed": true,
          "name": "previousOwner",
          "type": "address"
        }
      ],
      "name": "OwnershipRenounced",
      "type": "event"
    },
    {
      "anonymous": false,
      "inputs": [
        {
          "indexed": true,
          "name": "previousOwner",
          "type": "address"
        },
        {
          "indexed": true,
          "name": "newOwner",
          "type": "address"
        }
      ],
      "name": "OwnershipTransferred",
      "type": "event"
    },
    {
      "constant": false,
      "inputs": [
        {
          "name": "myid",
          "type": "bytes32"
        },
        {
          "name": "result",
          "type": "string"
        },
        {
          "name": "proof",
          "type": "bytes"
        }
      ],
      "name": "__callback",
      "outputs": [],
      "payable": false,
      "stateMutability": "nonpayable",
      "type": "function"
    },
    {
      "constant": false,
      "inputs": [
        {
          "name": "_requestId",
          "type": "bytes32"
        },
        {
          "name": "_result",
          "type": "string"
        }
      ],
      "name": "__callback",
      "outputs": [],
      "payable": false,
      "stateMutability": "nonpayable",
      "type": "function"
    },
    {
      "constant": false,
      "inputs": [
        {
          "name": "_times",
          "type": "uint256[]"
        }
      ],
      "name": "schedulePriceUpdatesFixed",
      "outputs": [],
      "payable": true,
      "stateMutability": "payable",
      "type": "function"
    },
    {
      "constant": false,
      "inputs": [
        {
          "name": "_startTime",
          "type": "uint256"
        },
        {
          "name": "_interval",
          "type": "uint256"
        },
        {
          "name": "_iters",
          "type": "uint256"
        }
      ],
      "name": "schedulePriceUpdatesRolling",
      "outputs": [],
      "payable": true,
      "stateMutability": "payable",
      "type": "function"
    },
    {
      "constant": false,
      "inputs": [
        {
          "name": "_price",
          "type": "uint256"
        }
      ],
      "name": "setPOLYUSD",
      "outputs": [],
      "payable": false,
      "stateMutability": "nonpayable",
      "type": "function"
    },
    {
      "constant": false,
      "inputs": [
        {
          "name": "_frozen",
          "type": "bool"
        }
      ],
      "name": "setFreezeOracle",
      "outputs": [],
      "payable": false,
      "stateMutability": "nonpayable",
      "type": "function"
    },
    {
      "constant": false,
      "inputs": [
        {
          "name": "_oracleURL",
          "type": "string"
        }
      ],
      "name": "setOracleURL",
      "outputs": [],
      "payable": false,
      "stateMutability": "nonpayable",
      "type": "function"
    },
    {
      "constant": false,
      "inputs": [
        {
          "name": "_oracleQueryType",
          "type": "string"
        }
      ],
      "name": "setOracleQueryType",
      "outputs": [],
      "payable": false,
      "stateMutability": "nonpayable",
      "type": "function"
    },
    {
      "constant": false,
      "inputs": [
        {
          "name": "_sanityBounds",
          "type": "uint256"
        }
      ],
      "name": "setSanityBounds",
      "outputs": [],
      "payable": false,
      "stateMutability": "nonpayable",
      "type": "function"
    },
    {
      "constant": false,
      "inputs": [
        {
          "name": "_gasPrice",
          "type": "uint256"
        }
      ],
      "name": "setGasPrice",
      "outputs": [],
      "payable": false,
      "stateMutability": "nonpayable",
      "type": "function"
    },
    {
      "constant": true,
      "inputs": [],
      "name": "getPriceAndTime",
      "outputs": [
        {
          "name": "",
          "type": "uint256"
        },
        {
          "name": "",
          "type": "uint256"
        }
      ],
      "payable": false,
      "stateMutability": "view",
      "type": "function"
    },
    {
      "constant": false,
      "inputs": [
        {
          "name": "_gasLimit",
          "type": "uint256"
        }
      ],
      "name": "setGasLimit",
      "outputs": [],
      "payable": false,
      "stateMutability": "nonpayable",
      "type": "function"
    },
    {
      "constant": false,
      "inputs": [
        {
          "name": "_staleTime",
          "type": "uint256"
        }
      ],
      "name": "setStaleTime",
      "outputs": [],
      "payable": false,
      "stateMutability": "nonpayable",
      "type": "function"
    },
    {
      "constant": false,
      "inputs": [
        {
          "name": "_requestIds",
          "type": "bytes32[]"
        },
        {
          "name": "_ignore",
          "type": "bool[]"
        }
      ],
      "name": "setIgnoreRequestIds",
      "outputs": [],
      "payable": false,
      "stateMutability": "nonpayable",
      "type": "function"
    },
    {
      "constant": false,
      "inputs": [
        {
          "name": "_admin",
          "type": "address"
        },
        {
          "name": "_valid",
          "type": "bool"
        }
      ],
      "name": "setAdmin",
      "outputs": [],
      "payable": false,
      "stateMutability": "nonpayable",
      "type": "function"
    },
    {
      "constant": false,
      "inputs": [
        {
          "name": "_oraclizeTimeTolerance",
          "type": "uint256"
        }
      ],
      "name": "setOraclizeTimeTolerance",
      "outputs": [],
      "payable": false,
      "stateMutability": "nonpayable",
      "type": "function"
    },
    {
      "constant": true,
      "inputs": [],
      "name": "getCurrencyAddress",
      "outputs": [
        {
          "name": "",
          "type": "address"
        }
      ],
      "payable": false,
      "stateMutability": "view",
      "type": "function"
    },
    {
      "constant": true,
      "inputs": [],
      "name": "getCurrencySymbol",
      "outputs": [
        {
          "name": "",
          "type": "bytes32"
        }
      ],
      "payable": false,
      "stateMutability": "view",
      "type": "function"
    },
    {
      "constant": true,
      "inputs": [],
      "name": "getCurrencyDenominated",
      "outputs": [
        {
          "name": "",
          "type": "bytes32"
        }
      ],
      "payable": false,
      "stateMutability": "view",
      "type": "function"
    },
    {
      "constant": true,
      "inputs": [],
      "name": "getPrice",
      "outputs": [
        {
          "name": "",
          "type": "uint256"
        }
      ],
      "payable": false,
      "stateMutability": "view",
      "type": "function"
    },
    {
      "constant": false,
      "inputs": [],
      "name": "drainContract",
      "outputs": [],
      "payable": false,
      "stateMutability": "nonpayable",
      "type": "function"
    }
  ],
  "bytecode": "0x6101e060405261013760808181529062003aab60a03980516200002b91600691602090910190620006e8565b506040805180820190915260068082527f6e6573746564000000000000000000000000000000000000000000000000000060209092019182526200007291600791620006e8565b506702c68af0bb140000600855620186a060095561012c600a55615460600b5560058054600160a060020a03191633179055620000bd640ba43b7400640100000000620000c3810204565b6200078a565b600054600160a060020a03161580620000f95750600054620000f790600160a060020a031664010000000062000303810204565b155b15620001165762000114600064010000000062000307810204565b505b6000809054906101000a9004600160a060020a0316600160a060020a03166338cc48316040518163ffffffff167c0100000000000000000000000000000000000000000000000000000000028152600401602060405180830381600087803b1580156200018257600080fd5b505af115801562000197573d6000803e3d6000fd5b505050506040513d6020811015620001ae57600080fd5b5051600154600160a060020a0390811691161462000280576000809054906101000a9004600160a060020a0316600160a060020a03166338cc48316040518163ffffffff167c0100000000000000000000000000000000000000000000000000000000028152600401602060405180830381600087803b1580156200023257600080fd5b505af115801562000247573d6000803e3d6000fd5b505050506040513d60208110156200025e57600080fd5b505160018054600160a060020a031916600160a060020a039092169190911790555b600154604080517fca6ad1e4000000000000000000000000000000000000000000000000000000008152600481018490529051600160a060020a039092169163ca6ad1e49160248082019260009290919082900301818387803b158015620002e757600080fd5b505af1158015620002fc573d6000803e3d6000fd5b5050505050565b3b90565b60006200031c64010000000062000322810204565b92915050565b6000806200034d731d3b2638a7cc9f2cb3d298a3da7a90b67e5506ed64010000000062000303810204565b1115620003cb5760008054600160a060020a031916731d3b2638a7cc9f2cb3d298a3da7a90b67e5506ed17905560408051808201909152600b81527f6574685f6d61696e6e65740000000000000000000000000000000000000000006020820152620003c290640100000000620006cf810204565b506001620006cc565b6000620003f573c03a2615d5efaf5f49f60b7bb6583eaec212fdf164010000000062000303810204565b11156200046a5760008054600160a060020a03191673c03a2615d5efaf5f49f60b7bb6583eaec212fdf117905560408051808201909152600c81527f6574685f726f707374656e3300000000000000000000000000000000000000006020820152620003c290640100000000620006cf810204565b60006200049473b7a07bcf2ba2f2703b24c0691b5278999c59ac7e64010000000062000303810204565b1115620005095760008054600160a060020a03191673b7a07bcf2ba2f2703b24c0691b5278999c59ac7e17905560408051808201909152600981527f6574685f6b6f76616e00000000000000000000000000000000000000000000006020820152620003c290640100000000620006cf810204565b60006200053373146500cfd35b22e4a392fe0adc06de1a1368ed4864010000000062000303810204565b1115620005a85760008054600160a060020a03191673146500cfd35b22e4a392fe0adc06de1a1368ed4817905560408051808201909152600b81527f6574685f72696e6b6562790000000000000000000000000000000000000000006020820152620003c290640100000000620006cf810204565b6000620005d2736f485c8bf6fc43ea212e93bbf8ce046c7f1cb47564010000000062000303810204565b111562000608575060008054600160a060020a031916736f485c8bf6fc43ea212e93bbf8ce046c7f1cb4751790556001620006cc565b6000620006327320e12a1f859b3feae5fb2a0a32c18f5a65555bbf64010000000062000303810204565b111562000668575060008054600160a060020a0319167320e12a1f859b3feae5fb2a0a32c18f5a65555bbf1790556001620006cc565b6000620006927351efaf4c8b3c9afbd5ab9f4bbc82784ab6ef8faa64010000000062000303810204565b1115620006c8575060008054600160a060020a0319167351efaf4c8b3c9afbd5ab9f4bbc82784ab6ef8faa1790556001620006cc565b5060005b90565b8051620006e4906002906020840190620006e8565b5050565b828054600181600116156101000203166002900490600052602060002090601f016020900481019282601f106200072b57805160ff19168380011785556200075b565b828001600101855582156200075b579182015b828111156200075b5782518255916020019190600101906200073e565b50620007699291506200076d565b5090565b620006cc91905b8082111562000769576000815560010162000774565b613311806200079a6000396000f3006080604052600436106101a85763ffffffff60e060020a6000350416630f71590c81146101ad57806327dc297e146101c757806338b880521461022557806338bbfa501461024c5780633b30ef1c146102e85780634b0bddd2146103145780634b6ea6771461033a5780635525d87f146103c4578063554600fa1461041d5780635cf6208a146104355780635dfc09a41461044a57806363a846f81461045f57806370f4c18c14610480578063715018a6146104955780637d14c8df146104aa5780638645f7a8146104c25780638a62e9e9146104da5780638da5cb5b1461056857806396bc5ab71461059957806398d5fdca146105f25780639b4bb9f014610607578063a489a2c71461064f578063af91e0bf14610664578063b0cccbc314610679578063bf1fe42014610693578063bfe0c27e146106ab578063c21afe12146106c0578063c4342252146106d1578063d0360e59146106e6578063d2654219146106fb578063e139e56914610710578063e360a49e1461073e578063ee7d72b414610753578063f2fde38b1461076b578063f68016b71461078c578063fed82ef3146107a1575b600080fd5b3480156101b957600080fd5b506101c56004356107b9565b005b3480156101d357600080fd5b5060408051602060046024803582810135601f81018590048502860185019096528585526101c59583359536956044949193909101919081908401838280828437509497506108229650505050505050565b34801561023157600080fd5b5061023a610ca4565b60408051918252519081900360200190f35b34801561025857600080fd5b5060408051602060046024803582810135601f81018590048502860185019096528585526101c595833595369560449491939091019190819084018382808284375050604080516020601f89358b018035918201839004830284018301909452808352979a999881019791965091820194509250829150840183828082843750949750610caa9650505050505050565b3480156102f457600080fd5b50610300600435610caf565b604080519115158252519081900360200190f35b34801561032057600080fd5b506101c5600160a060020a03600435166024351515610cc4565b34801561034657600080fd5b5061034f610d44565b6040805160208082528351818301528351919283929083019185019080838360005b83811015610389578181015183820152602001610371565b50505050905090810190601f1680156103b65780820380516001836020036101000a031916815260200191505b509250505060405180910390f35b3480156103d057600080fd5b506040805160206004803580820135601f81018490048402850184019095528484526101c5943694929360249392840191908190840183828082843750949750610dd29650505050505050565b34801561042957600080fd5b506101c5600435610e00565b34801561044157600080fd5b5061023a610e1c565b34801561045657600080fd5b5061023a610e22565b34801561046b57600080fd5b50610300600160a060020a0360043516610e47565b34801561048c57600080fd5b5061034f610e5c565b3480156104a157600080fd5b506101c5610eb7565b3480156104b657600080fd5b506101c5600435610f18565b3480156104ce57600080fd5b5061023a600435610f34565b3480156104e657600080fd5b50604080516020600480358082013583810280860185019096528085526101c595369593946024949385019291829185019084908082843750506040805187358901803560208181028481018201909552818452989b9a998901989297509082019550935083925085019084908082843750949750610f469650505050505050565b34801561057457600080fd5b5061057d611021565b60408051600160a060020a039092168252519081900360200190f35b3480156105a557600080fd5b506040805160206004803580820135601f81018490048402850184019095528484526101c59436949293602493928401919081908401838280828437509497506110309650505050505050565b3480156105fe57600080fd5b5061023a61105a565b604080516020600480358082013583810280860185019096528085526101c5953695939460249493850192918291850190849080828437509497506110c39650505050505050565b34801561065b57600080fd5b5061023a61183e565b34801561067057600080fd5b50610300611844565b34801561068557600080fd5b506101c5600435151561184d565b34801561069f57600080fd5b506101c5600435611877565b3480156106b757600080fd5b5061057d61189a565b6101c56004356024356044356118b2565b3480156106dd57600080fd5b5061023a611cee565b3480156106f257600080fd5b506101c5611cf4565b34801561070757600080fd5b5061023a611d38565b34801561071c57600080fd5b50610725611d5c565b6040805192835260208301919091528051918290030190f35b34801561074a57600080fd5b5061023a611d66565b34801561075f57600080fd5b506101c5600435611d6c565b34801561077757600080fd5b506101c5600160a060020a0360043516611def565b34801561079857600080fd5b5061023a611e0f565b3480156107ad57600080fd5b506101c5600435611e15565b600554600160a060020a031633146107d057600080fd5b600c54604080518381526020810192909252600082820152426060830152517fe52718da4f73e5fde35b624cb3d709cfe788067792a6674b1d29fa27a9048e659181900360800190a1600c5542600d55565b60008061082d611e31565b600160a060020a031633146108b1576040805160e560020a62461bcd028152602060048201526024808201527f4f6e6c79204f7261636c697a652063616e206163636573732074686973206d6560448201527f74686f6400000000000000000000000000000000000000000000000000000000606482015290519081900360840190fd5b60125460ff161561090c576040805160e560020a62461bcd02815260206004820152601060248201527f4f7261636c652069732066726f7a656e00000000000000000000000000000000604482015290519081900360640190fd5b60008481526010602052604090205460ff1615610973576040805160e560020a62461bcd02815260206004820152601260248201527f49676e6f72696e67207265717565737449640000000000000000000000000000604482015290519081900360640190fd5b600d546000858152600f60205260409020541015610a4e576000848152600f60209081526040808320548151888152808401829052606092810183815288519382019390935287517f4820bed4e4d2b00f579575dc54a8494614ba28b3c4509d60d9da296fc700eb6e958a9593948a9490926080850192918601918190849084905b83811015610a0d5781810151838201526020016109f5565b50505050905090810190601f168015610a3a5780820380516001836020036101000a031916815260200191505b5094505050505060405180910390a1610c9e565b600d546000858152600f60205260409020541015610ab6576040805160e560020a62461bcd02815260206004820152600f60248201527f526573756c74206973207374616c650000000000000000000000000000000000604482015290519081900360640190fd5b600a546000858152600f6020526040902054429091011015610b22576040805160e560020a62461bcd02815260206004820152600f60248201527f526573756c74206973206561726c790000000000000000000000000000000000604482015290519081900360640190fd5b610b2d836012612022565b9150610b5e670de0b6b3a7640000610b52600854600c546121dc90919063ffffffff16565b9063ffffffff61220b16565b600d5490915015610c3d57600c54610b7c908263ffffffff61222016565b821115610bd3576040805160e560020a62461bcd02815260206004820152601360248201527f526573756c7420697320746f6f206c6172676500000000000000000000000000604482015290519081900360640190fd5b600c54610be6908263ffffffff61222d16565b821015610c3d576040805160e560020a62461bcd02815260206004820152601360248201527f526573756c7420697320746f6f20736d616c6c00000000000000000000000000604482015290519081900360640190fd5b6000848152600f602090815260409182902054600d819055600c54835186815292830152818301879052606082015290517fe52718da4f73e5fde35b624cb3d709cfe788067792a6674b1d29fa27a9048e659181900360800190a1600c8290555b50505050565b600b5481565b505050565b60106020526000908152604090205460ff1681565b600554600160a060020a03163314610cdb57600080fd5b600160a060020a038216600081815260116020908152604091829020805485151560ff1990911681179091558251938452908301524282820152517f5e0ea0652cc1c6777c3bd76289cf8a44cec97817eedea37fddc4d00603e9d1249181900360600190a15050565b6006805460408051602060026001851615610100026000190190941693909304601f81018490048402820184019092528181529291830182828015610dca5780601f10610d9f57610100808354040283529160200191610dca565b820191906000526020600020905b815481529060010190602001808311610dad57829003601f168201915b505050505081565b600554600160a060020a03163314610de957600080fd5b8051610dfc90600790602084019061324d565b5050565b600554600160a060020a03163314610e1757600080fd5b600a55565b600a5481565b7f504f4c59000000000000000000000000000000000000000000000000000000005b90565b60116020526000908152604090205460ff1681565b6007805460408051602060026001851615610100026000190190941693909304601f81018490048402820184019092528181529291830182828015610dca5780601f10610d9f57610100808354040283529160200191610dca565b600554600160a060020a03163314610ece57600080fd5b600554604051600160a060020a03909116907ff8df31144d9c2f0f6b59d69b8b98abd5459d07f2742c4df920b25aae33c6482090600090a260058054600160a060020a0319169055565b600554600160a060020a03163314610f2f57600080fd5b600b55565b600f6020526000908152604090205481565b600554600090600160a060020a03163314610f6057600080fd5b8151835114610fb9576040805160e560020a62461bcd02815260206004820152601b60248201527f496e636f727265637420706172616d65746572206c656e677468730000000000604482015290519081900360640190fd5b5060005b8251811015610caa578181815181101515610fd457fe5b90602001906020020151601060008584815181101515610ff057fe5b6020908102919091018101518252810191909152604001600020805460ff1916911515919091179055600101610fbd565b600554600160a060020a031681565b600554600160a060020a0316331461104757600080fd5b8051610dfc90600690602084019061324d565b6000600b544203600d54101515156110bc576040805160e560020a62461bcd02815260206004820152600d60248201527f496e76616c696420707269636500000000000000000000000000000000000000604482015290519081900360640190fd5b50600c5490565b336000908152601160205260408120548190819060ff16806110ef5750600554600160a060020a031633145b1515611145576040805160e560020a62461bcd02815260206004820152601d60248201527f41646472657373206973206e6f742061646d696e206f72206f776e6572000000604482015290519081900360640190fd5b83511515611445576007805460408051602060026001851615610100026000190190941693909304601f81018490048402820184019092528181523031936111e993919290918301828280156111dc5780601f106111b1576101008083540402835291602001916111dc565b820191906000526020600020905b8154815290600101906020018083116111bf57829003601f168201915b505050505060095461223f565b111561123f576040805160e560020a62461bcd02815260206004820152601260248201527f496e73756666696369656e742046756e64730000000000000000000000000000604482015290519081900360640190fd5b60078054604080516020601f6002600019610100600188161502019095169490940493840181900481028201810190925282815261136793909290918301828280156112cc5780601f106112a1576101008083540402835291602001916112cc565b820191906000526020600020905b8154815290600101906020018083116112af57829003601f168201915b505060068054604080516020601f600260001961010060018816150201909516949094049384018190048102820181019092528281529550919350915083018282801561135a5780601f1061132f5761010080835404028352916020019161135a565b820191906000526020600020905b81548152906001019060200180831161133d57829003601f168201915b50505050506009546124ac565b6000818152600f602090815260409182902042908190558251818152918201849052606092820183815260068054600261010060018316150260001901909116049484018590529497509095507ee3eb546a464d4cd17c94e178affa19e7c26b6881450afc71626dbe9fb5c63593869388939192906080830190849080156114305780601f1061140557610100808354040283529160200191611430565b820191906000526020600020905b81548152906001019060200180831161141357829003601f168201915b505094505050505060405180910390a161182c565b83516007805460408051602060026001851615610100026000190190941693909304601f8101849004840282018401909252818152303194936114ac93919290918301828280156111dc5780601f106111b1576101008083540402835291602001916111dc565b021115611503576040805160e560020a62461bcd02815260206004820152601260248201527f496e73756666696369656e742046756e64730000000000000000000000000000604482015290519081900360640190fd5b5060005b835181101561182c5742848281518110151561151f57fe5b6020908102909101015110156115cb576040805160e560020a62461bcd02815260206004820152604e60248201527f50617374207363686564756c696e67206973206e6f7420616c6c6f776564206160448201527f6e64207363686564756c65642074696d652073686f756c64206265206162736f60648201527f6c7574652074696d657374616d70000000000000000000000000000000000000608482015290519081900360a40190fd5b61170784828151811015156115dc57fe5b60209081029091018101516007805460408051601f60026000196101006001871615020190941693909304928301869004860281018601909152818152929383018282801561166c5780601f106116415761010080835404028352916020019161166c565b820191906000526020600020905b81548152906001019060200180831161164f57829003601f168201915b505060068054604080516020601f60026000196101006001881615020190951694909404938401819004810282018101909252828152955091935091508301828280156116fa5780601f106116cf576101008083540402835291602001916116fa565b820191906000526020600020905b8154815290600101906020018083116116dd57829003601f168201915b50505050506009546128ad565b9250838181518110151561171757fe5b60209081029091018101516000858152600f909252604090912081905582101561174d576000838152600f602052604090205491505b7ee3eb546a464d4cd17c94e178affa19e7c26b6881450afc71626dbe9fb5c635848281518110151561177b57fe5b6020908102909101810151604080518281529283018790526060908301818152600680546002610100600183161502600019019091160492850183905292938893929091906080830190849080156118145780601f106117e957610100808354040283529160200191611814565b820191906000526020600020905b8154815290600101906020018083116117f757829003601f168201915b505094505050505060405180910390a1600101611507565b81600e541015610c9e5750600e555050565b60085481565b60125460ff1681565b600554600160a060020a0316331461186457600080fd5b6012805460ff1916911515919091179055565b600554600160a060020a0316331461188e57600080fd5b61189781612caf565b50565b739992ec3cf6a55b00978cddf2b27bc6882d88d1ec90565b336000908152601160205260408120548190819060ff16806118de5750600554600160a060020a031633145b1515611934576040805160e560020a62461bcd02815260206004820152601d60248201527f41646472657373206973206e6f742061646d696e206f72206f776e6572000000604482015290519081900360640190fd5b600085116119b2576040805160e560020a62461bcd02815260206004820152603b60248201527f496e74657276616c206265747765656e207363686564756c65642074696d652060448201527f73686f756c642062652067726561746572207468616e207a65726f0000000000606482015290519081900360840190fd5b60008411611a0a576040805160e560020a62461bcd02815260206004820152601760248201527f4e6f20697465726174696f6e7320737065636966696564000000000000000000604482015290519081900360640190fd5b42861015611aae576040805160e560020a62461bcd02815260206004820152604e60248201527f50617374207363686564756c696e67206973206e6f7420616c6c6f776564206160448201527f6e64207363686564756c65642074696d652073686f756c64206265206162736f60648201527f6c7574652074696d657374616d70000000000000000000000000000000000000608482015290519081900360a40190fd5b60078054604080516020601f600260001961010060018816150201909516949094049384018190048102820181019092528281523031938893611b11938301828280156111dc5780601f106111b1576101008083540402835291602001916111dc565b021115611b68576040805160e560020a62461bcd02815260206004820152601260248201527f496e73756666696369656e742046756e64730000000000000000000000000000604482015290519081900360640190fd5b600091505b83821015611cbb575060078054604080516020601f60026000196101006001881615020190951694909404938401819004810282018101909252828152848802890193611bdc93859383018282801561166c5780601f106116415761010080835404028352916020019161166c565b6000818152600f60209081526040918290208490558151848152908101839052606091810182815260068054600261010060018316150260001901909116049383018490529396507ee3eb546a464d4cd17c94e178affa19e7c26b6881450afc71626dbe9fb5c6359385938893919290608083019084908015611ca05780601f10611c7557610100808354040283529160200191611ca0565b820191906000526020600020905b815481529060010190602001808311611c8357829003601f168201915b505094505050505060405180910390a1600190910190611b6d565b6000838152600f6020526040902054600e541015611ce6576000838152600f6020526040902054600e555b505050505050565b600e5481565b600554600160a060020a03163314611d0b57600080fd5b6040513390303180156108fc02916000818181858888f19350505050158015611897573d6000803e3d6000fd5b7f555344000000000000000000000000000000000000000000000000000000000090565b600c54600d549091565b600d5481565b3360009081526011602052604090205460ff1680611d945750600554600160a060020a031633145b1515611dea576040805160e560020a62461bcd02815260206004820152601d60248201527f41646472657373206973206e6f742061646d696e206f72206f776e6572000000604482015290519081900360640190fd5b600955565b600554600160a060020a03163314611e0657600080fd5b61189781612e9c565b60095481565b600554600160a060020a03163314611e2c57600080fd5b600855565b60008054600160a060020a03161580611e5c5750600054611e5a90600160a060020a0316612f0d565b155b15611e6d57611e6b6000612f11565b505b6000809054906101000a9004600160a060020a0316600160a060020a03166338cc48316040518163ffffffff1660e060020a028152600401602060405180830381600087803b158015611ebf57600080fd5b505af1158015611ed3573d6000803e3d6000fd5b505050506040513d6020811015611ee957600080fd5b5051600154600160a060020a03908116911614611f9e576000809054906101000a9004600160a060020a0316600160a060020a03166338cc48316040518163ffffffff1660e060020a028152600401602060405180830381600087803b158015611f5257600080fd5b505af1158015611f66573d6000803e3d6000fd5b505050506040513d6020811015611f7c57600080fd5b505160018054600160a060020a031916600160a060020a039092169190911790555b600160009054906101000a9004600160a060020a0316600160a060020a031663c281d19e6040518163ffffffff1660e060020a028152600401602060405180830381600087803b158015611ff157600080fd5b505af1158015612005573d6000803e3d6000fd5b505050506040513d602081101561201b57600080fd5b5051905090565b6000828180805b83518110156121bf5783517f30000000000000000000000000000000000000000000000000000000000000009085908390811061206257fe5b90602001015160f860020a900460f860020a027effffffffffffffffffffffffffffffffffffffffffffffffffffffffffffff191610158015612108575083517f3900000000000000000000000000000000000000000000000000000000000000908590839081106120d057fe5b90602001015160f860020a900460f860020a027effffffffffffffffffffffffffffffffffffffffffffffffffffffffffffff191611155b156121615781156121275785151561211f576121bf565b600019909501945b600a830292506030848281518110151561213d57fe5b90602001015160f860020a900460f860020a0260f860020a900403830192506121b7565b838181518110151561216f57fe5b90602001015160f860020a900460f860020a027effffffffffffffffffffffffffffffffffffffffffffffffffffffffffffff1916602e60f860020a0214156121b757600191505b600101612029565b60008611156121d15785600a0a830292505b509095945050505050565b60008215156121ed57506000612205565b508181028183828115156121fd57fe5b041461220557fe5b92915050565b6000818381151561221857fe5b049392505050565b8181018281101561220557fe5b60008282111561223957fe5b50900390565b60008054600160a060020a0316158061226a575060005461226890600160a060020a0316612f0d565b155b1561227b576122796000612f11565b505b6000809054906101000a9004600160a060020a0316600160a060020a03166338cc48316040518163ffffffff1660e060020a028152600401602060405180830381600087803b1580156122cd57600080fd5b505af11580156122e1573d6000803e3d6000fd5b505050506040513d60208110156122f757600080fd5b5051600154600160a060020a039081169116146123ac576000809054906101000a9004600160a060020a0316600160a060020a03166338cc48316040518163ffffffff1660e060020a028152600401602060405180830381600087803b15801561236057600080fd5b505af1158015612374573d6000803e3d6000fd5b505050506040513d602081101561238a57600080fd5b505160018054600160a060020a031916600160a060020a039092169190911790555b600154604080517f2ef3accc0000000000000000000000000000000000000000000000000000000081526024810185905260048101918252855160448201528551600160a060020a0390931692632ef3accc9287928792829160640190602086019080838360005b8381101561242c578181015183820152602001612414565b50505050905090810190601f1680156124595780820380516001836020036101000a031916815260200191505b509350505050602060405180830381600087803b15801561247957600080fd5b505af115801561248d573d6000803e3d6000fd5b505050506040513d60208110156124a357600080fd5b50519392505050565b600080548190600160a060020a031615806124d957506000546124d790600160a060020a0316612f0d565b155b156124ea576124e86000612f11565b505b6000809054906101000a9004600160a060020a0316600160a060020a03166338cc48316040518163ffffffff1660e060020a028152600401602060405180830381600087803b15801561253c57600080fd5b505af1158015612550573d6000803e3d6000fd5b505050506040513d602081101561256657600080fd5b5051600154600160a060020a0390811691161461261b576000809054906101000a9004600160a060020a0316600160a060020a03166338cc48316040518163ffffffff1660e060020a028152600401602060405180830381600087803b1580156125cf57600080fd5b505af11580156125e3573d6000803e3d6000fd5b505050506040513d60208110156125f957600080fd5b505160018054600160a060020a031916600160a060020a039092169190911790555b600154604080517f2ef3accc0000000000000000000000000000000000000000000000000000000081526024810186905260048101918252875160448201528751600160a060020a0390931692632ef3accc9289928892829160640190602086019080838360005b8381101561269b578181015183820152602001612683565b50505050905090810190601f1680156126c85780820380516001836020036101000a031916815260200191505b509350505050602060405180830381600087803b1580156126e857600080fd5b505af11580156126fc573d6000803e3d6000fd5b505050506040513d602081101561271257600080fd5b50519050670de0b6b3a76400003a84020181111561273357600091506128a5565b6001546040517fc51be90f00000000000000000000000000000000000000000000000000000000815260006004820181815260648301879052608060248401908152895160848501528951600160a060020a039095169463c51be90f948794938c938c938c93604481019160a49091019060208801908083838c5b838110156127c65781810151838201526020016127ae565b50505050905090810190601f1680156127f35780820380516001836020036101000a031916815260200191505b50838103825285518152855160209182019187019080838360005b8381101561282657818101518382015260200161280e565b50505050905090810190601f1680156128535780820380516001836020036101000a031916815260200191505b5096505050505050506020604051808303818588803b15801561287557600080fd5b505af1158015612889573d6000803e3d6000fd5b50505050506040513d60208110156128a057600080fd5b505191505b509392505050565b600080548190600160a060020a031615806128da57506000546128d890600160a060020a0316612f0d565b155b156128eb576128e96000612f11565b505b6000809054906101000a9004600160a060020a0316600160a060020a03166338cc48316040518163ffffffff1660e060020a028152600401602060405180830381600087803b15801561293d57600080fd5b505af1158015612951573d6000803e3d6000fd5b505050506040513d602081101561296757600080fd5b5051600154600160a060020a03908116911614612a1c576000809054906101000a9004600160a060020a0316600160a060020a03166338cc48316040518163ffffffff1660e060020a028152600401602060405180830381600087803b1580156129d057600080fd5b505af11580156129e4573d6000803e3d6000fd5b505050506040513d60208110156129fa57600080fd5b505160018054600160a060020a031916600160a060020a039092169190911790555b600154604080517f2ef3accc0000000000000000000000000000000000000000000000000000000081526024810186905260048101918252875160448201528751600160a060020a0390931692632ef3accc9289928892829160640190602086019080838360005b83811015612a9c578181015183820152602001612a84565b50505050905090810190601f168015612ac95780820380516001836020036101000a031916815260200191505b509350505050602060405180830381600087803b158015612ae957600080fd5b505af1158015612afd573d6000803e3d6000fd5b505050506040513d6020811015612b1357600080fd5b50519050670de0b6b3a76400003a840201811115612b345760009150612ca6565b6001546040517fc51be90f0000000000000000000000000000000000000000000000000000000081526004810188815260648201869052608060248301908152885160848401528851600160a060020a039094169363c51be90f9386938c938c938c938c939291604482019160a40190602088019080838360005b83811015612bc7578181015183820152602001612baf565b50505050905090810190601f168015612bf45780820380516001836020036101000a031916815260200191505b50838103825285518152855160209182019187019080838360005b83811015612c27578181015183820152602001612c0f565b50505050905090810190601f168015612c545780820380516001836020036101000a031916815260200191505b5096505050505050506020604051808303818588803b158015612c7657600080fd5b505af1158015612c8a573d6000803e3d6000fd5b50505050506040513d6020811015612ca157600080fd5b505191505b50949350505050565b600054600160a060020a03161580612cd95750600054612cd790600160a060020a0316612f0d565b155b15612cea57612ce86000612f11565b505b6000809054906101000a9004600160a060020a0316600160a060020a03166338cc48316040518163ffffffff1660e060020a028152600401602060405180830381600087803b158015612d3c57600080fd5b505af1158015612d50573d6000803e3d6000fd5b505050506040513d6020811015612d6657600080fd5b5051600154600160a060020a03908116911614612e1b576000809054906101000a9004600160a060020a0316600160a060020a03166338cc48316040518163ffffffff1660e060020a028152600401602060405180830381600087803b158015612dcf57600080fd5b505af1158015612de3573d6000803e3d6000fd5b505050506040513d6020811015612df957600080fd5b505160018054600160a060020a031916600160a060020a039092169190911790555b600154604080517fca6ad1e4000000000000000000000000000000000000000000000000000000008152600481018490529051600160a060020a039092169163ca6ad1e49160248082019260009290919082900301818387803b158015612e8157600080fd5b505af1158015612e95573d6000803e3d6000fd5b5050505050565b600160a060020a0381161515612eb157600080fd5b600554604051600160a060020a038084169216907f8be0079c531659141344cd1fd0a4f28419497f9722a3daafe3b4186f6b6457e090600090a360058054600160a060020a031916600160a060020a0392909216919091179055565b3b90565b6000612205600080612f36731d3b2638a7cc9f2cb3d298a3da7a90b67e5506ed612f0d565b1115612fa75760008054600160a060020a031916731d3b2638a7cc9f2cb3d298a3da7a90b67e5506ed17905560408051808201909152600b81527f6574685f6d61696e6e65740000000000000000000000000000000000000000006020820152612f9f9061323e565b506001610e44565b6000612fc673c03a2615d5efaf5f49f60b7bb6583eaec212fdf1612f0d565b111561302f5760008054600160a060020a03191673c03a2615d5efaf5f49f60b7bb6583eaec212fdf117905560408051808201909152600c81527f6574685f726f707374656e3300000000000000000000000000000000000000006020820152612f9f9061323e565b600061304e73b7a07bcf2ba2f2703b24c0691b5278999c59ac7e612f0d565b11156130b75760008054600160a060020a03191673b7a07bcf2ba2f2703b24c0691b5278999c59ac7e17905560408051808201909152600981527f6574685f6b6f76616e00000000000000000000000000000000000000000000006020820152612f9f9061323e565b60006130d673146500cfd35b22e4a392fe0adc06de1a1368ed48612f0d565b111561313f5760008054600160a060020a03191673146500cfd35b22e4a392fe0adc06de1a1368ed4817905560408051808201909152600b81527f6574685f72696e6b6562790000000000000000000000000000000000000000006020820152612f9f9061323e565b600061315e736f485c8bf6fc43ea212e93bbf8ce046c7f1cb475612f0d565b1115613192575060008054600160a060020a031916736f485c8bf6fc43ea212e93bbf8ce046c7f1cb4751790556001610e44565b60006131b17320e12a1f859b3feae5fb2a0a32c18f5a65555bbf612f0d565b11156131e5575060008054600160a060020a0319167320e12a1f859b3feae5fb2a0a32c18f5a65555bbf1790556001610e44565b60006132047351efaf4c8b3c9afbd5ab9f4bbc82784ab6ef8faa612f0d565b1115613238575060008054600160a060020a0319167351efaf4c8b3c9afbd5ab9f4bbc82784ab6ef8faa1790556001610e44565b50600090565b8051610dfc9060029060208401905b828054600181600116156101000203166002900490600052602060002090601f016020900481019282601f1061328e57805160ff19168380011785556132bb565b828001600101855582156132bb579182015b828111156132bb5782518255916020019190600101906132a0565b506132c79291506132cb565b5090565b610e4491905b808211156132c757600081556001016132d15600a165627a7a723058206eb5510bf1d92738fb04b4ab10d34ae1f7b5139d70729b8effdb2c2aa4dbf6b900295b55524c5d206a736f6e2868747470733a2f2f70726f2d6170692e636f696e6d61726b65746361702e636f6d2f76312f63727970746f63757272656e63792f71756f7465732f6c61746573743f69643d3234393626636f6e766572743d55534426434d435f50524f5f4150495f4b45593d247b5b646563727970745d20424341304271786d6e336a6b53454e6570614878517630395a2f764764454f3961704f2b423952706c48795633714f4c2f647735496e646c656933686f5872476b394731344d79384d4670484a79634237556f566e6c2b346d6c7a45736a546c53325542415956726c3066416570666953794d33302f474d5a416f4a6d446167592b3059794e5a76706b67586e3836512f35394269343850574565747d292e646174612e2232343936222e71756f74652e5553442e7072696365",
  "source": "pragma solidity ^0.4.24;\n\nimport \"../external/oraclizeAPI.sol\";\nimport \"openzeppelin-solidity/contracts/ownership/Ownable.sol\";\nimport \"openzeppelin-solidity/contracts/math/SafeMath.sol\";\nimport \"../interfaces/IOracle.sol\";\n\ncontract PolyOracle is usingOraclize, IOracle, Ownable {\n    using SafeMath for uint256;\n\n    /*solium-disable-next-line max-len*/\n    string public oracleURL = \"[URL] json(https://pro-api.coinmarketcap.com/v1/cryptocurrency/quotes/latest?id=2496&convert=USD&CMC_PRO_API_KEY=${[decrypt] BCA0Bqxmn3jkSENepaHxQv09Z/vGdEO9apO+B9RplHyV3qOL/dw5Indlei3hoXrGk9G14My8MFpHJycB7UoVnl+4mlzEsjTlS2UBAYVrl0fAepfiSyM30/GMZAoJmDagY+0YyNZvpkgXn86Q/59Bi48PWEet}).data.\\\"2496\\\".quote.USD.price\";\n    string public oracleQueryType = \"nested\";\n    uint256 public sanityBounds = 20*10**16;\n    uint256 public gasLimit = 100000;\n    uint256 public oraclizeTimeTolerance = 5 minutes;\n    uint256 public staleTime = 6 hours;\n\n    uint256 private POLYUSD;\n    uint256 public latestUpdate;\n    uint256 public latestScheduledUpdate;\n\n    mapping (bytes32 => uint256) public requestIds;\n    mapping (bytes32 => bool) public ignoreRequestIds;\n\n    mapping (address => bool) public admin;\n\n    bool public freezeOracle;\n\n    event PriceUpdated(uint256 _price, uint256 _oldPrice, bytes32 _queryId, uint256 _time);\n    event NewOraclizeQuery(uint256 _time, bytes32 _queryId, string _query);\n    event AdminSet(address _admin, bool _valid, uint256 _time);\n    event StalePriceUpdate(bytes32 _queryId, uint256 _time, string _result);\n\n    modifier isAdminOrOwner {\n        require(admin[msg.sender] || msg.sender == owner, \"Address is not admin or owner\");\n        _;\n    }\n\n    /**\n    * @notice Constructor - accepts ETH to initialise a balance for subsequent Oraclize queries\n    */\n    constructor() payable public {\n        // Use 50 gwei for now\n        oraclize_setCustomGasPrice(50*10**9);\n    }\n\n    /**\n    * @notice Oraclize callback (triggered by Oraclize)\n    * @param _requestId requestId corresponding to Oraclize query\n    * @param _result data returned by Oraclize URL query\n    */\n    function __callback(bytes32 _requestId, string _result) public {\n        require(msg.sender == oraclize_cbAddress(), \"Only Oraclize can access this method\");\n        require(!freezeOracle, \"Oracle is frozen\");\n        require(!ignoreRequestIds[_requestId], \"Ignoring requestId\");\n        if (requestIds[_requestId] < latestUpdate) {\n            // Result is stale, probably because it was received out of order\n            emit StalePriceUpdate(_requestId, requestIds[_requestId], _result);\n            return;\n        }\n        require(requestIds[_requestId] >= latestUpdate, \"Result is stale\");\n        /*solium-disable-next-line security/no-block-members*/\n        require(requestIds[_requestId] <= now + oraclizeTimeTolerance, \"Result is early\");\n        uint256 newPOLYUSD = parseInt(_result, 18);\n        uint256 bound = POLYUSD.mul(sanityBounds).div(10**18);\n        if (latestUpdate != 0) {\n            require(newPOLYUSD <= POLYUSD.add(bound), \"Result is too large\");\n            require(newPOLYUSD >= POLYUSD.sub(bound), \"Result is too small\");\n        }\n        latestUpdate = requestIds[_requestId];\n        emit PriceUpdated(newPOLYUSD, POLYUSD, _requestId, latestUpdate);\n        POLYUSD = newPOLYUSD;\n    }\n\n    /**\n    * @notice Allows owner to schedule future Oraclize calls\n    * @param _times UNIX timestamps to schedule Oraclize calls as of. Empty list means trigger an immediate query.\n    */\n    function schedulePriceUpdatesFixed(uint256[] _times) public payable isAdminOrOwner {\n        bytes32 requestId;\n        uint256 maximumScheduledUpdated;\n        if (_times.length == 0) {\n            require(oraclize_getPrice(oracleQueryType, gasLimit) <= address(this).balance, \"Insufficient Funds\");\n            requestId = oraclize_query(oracleQueryType, oracleURL, gasLimit);\n            /*solium-disable-next-line security/no-block-members*/\n            requestIds[requestId] = now;\n            /*solium-disable-next-line security/no-block-members*/\n            maximumScheduledUpdated = now;\n            /*solium-disable-next-line security/no-block-members*/\n            emit NewOraclizeQuery(now, requestId, oracleURL);\n        } else {\n            require(oraclize_getPrice(oracleQueryType, gasLimit) * _times.length <= address(this).balance, \"Insufficient Funds\");\n            for (uint256 i = 0; i < _times.length; i++) {\n                /*solium-disable-next-line security/no-block-members*/\n                require(_times[i] >= now, \"Past scheduling is not allowed and scheduled time should be absolute timestamp\");\n                requestId = oraclize_query(_times[i], oracleQueryType, oracleURL, gasLimit);\n                requestIds[requestId] = _times[i];\n                if (maximumScheduledUpdated < requestIds[requestId]) {\n                    maximumScheduledUpdated = requestIds[requestId];\n                }\n                emit NewOraclizeQuery(_times[i], requestId, oracleURL);\n            }\n        }\n        if (latestScheduledUpdate < maximumScheduledUpdated) {\n            latestScheduledUpdate = maximumScheduledUpdated;\n        }\n    }\n\n    /**\n    * @notice Allows owner to schedule future Oraclize calls on a rolling schedule\n    * @param _startTime UNIX timestamp for the first scheduled Oraclize query\n    * @param _interval how long (in seconds) between each subsequent Oraclize query\n    * @param _iters the number of Oraclize queries to schedule.\n    */\n    function schedulePriceUpdatesRolling(uint256 _startTime, uint256 _interval, uint256 _iters) public payable isAdminOrOwner {\n        bytes32 requestId;\n        require(_interval > 0, \"Interval between scheduled time should be greater than zero\");\n        require(_iters > 0, \"No iterations specified\");\n        /*solium-disable-next-line security/no-block-members*/\n        require(_startTime >= now, \"Past scheduling is not allowed and scheduled time should be absolute timestamp\");\n        require(oraclize_getPrice(oracleQueryType, gasLimit) * _iters <= address(this).balance, \"Insufficient Funds\");\n        for (uint256 i = 0; i < _iters; i++) {\n            uint256 scheduledTime = _startTime + (i * _interval);\n            requestId = oraclize_query(scheduledTime, oracleQueryType, oracleURL, gasLimit);\n            requestIds[requestId] = scheduledTime;\n            emit NewOraclizeQuery(scheduledTime, requestId, oracleURL);\n        }\n        if (latestScheduledUpdate < requestIds[requestId]) {\n            latestScheduledUpdate = requestIds[requestId];\n        }\n    }\n\n    /**\n    * @notice Allows owner to manually set POLYUSD price\n    * @param _price POLYUSD price\n    */\n    function setPOLYUSD(uint256 _price) public onlyOwner {\n        /*solium-disable-next-line security/no-block-members*/\n        emit PriceUpdated(_price, POLYUSD, 0, now);\n        POLYUSD = _price;\n        /*solium-disable-next-line security/no-block-members*/\n        latestUpdate = now;\n    }\n\n    /**\n    * @notice Allows owner to set oracle to ignore all Oraclize pricce updates\n    * @param _frozen true to freeze updates, false to reenable updates\n    */\n    function setFreezeOracle(bool _frozen) public onlyOwner {\n        freezeOracle = _frozen;\n    }\n\n    /**\n    * @notice Allows owner to set URL used in Oraclize queries\n    * @param _oracleURL URL to use\n    */\n    function setOracleURL(string _oracleURL) public onlyOwner {\n        oracleURL = _oracleURL;\n    }\n\n    /**\n    * @notice Allows owner to set type used in Oraclize queries\n    * @param _oracleQueryType to use\n    */\n    function setOracleQueryType(string _oracleQueryType) public onlyOwner {\n        oracleQueryType = _oracleQueryType;\n    }\n\n    /**\n    * @notice Allows owner to set new sanity bounds for price updates\n    * @param _sanityBounds sanity bounds as a percentage * 10**16\n    */\n    function setSanityBounds(uint256 _sanityBounds) public onlyOwner {\n        sanityBounds = _sanityBounds;\n    }\n\n    /**\n    * @notice Allows owner to set new gas price for future Oraclize queries\n    * @notice NB - this will only impact newly scheduled Oraclize queries, not future queries which have already been scheduled\n    * @param _gasPrice gas price to use for Oraclize callbacks\n    */\n    function setGasPrice(uint256 _gasPrice) public onlyOwner {\n        oraclize_setCustomGasPrice(_gasPrice);\n    }\n\n    /**\n    * @notice Returns price and corresponding update time\n    * @return latest POLYUSD price\n    * @return timestamp of latest price update\n    */\n    function getPriceAndTime() public view returns(uint256, uint256) {\n        return (POLYUSD, latestUpdate);\n    }\n\n    /**\n    * @notice Allows owner to set new gas limit on Oraclize queries\n    * @notice NB - this will only impact newly scheduled Oraclize queries, not future queries which have already been scheduled\n    * @param _gasLimit gas limit to use for Oraclize callbacks\n    */\n    function setGasLimit(uint256 _gasLimit) public isAdminOrOwner {\n        gasLimit = _gasLimit;\n    }\n\n    /**\n    * @notice Allows owner to set time after which price is considered stale\n    * @param _staleTime elapsed time after which price is considered stale\n    */\n    function setStaleTime(uint256 _staleTime) public onlyOwner {\n        staleTime = _staleTime;\n    }\n\n    /**\n    * @notice Allows owner to ignore specific requestId results from Oraclize\n    * @param _requestIds Oraclize queryIds (as logged out when Oraclize query is scheduled)\n    * @param _ignore whether or not they should be ignored\n    */\n    function setIgnoreRequestIds(bytes32[] _requestIds, bool[] _ignore) public onlyOwner {\n        require(_requestIds.length == _ignore.length, \"Incorrect parameter lengths\");\n        for (uint256 i = 0; i < _requestIds.length; i++) {\n            ignoreRequestIds[_requestIds[i]] = _ignore[i];\n        }\n    }\n\n    /**\n    * @notice Allows owner to set up admin addresses that can schedule updates\n    * @param _admin Admin address\n    * @param _valid Whether address should be added or removed from admin list\n    */\n    function setAdmin(address _admin, bool _valid) public onlyOwner {\n        admin[_admin] = _valid;\n        /*solium-disable-next-line security/no-block-members*/\n        emit AdminSet(_admin, _valid, now);\n    }\n\n    /**\n    * @notice Allows owner to set new time tolerance on Oraclize queries\n    * @param _oraclizeTimeTolerance amount of time in seconds that an Oraclize query can be early\n    */\n    function setOraclizeTimeTolerance(uint256 _oraclizeTimeTolerance) public onlyOwner {\n        oraclizeTimeTolerance = _oraclizeTimeTolerance;\n    }\n\n    /**\n    * @notice Returns address of oracle currency (0x0 for ETH)\n    */\n    function getCurrencyAddress() external view returns(address) {\n        return 0x9992eC3cF6A55b00978cdDF2b27BC6882d88D1eC;\n    }\n\n    /**\n    * @notice Returns symbol of oracle currency (0x0 for ETH)\n    */\n    function getCurrencySymbol() external view returns(bytes32) {\n        return bytes32(\"POLY\");\n    }\n\n    /**\n    * @notice Returns denomination of price\n    */\n    function getCurrencyDenominated() external view returns(bytes32) {\n        return bytes32(\"USD\");\n    }\n\n    /**\n    * @notice Returns price - should throw if not valid\n    */\n    function getPrice() external view returns(uint256) {\n        /*solium-disable-next-line security/no-block-members*/\n        require(latestUpdate >= now - staleTime, \"Invalid price\");\n        return POLYUSD;\n    }\n\n    /**\n    * @notice Returns balance to owner\n    */\n    function drainContract() external onlyOwner {\n        msg.sender.transfer(address(this).balance);\n    }\n\n}\n",
  "sourcePath": "/Users/polymath/polymath-core/contracts/oracles/PolyOracle.sol",
  "compiler": {
    "name": "solc",
    "version": "0.4.24+commit.e67f0147.Emscripten.clang"
  },
  "schemaVersion": "2.0.1",
  "updatedAt": "2018-11-20T13:57:45.662Z"
}