{
  "contractName": "SecurityTokenRegistryMock",
  "abi": [
    {
      "constant": true,
      "inputs": [],
      "name": "getExpiryLimit",
      "outputs": [
        {
          "name": "",
          "type": "uint256"
        }
      ],
      "payable": false,
      "stateMutability": "view",
      "type": "function"
    },
    {
      "constant": true,
      "inputs": [
        {
          "name": "_variable",
          "type": "bytes32"
        }
      ],
      "name": "getBoolValues",
      "outputs": [
        {
          "name": "",
          "type": "bool"
        }
      ],
      "payable": false,
      "stateMutability": "view",
      "type": "function"
    },
    {
      "constant": false,
      "inputs": [
        {
          "name": "_newExpiry",
          "type": "uint256"
        }
      ],
      "name": "changeExpiryLimit",
      "outputs": [],
      "payable": false,
      "stateMutability": "nonpayable",
      "type": "function"
    },
    {
      "constant": true,
      "inputs": [
        {
          "name": "_owner",
          "type": "address"
        }
      ],
      "name": "getTickersByOwner",
      "outputs": [
        {
          "name": "",
          "type": "bytes32[]"
        }
      ],
      "payable": false,
      "stateMutability": "view",
      "type": "function"
    },
    {
      "constant": true,
      "inputs": [
        {
          "name": "_variable",
          "type": "bytes32"
        }
      ],
      "name": "getUintValues",
      "outputs": [
        {
          "name": "",
          "type": "uint256"
        }
      ],
      "payable": false,
      "stateMutability": "view",
      "type": "function"
    },
    {
      "constant": false,
      "inputs": [
        {
          "name": "_owner",
          "type": "address"
        },
        {
          "name": "_ticker",
          "type": "string"
        },
        {
          "name": "_tokenName",
          "type": "string"
        }
      ],
      "name": "registerTicker",
      "outputs": [],
      "payable": false,
      "stateMutability": "nonpayable",
      "type": "function"
    },
    {
      "constant": true,
      "inputs": [],
      "name": "getProtocolVersion",
      "outputs": [
        {
          "name": "",
          "type": "uint8[]"
        }
      ],
      "payable": false,
      "stateMutability": "view",
      "type": "function"
    },
    {
      "constant": false,
      "inputs": [],
      "name": "unpause",
      "outputs": [],
      "payable": false,
      "stateMutability": "nonpayable",
      "type": "function"
    },
    {
      "constant": true,
      "inputs": [
        {
          "name": "_owner",
          "type": "address"
        }
      ],
      "name": "getTokensByOwner",
      "outputs": [
        {
          "name": "",
          "type": "address[]"
        }
      ],
      "payable": false,
      "stateMutability": "view",
      "type": "function"
    },
    {
      "constant": false,
      "inputs": [
        {
          "name": "_stLaunchFee",
          "type": "uint256"
        }
      ],
      "name": "changeSecurityLaunchFee",
      "outputs": [],
      "payable": false,
      "stateMutability": "nonpayable",
      "type": "function"
    },
    {
      "constant": true,
      "inputs": [
        {
          "name": "_ticker",
          "type": "string"
        }
      ],
      "name": "getTickerDetails",
      "outputs": [
        {
          "name": "",
          "type": "address"
        },
        {
          "name": "",
          "type": "uint256"
        },
        {
          "name": "",
          "type": "uint256"
        },
        {
          "name": "",
          "type": "string"
        },
        {
          "name": "",
          "type": "bool"
        }
      ],
      "payable": false,
      "stateMutability": "view",
      "type": "function"
    },
    {
      "constant": false,
      "inputs": [
        {
          "name": "_name",
          "type": "string"
        },
        {
          "name": "_ticker",
          "type": "string"
        },
        {
          "name": "_owner",
          "type": "address"
        },
        {
          "name": "_securityToken",
          "type": "address"
        },
        {
          "name": "_tokenDetails",
          "type": "string"
        },
        {
          "name": "_deployedAt",
          "type": "uint256"
        }
      ],
      "name": "modifySecurityToken",
      "outputs": [],
      "payable": false,
      "stateMutability": "nonpayable",
      "type": "function"
    },
    {
      "constant": true,
      "inputs": [
        {
          "name": "_variable",
          "type": "bytes32"
        }
      ],
      "name": "getStringValues",
      "outputs": [
        {
          "name": "",
          "type": "string"
        }
      ],
      "payable": false,
      "stateMutability": "view",
      "type": "function"
    },
    {
      "constant": false,
      "inputs": [],
      "name": "pause",
      "outputs": [],
      "payable": false,
      "stateMutability": "nonpayable",
      "type": "function"
    },
    {
      "constant": false,
      "inputs": [
        {
          "name": "_tokenContract",
          "type": "address"
        }
      ],
      "name": "reclaimERC20",
      "outputs": [],
      "payable": false,
      "stateMutability": "nonpayable",
      "type": "function"
    },
    {
      "constant": true,
      "inputs": [],
      "name": "owner",
      "outputs": [
        {
          "name": "",
          "type": "address"
        }
      ],
      "payable": false,
      "stateMutability": "view",
      "type": "function"
    },
    {
      "constant": true,
      "inputs": [
        {
          "name": "_securityToken",
          "type": "address"
        }
      ],
      "name": "getSecurityTokenData",
      "outputs": [
        {
          "name": "",
          "type": "string"
        },
        {
          "name": "",
          "type": "address"
        },
        {
          "name": "",
          "type": "string"
        },
        {
          "name": "",
          "type": "uint256"
        }
      ],
      "payable": false,
      "stateMutability": "view",
      "type": "function"
    },
    {
      "constant": false,
      "inputs": [
        {
          "name": "_owner",
          "type": "address"
        },
        {
          "name": "_ticker",
          "type": "string"
        },
        {
          "name": "_tokenName",
          "type": "string"
        },
        {
          "name": "_registrationDate",
          "type": "uint256"
        },
        {
          "name": "_expiryDate",
          "type": "uint256"
        },
        {
          "name": "_status",
          "type": "bool"
        }
      ],
      "name": "modifyTicker",
      "outputs": [],
      "payable": false,
      "stateMutability": "nonpayable",
      "type": "function"
    },
    {
      "constant": false,
      "inputs": [
        {
          "name": "_tickerRegFee",
          "type": "uint256"
        }
      ],
      "name": "changeTickerRegistrationFee",
      "outputs": [],
      "payable": false,
      "stateMutability": "nonpayable",
      "type": "function"
    },
    {
      "constant": false,
      "inputs": [
        {
          "name": "_ticker",
          "type": "string"
        }
      ],
      "name": "removeTicker",
      "outputs": [],
      "payable": false,
      "stateMutability": "nonpayable",
      "type": "function"
    },
    {
      "constant": true,
      "inputs": [],
      "name": "isPaused",
      "outputs": [
        {
          "name": "",
          "type": "bool"
        }
      ],
      "payable": false,
      "stateMutability": "view",
      "type": "function"
    },
    {
      "constant": true,
      "inputs": [
        {
          "name": "_variable",
          "type": "bytes32"
        }
      ],
      "name": "getBytes32Values",
      "outputs": [
        {
          "name": "",
          "type": "bytes32"
        }
      ],
      "payable": false,
      "stateMutability": "view",
      "type": "function"
    },
    {
      "constant": true,
      "inputs": [
        {
          "name": "_variable",
          "type": "bytes32"
        }
      ],
      "name": "getAddressValues",
      "outputs": [
        {
          "name": "",
          "type": "address"
        }
      ],
      "payable": false,
      "stateMutability": "view",
      "type": "function"
    },
    {
      "constant": false,
      "inputs": [
        {
          "name": "_name",
          "type": "string"
        },
        {
          "name": "_ticker",
          "type": "string"
        },
        {
          "name": "_tokenDetails",
          "type": "string"
        },
        {
          "name": "_divisible",
          "type": "bool"
        }
      ],
      "name": "generateSecurityToken",
      "outputs": [],
      "payable": false,
      "stateMutability": "nonpayable",
      "type": "function"
    },
    {
      "constant": true,
      "inputs": [
        {
          "name": "_variable",
          "type": "bytes32"
        }
      ],
      "name": "getBytesValues",
      "outputs": [
        {
          "name": "",
          "type": "bytes"
        }
      ],
      "payable": false,
      "stateMutability": "view",
      "type": "function"
    },
    {
      "constant": true,
      "inputs": [],
      "name": "getSecurityTokenLaunchFee",
      "outputs": [
        {
          "name": "",
          "type": "uint256"
        }
      ],
      "payable": false,
      "stateMutability": "view",
      "type": "function"
    },
    {
      "constant": false,
      "inputs": [
        {
          "name": "_newOwner",
          "type": "address"
        },
        {
          "name": "_ticker",
          "type": "string"
        }
      ],
      "name": "transferTickerOwnership",
      "outputs": [],
      "payable": false,
      "stateMutability": "nonpayable",
      "type": "function"
    },
    {
      "constant": false,
      "inputs": [
        {
          "name": "_polymathRegistry",
          "type": "address"
        },
        {
          "name": "_STFactory",
          "type": "address"
        },
        {
          "name": "_stLaunchFee",
          "type": "uint256"
        },
        {
          "name": "_tickerRegFee",
          "type": "uint256"
        },
        {
          "name": "_polyToken",
          "type": "address"
        },
        {
          "name": "_owner",
          "type": "address"
        }
      ],
      "name": "initialize",
      "outputs": [],
      "payable": true,
      "stateMutability": "payable",
      "type": "function"
    },
    {
      "constant": true,
      "inputs": [
        {
          "name": "_securityToken",
          "type": "address"
        }
      ],
      "name": "isSecurityToken",
      "outputs": [
        {
          "name": "",
          "type": "bool"
        }
      ],
      "payable": false,
      "stateMutability": "view",
      "type": "function"
    },
    {
      "constant": false,
      "inputs": [
        {
          "name": "_STFactoryAddress",
          "type": "address"
        },
        {
          "name": "_major",
          "type": "uint8"
        },
        {
          "name": "_minor",
          "type": "uint8"
        },
        {
          "name": "_patch",
          "type": "uint8"
        }
      ],
      "name": "setProtocolVersion",
      "outputs": [],
      "payable": false,
      "stateMutability": "nonpayable",
      "type": "function"
    },
    {
      "constant": true,
      "inputs": [],
      "name": "getTickerRegistrationFee",
      "outputs": [
        {
          "name": "",
          "type": "uint256"
        }
      ],
      "payable": false,
      "stateMutability": "view",
      "type": "function"
    },
    {
      "constant": false,
      "inputs": [
        {
          "name": "_newAddress",
          "type": "address"
        }
      ],
      "name": "updatePolyTokenAddress",
      "outputs": [],
      "payable": false,
      "stateMutability": "nonpayable",
      "type": "function"
    },
    {
      "constant": true,
      "inputs": [],
      "name": "getSTFactoryAddress",
      "outputs": [
        {
          "name": "",
          "type": "address"
        }
      ],
      "payable": false,
      "stateMutability": "view",
      "type": "function"
    },
    {
      "constant": false,
      "inputs": [
        {
          "name": "_newOwner",
          "type": "address"
        }
      ],
      "name": "transferOwnership",
      "outputs": [],
      "payable": false,
      "stateMutability": "nonpayable",
      "type": "function"
    },
    {
      "constant": true,
      "inputs": [
        {
          "name": "_ticker",
          "type": "string"
        }
      ],
      "name": "getSecurityTokenAddress",
      "outputs": [
        {
          "name": "",
          "type": "address"
        }
      ],
      "payable": false,
      "stateMutability": "view",
      "type": "function"
    },
    {
      "anonymous": false,
      "inputs": [
        {
          "indexed": false,
          "name": "_timestammp",
          "type": "uint256"
        }
      ],
      "name": "Pause",
      "type": "event"
    },
    {
      "anonymous": false,
      "inputs": [
        {
          "indexed": false,
          "name": "_timestamp",
          "type": "uint256"
        }
      ],
      "name": "Unpause",
      "type": "event"
    },
    {
      "anonymous": false,
      "inputs": [
        {
          "indexed": false,
          "name": "_ticker",
          "type": "string"
        },
        {
          "indexed": false,
          "name": "_removedAt",
          "type": "uint256"
        },
        {
          "indexed": false,
          "name": "_removedBy",
          "type": "address"
        }
      ],
      "name": "TickerRemoved",
      "type": "event"
    },
    {
      "anonymous": false,
      "inputs": [
        {
          "indexed": false,
          "name": "_oldExpiry",
          "type": "uint256"
        },
        {
          "indexed": false,
          "name": "_newExpiry",
          "type": "uint256"
        }
      ],
      "name": "ChangeExpiryLimit",
      "type": "event"
    },
    {
      "anonymous": false,
      "inputs": [
        {
          "indexed": false,
          "name": "_oldFee",
          "type": "uint256"
        },
        {
          "indexed": false,
          "name": "_newFee",
          "type": "uint256"
        }
      ],
      "name": "ChangeSecurityLaunchFee",
      "type": "event"
    },
    {
      "anonymous": false,
      "inputs": [
        {
          "indexed": false,
          "name": "_oldFee",
          "type": "uint256"
        },
        {
          "indexed": false,
          "name": "_newFee",
          "type": "uint256"
        }
      ],
      "name": "ChangeTickerRegistrationFee",
      "type": "event"
    },
    {
      "anonymous": false,
      "inputs": [
        {
          "indexed": true,
          "name": "previousOwner",
          "type": "address"
        },
        {
          "indexed": true,
          "name": "newOwner",
          "type": "address"
        }
      ],
      "name": "OwnershipTransferred",
      "type": "event"
    },
    {
      "anonymous": false,
      "inputs": [
        {
          "indexed": false,
          "name": "_ticker",
          "type": "string"
        },
        {
          "indexed": true,
          "name": "_oldOwner",
          "type": "address"
        },
        {
          "indexed": true,
          "name": "_newOwner",
          "type": "address"
        }
      ],
      "name": "ChangeTickerOwnership",
      "type": "event"
    },
    {
      "anonymous": false,
      "inputs": [
        {
          "indexed": false,
          "name": "_ticker",
          "type": "string"
        },
        {
          "indexed": false,
          "name": "_name",
          "type": "string"
        },
        {
          "indexed": true,
          "name": "_securityTokenAddress",
          "type": "address"
        },
        {
          "indexed": true,
          "name": "_owner",
          "type": "address"
        },
        {
          "indexed": false,
          "name": "_addedAt",
          "type": "uint256"
        },
        {
          "indexed": false,
          "name": "_registrant",
          "type": "address"
        },
        {
          "indexed": false,
          "name": "_fromAdmin",
          "type": "bool"
        },
        {
          "indexed": false,
          "name": "_registrationFee",
          "type": "uint256"
        }
      ],
      "name": "NewSecurityToken",
      "type": "event"
    },
    {
      "anonymous": false,
      "inputs": [
        {
          "indexed": true,
          "name": "_owner",
          "type": "address"
        },
        {
          "indexed": false,
          "name": "_ticker",
          "type": "string"
        },
        {
          "indexed": false,
          "name": "_name",
          "type": "string"
        },
        {
          "indexed": true,
          "name": "_registrationDate",
          "type": "uint256"
        },
        {
          "indexed": true,
          "name": "_expiryDate",
          "type": "uint256"
        },
        {
          "indexed": false,
          "name": "_fromAdmin",
          "type": "bool"
        },
        {
          "indexed": false,
          "name": "_registrationFee",
          "type": "uint256"
        }
      ],
      "name": "RegisterTicker",
      "type": "event"
    },
    {
      "constant": false,
      "inputs": [
        {
          "name": "_ticker",
          "type": "string"
        },
        {
          "name": "_newSecurityTokenAddress",
          "type": "address"
        }
      ],
      "name": "changeTheDeployedAddress",
      "outputs": [],
      "payable": false,
      "stateMutability": "nonpayable",
      "type": "function"
    }
  ],
  "bytecode": "0x608060405234801561001057600080fd5b50615c4680620000216000396000f3006080604052600436106101a85763ffffffff60e060020a6000350416630e8dcb0b81146101ad578063165e694a146102135780631d8acf1b1461023a578063208b080f1461026657806321c8ad0e1461027e57806326839e53146102ef578063321dff171461030757806333ce93fe146103405780633f4ba83a1461035557806340398d671461036a57806342c2e5511461038b57806363808bcb146103a35780636658076c1461046d57806369ba0fe9146104bd5780638456cb591461054a5780638905fd4f1461055f5780638da5cb5b146105805780638f9bbf16146105b157806392042aee14610690578063959346ae146106d4578063972b3ab5146106ec578063b187bd261461070c578063b3447ac914610721578063baed8bb114610739578063c37792b514610751578063c6cb7ab81461078e578063c75948f5146107a6578063d0f6fe42146107bb578063d2d10162146107e8578063d300a96814610816578063d3623f9814610837578063e1ecae9e1461086a578063e6ff950b1461087f578063ea470758146108a0578063f2fde38b146108b5578063fb621f14146108d6575b600080fd5b3480156101b957600080fd5b506040805160206004803580820135601f810184900484028501840190955284845261021194369492936024939284019190819084018382808284375094975050509235600160a060020a031693506108f692505050565b005b34801561021f57600080fd5b50610228610930565b60408051918252519081900360200190f35b34801561024657600080fd5b5061025260043561094f565b604080519115158252519081900360200190f35b34801561027257600080fd5b50610211600435610967565b34801561028a57600080fd5b5061029f600160a060020a0360043516610a81565b60408051602080825283518183015283519192839290830191858101910280838360005b838110156102db5781810151838201526020016102c3565b505050509050019250505060405180910390f35b3480156102fb57600080fd5b50610228600435610c3a565b34801561031357600080fd5b5061021160048035600160a060020a03169060248035808201929081013591604435908101910135610c4c565b34801561034c57600080fd5b5061029f61125f565b34801561036157600080fd5b50610211611298565b34801561037657600080fd5b5061029f600160a060020a0360043516611399565b34801561039757600080fd5b506102116004356116f7565b3480156103af57600080fd5b506103c36004803560248101910135611812565b6040518086600160a060020a0316600160a060020a031681526020018581526020018481526020018060200183151515158152602001828103825284818151815260200191508051906020019080838360005b8381101561042e578181015183820152602001610416565b50505050905090810190601f16801561045b5780820380516001836020036101000a031916815260200191505b50965050505050505060405180910390f35b34801561047957600080fd5b506102116024600480358281019290820135918135808301929082013591600160a060020a036044358116926064359091169160843591820191013560a4356119a2565b3480156104c957600080fd5b506104d5600435611e32565b6040805160208082528351818301528351919283929083019185019080838360005b8381101561050f5781810151838201526020016104f7565b50505050905090810190601f16801561053c5780820380516001836020036101000a031916815260200191505b509250505060405180910390f35b34801561055657600080fd5b50610211611ed5565b34801561056b57600080fd5b50610211600160a060020a0360043516611fc3565b34801561058c57600080fd5b506105956121ec565b60408051600160a060020a039092168252519081900360200190f35b3480156105bd57600080fd5b506105d2600160a060020a0360043516612205565b604051808060200185600160a060020a0316600160a060020a0316815260200180602001848152602001838103835287818151815260200191508051906020019080838360005b83811015610631578181015183820152602001610619565b50505050905090810190601f16801561065e5780820380516001836020036101000a031916815260200191505b50838103825285518152855160209182019187019080838360008381101561042e578181015183820152602001610416565b34801561069c57600080fd5b5061021160048035600160a060020a0316906024803580820192908101359160443590810191013560643560843560a435151561234c565b3480156106e057600080fd5b506102116004356125ae565b3480156106f857600080fd5b5061021160048035602481019101356126c9565b34801561071857600080fd5b506102526128eb565b34801561072d57600080fd5b50610228600435612904565b34801561074557600080fd5b50610595600435612916565b34801561075d57600080fd5b5061021160246004803582810192908201359181358083019290820135916044359182019101356064351515612931565b34801561079a57600080fd5b506104d56004356135c7565b3480156107b257600080fd5b50610228613631565b3480156107c757600080fd5b5061021160048035600160a060020a0316906024803590810191013561364a565b610211600160a060020a03600435811690602435811690604435906064359060843581169060a43516613ce1565b34801561082257600080fd5b50610252600160a060020a0360043516613f4e565b34801561084357600080fd5b50610211600160a060020a036004351660ff6024358116906044358116906064351661401b565b34801561087657600080fd5b506102286140e2565b34801561088b57600080fd5b50610211600160a060020a03600435166140fb565b3480156108ac57600080fd5b506105956141b6565b3480156108c157600080fd5b50610211600160a060020a0360043516614228565b3480156108e257600080fd5b506105956004803560248101910135614339565b61092c610926604080519081016040528060158152602001600080516020615b7b833981519152815250846143b0565b826144c5565b5050565b6000610949600080516020615a5b833981519152610c3a565b90505b90565b60008181526004602052604090205460ff165b919050565b61096f6121ec565b600160a060020a031633146109bc576040805160e560020a62461bcd0281526020600482015260146024820152600080516020615adb833981519152604482015290519081900360640190fd5b62015180811015610a17576040805160e560020a62461bcd02815260206004820152601660248201527f4578706972792073686f756c64203e3d20312064617900000000000000000000604482015290519081900360640190fd5b7f7e1cc0e69ee3b84fb62bbb71687d2565bbb8ad1771bb3e3cd15cbed424c833c8610a4f600080516020615a5b833981519152610c3a565b60408051918252602082018490528051918290030190a1610a7e600080516020615a5b83398151915282614500565b50565b606060006060600060608060009450610ac5610ac06040805190810160405280600d8152602001600080516020615b3b83398151915281525089614512565b6145d2565b9350600092505b8351831015610b5557610af58484815181101515610ae657fe5b90602001906020020151614634565b915042610b2d610b286040805190810160405280601c8152602001600080516020615b9b833981519152815250856143b0565b610c3a565b101580610b3e5750610b3e82614788565b15610b4a576001909401935b600190920191610acc565b84604051908082528060200260200182016040528015610b7f578160200160208202803883390190505b50905060009450600092505b8351831015610c3057610ba58484815181101515610ae657fe5b915042610bd8610b286040805190810160405280601c8152602001600080516020615b9b833981519152815250856143b0565b101580610be95750610be982614788565b15610c25578383815181101515610bfc57fe5b906020019060200201518186815181101515610c1457fe5b602090810290910101526001909401935b600190920191610b8b565b9695505050505050565b60009081526020819052604090205490565b600060606000610c5a6121ec565b600160a060020a031633600160a060020a03161415610f4c57600160a060020a0388161515610cd3576040805160e560020a62461bcd02815260206004820152601660248201527f4f776e65722073686f756c64206e6f7420626520307800000000000000000000604482015290519081900360640190fd5b600086118015610ce45750600a8611155b1515610d28576040805160e560020a62461bcd02815260206004820152601a6024820152600080516020615bbb833981519152604482015290519081900360640190fd5b610d306140e2565b92506000831115610e2f57610d52600080516020615b5b833981519152612916565b6040805160e060020a6323b872dd028152336004820152306024820152604481018690529051600160a060020a0392909216916323b872dd916064808201926020929091908290030181600087803b158015610dad57600080fd5b505af1158015610dc1573d6000803e3d6000fd5b505050506040513d6020811015610dd757600080fd5b50511515610e2f576040805160e560020a62461bcd02815260206004820152601560248201527f496e737566666963656e7420616c6c6f77616e63650000000000000000000000604482015290519081900360640190fd5b610e6887878080601f016020809104026020016040519081016040528093929190818152602001838380828437506147c5945050505050565b9150610e73826148bf565b1515610ec9576040805160e560020a62461bcd02815260206004820152601260248201527f5469636b65722069732072657365727665640000000000000000000000000000604482015290519081900360640190fd5b610ed28261493a565b9050600160a060020a03811615610eed57610eed818361496c565b610f47888387878080601f01602080910402602001604051908101604052809392919081815260200183838082843782019150505050505042610f3e610f31610930565b429063ffffffff614aa616565b6000808a614ab3565b611255565b610f546128eb565b15610f97576040805160e560020a62461bcd02815260206004820152600e6024820152600080516020615bdb833981519152604482015290519081900360640190fd5b600160a060020a0388161515610ff7576040805160e560020a62461bcd02815260206004820152601660248201527f4f776e65722073686f756c64206e6f7420626520307800000000000000000000604482015290519081900360640190fd5b6000861180156110085750600a8611155b151561104c576040805160e560020a62461bcd02815260206004820152601a6024820152600080516020615bbb833981519152604482015290519081900360640190fd5b6110546140e2565b9250600083111561115357611076600080516020615b5b833981519152612916565b6040805160e060020a6323b872dd028152336004820152306024820152604481018690529051600160a060020a0392909216916323b872dd916064808201926020929091908290030181600087803b1580156110d157600080fd5b505af11580156110e5573d6000803e3d6000fd5b505050506040513d60208110156110fb57600080fd5b50511515611153576040805160e560020a62461bcd02815260206004820152601560248201527f496e737566666963656e7420616c6c6f77616e63650000000000000000000000604482015290519081900360640190fd5b61118c87878080601f016020809104026020016040519081016040528093929190818152602001838380828437506147c5945050505050565b9150611197826148bf565b15156111ed576040805160e560020a62461bcd02815260206004820152601260248201527f5469636b65722069732072657365727665640000000000000000000000000000604482015290519081900360640190fd5b6111f68261493a565b9050600160a060020a0381161561121157611211818361496c565b611255888387878080601f01602080910402602001604051908101604052809392919081815260200183838082843782019150505050505042610f3e610f31610930565b5050505050505050565b6060610949611293610b286040805190810160405280600d8152602001600080516020615a3b833981519152815250614bf5565b614cbf565b6112a06128eb565b15156112f6576040805160e560020a62461bcd02815260206004820152601460248201527f53686f756c64206e6f7420626520706175736564000000000000000000000000604482015290519081900360640190fd5b6112fe6121ec565b600160a060020a0316331461134b576040805160e560020a62461bcd0281526020600482015260146024820152600080516020615adb833981519152604482015290519081900360640190fd5b6113646000805160206159fb8339815191526000614d64565b6040805142815290517faaa520fdd7d2c83061d632fa017b0432407e798818af63ea908589fceda39ab79181900360200190a1565b6060806060600080600080600060606113ee6113e96040805190810160405280600b81526020017f6163746976655573657273000000000000000000000000000000000000000000815250614bf5565b614d84565b9750600094508493508392505b87518410156115515761144b610ac06040805190810160405280600d8152602001600080516020615b3b8339815191528152508a8781518110151561143c57fe5b90602001906020020151614512565b9650600092505b8651831015611546576114a061149b604080519081016040528060158152602001600080516020615b7b8339815191528152506114968a87815181101515610ae657fe5b6143b0565b612916565b9550600160a060020a0386161561153b5789600160a060020a031686600160a060020a0316638da5cb5b6040518163ffffffff1660e060020a028152600401602060405180830381600087803b1580156114f957600080fd5b505af115801561150d573d6000803e3d6000fd5b505050506040513d602081101561152357600080fd5b5051600160a060020a0316141561153b578460010194505b600190920191611452565b6001909301926113fb565b600091508460405190808252806020026020018201604052801561157f578160200160208202803883390190505b509050600093505b87518410156116ea576115c8610ac06040805190810160405280600d8152602001600080516020615b3b8339815191528152508a8781518110151561143c57fe5b9650600092505b86518310156116df5761161361149b604080519081016040528060158152602001600080516020615b7b8339815191528152506114968a87815181101515610ae657fe5b9550600160a060020a038616156116d45789600160a060020a031686600160a060020a0316638da5cb5b6040518163ffffffff1660e060020a028152600401602060405180830381600087803b15801561166c57600080fd5b505af1158015611680573d6000803e3d6000fd5b505050506040513d602081101561169657600080fd5b5051600160a060020a031614156116d4578581838151811015156116b657fe5b600160a060020a039092166020928302909101909101526001909101905b6001909201916115cf565b600190930192611587565b9998505050505050505050565b60006117016121ec565b600160a060020a0316331461174e576040805160e560020a62461bcd0281526020600482015260146024820152600080516020615adb833981519152604482015290519081900360640190fd5b611765600080516020615a7b833981519152610c3a565b9050818114156117bf576040805160e560020a62461bcd02815260206004820152600f60248201527f466565206e6f74206368616e6765640000000000000000000000000000000000604482015290519081900360640190fd5b604080518281526020810184905281517f082ce758ae1784abd031015a0eac6700b941db0797e890ae7c4d326a5f8255c0929181900390910190a161092c600080516020615a7b83398151915283614500565b60008060006060600060606000806118598a8a8080601f016020809104026020016040519081016040528093929190818152602001838380828437506147c5945050505050565b925061186483614788565b9150611896610b286040805190810160405280601c8152602001600080516020615b9b833981519152815250856143b0565b9050600182151514806118a857504281115b15611977576118b68361493a565b61191f610b28606060405190810160405280602281526020017f726567697374657265645469636b6572735f726567697374726174696f6e446181526020017f7465000000000000000000000000000000000000000000000000000000000000815250866143b0565b826119676119626040805190810160405280601b81526020017f726567697374657265645469636b6572735f746f6b656e4e616d650000000000815250886143b0565b611e32565b8597509750975097509750611995565b60408051602081019091526000808252985088975087965094508593505b5050509295509295909350565b60606000806119af6121ec565b600160a060020a031633146119fc576040805160e560020a62461bcd0281526020600482015260146024820152600080516020615adb833981519152604482015290519081900360640190fd5b60008b118015611a0c5750600089115b1515611a62576040805160e560020a62461bcd02815260206004820152601160248201527f537472696e67206c656e677468203e2030000000000000000000000000000000604482015290519081900360640190fd5b600a891115611aa9576040805160e560020a62461bcd02815260206004820152601a6024820152600080516020615bbb833981519152604482015290519081900360640190fd5b8315801590611ac05750600160a060020a03881615155b1515611b16576040805160e560020a62461bcd02815260206004820152601a60248201527f302076616c756520706172616d73206e6f7420616c6c6f776564000000000000604482015290519081900360640190fd5b611b4f8a8a8080601f016020809104026020016040519081016040528093929190818152602001838380828437506147c5945050505050565b9250600160a060020a0387161515611bb1576040805160e560020a62461bcd02815260206004820152601060248201527f5354206164647265737320697320307800000000000000000000000000000000604482015290519081900360640190fd5b611c1a610b28606060405190810160405280602281526020017f726567697374657265645469636b6572735f726567697374726174696f6e446181526020017f7465000000000000000000000000000000000000000000000000000000000000815250856143b0565b9150611c4c610b286040805190810160405280601c8152602001600080516020615b9b833981519152815250856143b0565b9050811515611c7357429150611c70611c63610930565b839063ffffffff614aa616565b90505b611ca9611ca3604080519081016040528060158152602001600080516020615b7b833981519152815250856143b0565b886144c5565b611cea88848e8e8080601f01602080910402602001604051908101604052809392919081815260200183838082843782019150505050505085856001614def565b611d27878488888080601f016020809104026020016040519081016040528093929190818152602001838380828437508c9450614f189350505050565b87600160a060020a031687600160a060020a03167f63d9fb58b25a396dc2ebc591bec9115d1eb9c722dd6cdfcc9be4144d39dc2c26858f8f89336001611d6b613631565b60408051908101859052600160a060020a0384166060820152821515608082015260a0810182905260c08082528851908201528751819060208083019160e08401918c019080838360005b83811015611dce578181015183820152602001611db6565b50505050905090810190601f168015611dfb5780820380516001836020036101000a031916815260200191505b50838103825288815260200189898082843760405192018290039b50909950505050505050505050a3505050505050505050505050565b60008181526001602081815260409283902080548451600260001995831615610100029590950190911693909304601f81018390048302840183019094528383526060939091830182828015611ec95780601f10611e9e57610100808354040283529160200191611ec9565b820191906000526020600020905b815481529060010190602001808311611eac57829003601f168201915b50505050509050919050565b611edd6128eb565b15611f20576040805160e560020a62461bcd02815260206004820152600e6024820152600080516020615bdb833981519152604482015290519081900360640190fd5b611f286121ec565b600160a060020a03163314611f75576040805160e560020a62461bcd0281526020600482015260146024820152600080516020615adb833981519152604482015290519081900360640190fd5b611f8e6000805160206159fb8339815191526001614d64565b6040805142815290517f68b095021b1f40fe513109f513c66692f0b3219aee674a69f4efc57badb8201d9181900360200190a1565b600080611fce6121ec565b600160a060020a0316331461201b576040805160e560020a62461bcd0281526020600482015260146024820152600080516020615adb833981519152604482015290519081900360640190fd5b600160a060020a0383161515612069576040805160e560020a62461bcd02815260206004820152600f6024820152600080516020615a9b833981519152604482015290519081900360640190fd5b604080517f70a082310000000000000000000000000000000000000000000000000000000081523060048201529051849350600160a060020a038416916370a082319160248083019260209291908290030181600087803b1580156120cd57600080fd5b505af11580156120e1573d6000803e3d6000fd5b505050506040513d60208110156120f757600080fd5b50519050600160a060020a03821663a9059cbb6121126121ec565b836040518363ffffffff1660e060020a0281526004018083600160a060020a0316600160a060020a0316815260200182815260200192505050602060405180830381600087803b15801561216557600080fd5b505af1158015612179573d6000803e3d6000fd5b505050506040513d602081101561218f57600080fd5b505115156121e7576040805160e560020a62461bcd02815260206004820152600f60248201527f5472616e73666572206661696c65640000000000000000000000000000000000604482015290519081900360640190fd5b505050565b6000610949600080516020615b1b833981519152612916565b606060006060600061224f6119626040805190810160405280601581526020017f7365637572697479546f6b656e735f7469636b6572000000000000000000000081525087614512565b85600160a060020a0316638da5cb5b6040518163ffffffff1660e060020a028152600401602060405180830381600087803b15801561228d57600080fd5b505af11580156122a1573d6000803e3d6000fd5b505050506040513d60208110156122b757600080fd5b505160408051808201909152601b81527f7365637572697479546f6b656e735f746f6b656e44657461696c73000000000060208201526122fb906119629089614512565b61233d610b286040805190810160405280601981526020017f7365637572697479546f6b656e735f6465706c6f7965644174000000000000008152508a614512565b93509350935093509193509193565b60606123566121ec565b600160a060020a031633146123a3576040805160e560020a62461bcd0281526020600482015260146024820152600080516020615adb833981519152604482015290519081900360640190fd5b6000871180156123b45750600a8711155b15156123f8576040805160e560020a62461bcd02815260206004820152601a6024820152600080516020615bbb833981519152604482015290519081900360640190fd5b821580159061240657508315155b151561245c576040805160e560020a62461bcd02815260206004820152601560248201527f44617465732073686f756c64206e6f7420626520300000000000000000000000604482015290519081900360640190fd5b828411156124da576040805160e560020a62461bcd02815260206004820152602660248201527f526567697374726174696f6e20646174652073686f756c64203c20657870697260448201527f7920646174650000000000000000000000000000000000000000000000000000606482015290519081900360840190fd5b600160a060020a0389161515612528576040805160e560020a62461bcd02815260206004820152600f6024820152600080516020615a9b833981519152604482015290519081900360640190fd5b61256188888080601f016020809104026020016040519081016040528093929190818152602001838380828437506147c5945050505050565b90506125a3898288888080601f016020809104026020016040519081016040528093929190818152602001838380828437820191505050505050878787614def565b505050505050505050565b60006125b86121ec565b600160a060020a03163314612605576040805160e560020a62461bcd0281526020600482015260146024820152600080516020615adb833981519152604482015290519081900360640190fd5b61261c600080516020615a1b833981519152610c3a565b905081811415612676576040805160e560020a62461bcd02815260206004820152600f60248201527f466565206e6f74206368616e6765640000000000000000000000000000000000604482015290519081900360640190fd5b604080518281526020810184905281517f788dceb058391de5648d0deb9187656f8c46d3ee285c1077579adf642793f1f6929181900390910190a161092c600080516020615a1b83398151915283614500565b606060006126d56121ec565b600160a060020a03163314612722576040805160e560020a62461bcd0281526020600482015260146024820152600080516020615adb833981519152604482015290519081900360640190fd5b61275b84848080601f016020809104026020016040519081016040528093929190818152602001838380828437506147c5945050505050565b91506127668261493a565b9050600160a060020a03811615156127c8576040805160e560020a62461bcd02815260206004820152601460248201527f5469636b657220646f65736e2774206578697374000000000000000000000000604482015290519081900360640190fd5b6127d2818361496c565b612809612802604080519081016040528060158152602001600080516020615b7b833981519152815250846143b0565b60006144c5565b61282a82600080600060206040519081016040528060008152506000614ff0565b7f5854c55b609f5180d42245ffca3efcee6c5db8e73ea96e693d8667e0bcb4d470824233604051808060200184815260200183600160a060020a0316600160a060020a03168152602001828103825285818151815260200191508051906020019080838360005b838110156128a9578181015183820152602001612891565b50505050905090810190601f1680156128d65780820380516001836020036101000a031916815260200191505b5094505050505060405180910390a150505050565b60006109496000805160206159fb83398151915261094f565b60009081526006602052604090205490565b600090815260026020526040902054600160a060020a031690565b606060008060006129406121ec565b600160a060020a031633600160a060020a03161415612f665760008a1180156129695750600088115b15156129bf576040805160e560020a62461bcd02815260206004820152601160248201527f5469636b6572206c656e677468203e2030000000000000000000000000000000604482015290519081900360640190fd5b6129f889898080601f016020809104026020016040519081016040528093929190818152602001838380828437506147c5945050505050565b9350612a27604080519081016040528060188152602001600080516020615afb833981519152815250856143b0565b9250612a328361094f565b15612a87576040805160e560020a62461bcd02815260206004820152601060248201527f416c7265616479206465706c6f79656400000000000000000000000000000000604482015290519081900360640190fd5b612a92836001614d64565b33612a9c8561493a565b600160a060020a031614612ae8576040805160e560020a62461bcd02815260206004820152600e6024820152600080516020615bfb833981519152604482015290519081900360640190fd5b42612b19610b286040805190810160405280601c8152602001600080516020615b9b833981519152815250876143b0565b1015612b6f576040805160e560020a62461bcd02815260206004820152601360248201527f5469636b65722067657473206578706972656400000000000000000000000000604482015290519081900360640190fd5b612b77613631565b91506000821115612c7657612b99600080516020615b5b833981519152612916565b6040805160e060020a6323b872dd028152336004820152306024820152604481018590529051600160a060020a0392909216916323b872dd916064808201926020929091908290030181600087803b158015612bf457600080fd5b505af1158015612c08573d6000803e3d6000fd5b505050506040513d6020811015612c1e57600080fd5b50511515612c76576040805160e560020a62461bcd02815260206004820152601660248201527f496e73756666696369656e7420616c6c6f77616e636500000000000000000000604482015290519081900360640190fd5b612c7e6141b6565b600160a060020a031663c85fd4f88c8c8760128c8c338d612cbe7f90eeab7c36075577c7cc5ff366e389fefa8a18289b949bab3529ab4471139d4d612916565b60405160e060020a63ffffffff8c1602815260ff87166044820152600160a060020a03808516608483015283151560a4830152821660c482015260e06004820190815260e482018a905290819060248101906064810190610104018d8d8082843790910185810384528c5181528c5160209182019250908d019080838360005b83811015612d56578181015183820152602001612d3e565b50505050905090810190601f168015612d835780820380516001836020036101000a031916815260200191505b50848103825288815260200189898082843782019150509c50505050505050505050505050602060405180830381600087803b158015612dc257600080fd5b505af1158015612dd6573d6000803e3d6000fd5b505050506040513d6020811015612dec57600080fd5b5051604080516020601f8a01819004810282018101909252888152919250612e2f9183918791908b908b908190840183828082843750429450614f189350505050565b612e5f610926604080519081016040528060158152602001600080516020615b7b833981519152815250866143b0565b33600160a060020a031681600160a060020a03167f63d9fb58b25a396dc2ebc591bec9115d1eb9c722dd6cdfcc9be4144d39dc2c26868e8e423360008a60405180806020018060200187815260200186600160a060020a0316600160a060020a031681526020018515151515815260200184815260200183810383528a818151815260200191508051906020019080838360005b83811015612f0b578181015183820152602001612ef3565b50505050905090810190601f168015612f385780820380516001836020036101000a031916815260200191505b50838103825288815260200189898082843760405192018290039b50909950505050505050505050a36135ba565b612f6e6128eb565b15612fb1576040805160e560020a62461bcd02815260206004820152600e6024820152600080516020615bdb833981519152604482015290519081900360640190fd5b60008a118015612fc15750600088115b1515613017576040805160e560020a62461bcd02815260206004820152601160248201527f5469636b6572206c656e677468203e2030000000000000000000000000000000604482015290519081900360640190fd5b61305089898080601f016020809104026020016040519081016040528093929190818152602001838380828437506147c5945050505050565b935061307f604080519081016040528060188152602001600080516020615afb833981519152815250856143b0565b925061308a8361094f565b156130df576040805160e560020a62461bcd02815260206004820152601060248201527f416c7265616479206465706c6f79656400000000000000000000000000000000604482015290519081900360640190fd5b6130ea836001614d64565b336130f48561493a565b600160a060020a031614613140576040805160e560020a62461bcd02815260206004820152600e6024820152600080516020615bfb833981519152604482015290519081900360640190fd5b42613171610b286040805190810160405280601c8152602001600080516020615b9b833981519152815250876143b0565b10156131c7576040805160e560020a62461bcd02815260206004820152601360248201527f5469636b65722067657473206578706972656400000000000000000000000000604482015290519081900360640190fd5b6131cf613631565b915060008211156132ce576131f1600080516020615b5b833981519152612916565b6040805160e060020a6323b872dd028152336004820152306024820152604481018590529051600160a060020a0392909216916323b872dd916064808201926020929091908290030181600087803b15801561324c57600080fd5b505af1158015613260573d6000803e3d6000fd5b505050506040513d602081101561327657600080fd5b505115156132ce576040805160e560020a62461bcd02815260206004820152601660248201527f496e73756666696369656e7420616c6c6f77616e636500000000000000000000604482015290519081900360640190fd5b6132d66141b6565b600160a060020a031663c85fd4f88c8c8760128c8c338d6133167f90eeab7c36075577c7cc5ff366e389fefa8a18289b949bab3529ab4471139d4d612916565b60405160e060020a63ffffffff8c1602815260ff87166044820152600160a060020a03808516608483015283151560a4830152821660c482015260e06004820190815260e482018a905290819060248101906064810190610104018d8d8082843790910185810384528c5181528c5160209182019250908d019080838360005b838110156133ae578181015183820152602001613396565b50505050905090810190601f1680156133db5780820380516001836020036101000a031916815260200191505b50848103825288815260200189898082843782019150509c50505050505050505050505050602060405180830381600087803b15801561341a57600080fd5b505af115801561342e573d6000803e3d6000fd5b505050506040513d602081101561344457600080fd5b5051604080516020601f8a018190048102820181019092528881529192506134879183918791908b908b908190840183828082843750429450614f189350505050565b6134b7610926604080519081016040528060158152602001600080516020615b7b833981519152815250866143b0565b33600160a060020a031681600160a060020a03167f63d9fb58b25a396dc2ebc591bec9115d1eb9c722dd6cdfcc9be4144d39dc2c26868e8e423360008a60405180806020018060200187815260200186600160a060020a0316600160a060020a031681526020018515151515815260200184815260200183810383528a818151815260200191508051906020019080838360005b8381101561356357818101518382015260200161354b565b50505050905090810190601f1680156135905780820380516001836020036101000a031916815260200191505b50838103825288815260200189898082843760405192018290039b50909950505050505050505050a35b5050505050505050505050565b60008181526003602090815260409182902080548351601f6002610100600185161502600019019093169290920491820184900484028101840190945280845260609392830182828015611ec95780601f10611e9e57610100808354040283529160200191611ec9565b6000610949600080516020615a7b833981519152610c3a565b606060006136566121ec565b600160a060020a031633600160a060020a03161415613981576136a884848080601f016020809104026020016040519081016040528093929190818152602001838380828437506147c5945050505050565b9150600160a060020a03851615156136f8576040805160e560020a62461bcd02815260206004820152600f6024820152600080516020615a9b833981519152604482015290519081900360640190fd5b613725604080519081016040528060178152602001600080516020615abb833981519152815250836143b0565b90503361373182612916565b600160a060020a03161461377d576040805160e560020a62461bcd02815260206004820152600e6024820152600080516020615bfb833981519152604482015290519081900360640190fd5b61378682614788565b156138b15784600160a060020a03166137c561149b604080519081016040528060158152602001600080516020615b7b833981519152815250856143b0565b600160a060020a0316638da5cb5b6040518163ffffffff1660e060020a028152600401602060405180830381600087803b15801561380257600080fd5b505af1158015613816573d6000803e3d6000fd5b505050506040513d602081101561382c57600080fd5b5051600160a060020a0316146138b1576040805160e560020a62461bcd028152602060048201526024808201527f4e6577206f776e657220646f6573206e6f74206d6174636820746f6b656e206f60448201527f776e657200000000000000000000000000000000000000000000000000000000606482015290519081900360840190fd5b6138bb338361496c565b6138c585836151cb565b6138cf81866144c5565b84600160a060020a031633600160a060020a03167f44ee9de70a04c2a46889521de8968f79b4ae423f078fbaec8c492d821154729c846040518080602001828103825283818151815260200191508051906020019080838360005b8381101561394257818101518382015260200161392a565b50505050905090810190601f16801561396f5780820380516001836020036101000a031916815260200191505b509250505060405180910390a3613cda565b6139896128eb565b156139cc576040805160e560020a62461bcd02815260206004820152600e6024820152600080516020615bdb833981519152604482015290519081900360640190fd5b613a0584848080601f016020809104026020016040519081016040528093929190818152602001838380828437506147c5945050505050565b9150600160a060020a0385161515613a55576040805160e560020a62461bcd02815260206004820152600f6024820152600080516020615a9b833981519152604482015290519081900360640190fd5b613a82604080519081016040528060178152602001600080516020615abb833981519152815250836143b0565b905033613a8e82612916565b600160a060020a031614613ada576040805160e560020a62461bcd02815260206004820152600e6024820152600080516020615bfb833981519152604482015290519081900360640190fd5b613ae382614788565b15613c0e5784600160a060020a0316613b2261149b604080519081016040528060158152602001600080516020615b7b833981519152815250856143b0565b600160a060020a0316638da5cb5b6040518163ffffffff1660e060020a028152600401602060405180830381600087803b158015613b5f57600080fd5b505af1158015613b73573d6000803e3d6000fd5b505050506040513d6020811015613b8957600080fd5b5051600160a060020a031614613c0e576040805160e560020a62461bcd028152602060048201526024808201527f4e6577206f776e657220646f6573206e6f74206d6174636820746f6b656e206f60448201527f776e657200000000000000000000000000000000000000000000000000000000606482015290519081900360840190fd5b613c18338361496c565b613c2285836151cb565b613c2c81866144c5565b84600160a060020a031633600160a060020a03167f44ee9de70a04c2a46889521de8968f79b4ae423f078fbaec8c492d821154729c846040518080602001828103825283818151815260200191508051906020019080838360005b83811015613c9f578181015183820152602001613c87565b50505050905090810190601f168015613ccc5780820380516001836020036101000a031916815260200191505b509250505060405180910390a35b5050505050565b613d0a7f9ef7257c3339b099aacf96e55122ee78fb65a36bd2a6c19249882be9c98633bf61094f565b15613d5f576040805160e560020a62461bcd02815260206004820152601360248201527f616c726561647920696e697469616c697a656400000000000000000000000000604482015290519081900360640190fd5b600160a060020a03851615801590613d7f5750600160a060020a03821615155b8015613d935750600160a060020a03811615155b8015613da75750600160a060020a03861615155b1515613deb576040805160e560020a62461bcd02815260206004820152600f6024820152600080516020615a9b833981519152604482015290519081900360640190fd5b8315801590613df957508215155b1515613e4f576040805160e560020a62461bcd02815260206004820152601460248201527f466565732073686f756c64206e6f742062652030000000000000000000000000604482015290519081900360640190fd5b613e67600080516020615b5b833981519152836144c5565b613e7f600080516020615a7b83398151915285614500565b613e97600080516020615a1b83398151915284614500565b613eb2600080516020615a5b833981519152624f1a00614500565b613ecb6000805160206159fb8339815191526000614d64565b613ee3600080516020615b1b833981519152826144c5565b613f0d7f90eeab7c36075577c7cc5ff366e389fefa8a18289b949bab3529ab4471139d4d876144c5565b613f1b856002600080615307565b613f467f9ef7257c3339b099aacf96e55122ee78fb65a36bd2a6c19249882be9c98633bf6001614d64565b505050505050565b60408051808201909152601581527f7365637572697479546f6b656e735f7469636b6572000000000000000000000060208201526000907fc5d2460186f7233c927e7db2dcc703c0e500b653ca82273b7bfad8045d85a47090613fb5906119629085614512565b6040518082805190602001908083835b60208310613fe45780518252601f199092019160209182019101613fc5565b5181516020939093036101000a60001901801990911692169190911790526040519201829003909120939093141595945050505050565b6140236121ec565b600160a060020a03163314614070576040805160e560020a62461bcd0281526020600482015260146024820152600080516020615adb833981519152604482015290519081900360640190fd5b600160a060020a03841615156140d0576040805160e560020a62461bcd02815260206004820152601960248201527f30782061646472657373206973206e6f7420616c6c6f77656400000000000000604482015290519081900360640190fd5b6140dc84848484615307565b50505050565b6000610949600080516020615a1b833981519152610c3a565b6141036121ec565b600160a060020a03163314614150576040805160e560020a62461bcd0281526020600482015260146024820152600080516020615adb833981519152604482015290519081900360640190fd5b600160a060020a038116151561419e576040805160e560020a62461bcd02815260206004820152600f6024820152600080516020615a9b833981519152604482015290519081900360640190fd5b610a7e600080516020615b5b833981519152826144c5565b600061094961149b6040805190810160405280601181526020017f70726f746f636f6c56657273696f6e5354000000000000000000000000000000815250614223610b286040805190810160405280600d8152602001600080516020615a3b833981519152815250614bf5565b6154b1565b6142306121ec565b600160a060020a0316331461427d576040805160e560020a62461bcd0281526020600482015260146024820152600080516020615adb833981519152604482015290519081900360640190fd5b600160a060020a03811615156142cb576040805160e560020a62461bcd02815260206004820152600f6024820152600080516020615a9b833981519152604482015290519081900360640190fd5b600160a060020a0381166142ec600080516020615b1b833981519152612916565b600160a060020a03167f8be0079c531659141344cd1fd0a4f28419497f9722a3daafe3b4186f6b6457e060405160405180910390a3610a7e600080516020615b1b833981519152826144c5565b6000606061437684848080601f016020809104026020016040519081016040528093929190818152602001838380828437506147c5945050505050565b90506143a861149b604080519081016040528060158152602001600080516020615b7b833981519152815250836143b0565b949350505050565b600082826040516020018083805190602001908083835b602083106143e65780518252601f1990920191602091820191016143c7565b51815160209384036101000a600019018019909216911617905285519190930192850191508083835b6020831061442e5780518252601f19909201916020918201910161440f565b6001836020036101000a038019825116818451168082178552505050505050905001925050506040516020818303038152906040526040518082805190602001908083835b602083106144925780518252601f199092019160209182019101614473565b5181516020939093036101000a600019018019909116921691909117905260405192018290039091209695505050505050565b600091825260026020526040909120805473ffffffffffffffffffffffffffffffffffffffff1916600160a060020a03909216919091179055565b60009182526020829052604090912055565b600082826040516020018083805190602001908083835b602083106145485780518252601f199092019160209182019101614529565b6001836020036101000a03801982511681845116808217855250505050505090500182600160a060020a0316600160a060020a03166c0100000000000000000000000002815260140192505050604051602081830303815290604052604051808280519060200190808383602083106144925780518252601f199092019160209182019101614473565b600081815260076020908152604091829020805483518184028101840190945280845260609392830182828015611ec957602002820191906000526020600020905b815481526001909101906020018083116146145750505050509050919050565b6040805160208082528183019092526060918291600091829182918591908082016104008038833901905050945060009350600092505b60208310156146e0576008830260020a87029150600160f860020a03198216156146d55781858581518110151561469e57fe5b9060200101907effffffffffffffffffffffffffffffffffffffffffffffffffffffffffffff1916908160001a9053506001909301925b60019092019161466b565b836040519080825280601f01601f19166020018201604052801561470e578160200160208202803883390190505b509050600092505b83831015610c3057848381518110151561472c57fe5b90602001015160f860020a900460f860020a02818481518110151561474d57fe5b9060200101907effffffffffffffffffffffffffffffffffffffffffffffffffffffffffffff1916908160001a905350600190920191614716565b60006147bf6147ba604080519081016040528060188152602001600080516020615afb833981519152815250846143b0565b61094f565b92915050565b6060816000805b82518210156148b65782828151811015156147e357fe5b016020015160f860020a908190040290507f6100000000000000000000000000000000000000000000000000000000000000600160f860020a031982161080159061485857507f7a00000000000000000000000000000000000000000000000000000000000000600160f860020a0319821611155b1561486c57601f1960f860020a9182900401025b80838381518110151561487b57fe5b9060200101907effffffffffffffffffffffffffffffffffffffffffffffffffffffffffffff1916908160001a9053506001909101906147cc565b50909392505050565b6000806148cb8361493a565b600160a060020a03161461493257614909610b286040805190810160405280601c8152602001600080516020615b9b833981519152815250846143b0565b4211801561491d575061491b82614788565b155b1561492a57506001610962565b506000610962565b506001919050565b60006147bf61149b604080519081016040528060178152602001600080516020615abb833981519152815250846143b0565b600080606060006149b5610b286040805190810160405280600b81526020017f7469636b6572496e646578000000000000000000000000000000000000000000815250876143b0565b93506149e46040805190810160405280600d8152602001600080516020615b3b83398151915281525087614512565b92506149ef836145d2565b805190925084106149fc57fe5b85600160a060020a0316614a0f8661493a565b600160a060020a031614614a1f57fe5b614a298385615548565b83614a33846145d2565b511115613f4657614a43836145d2565b805185908110614a4f57fe5b906020019060200201519050613f46614aa06040805190810160405280600b81526020017f7469636b6572496e64657800000000000000000000000000000000000000000081525061149684614634565b85614500565b818101828110156147bf57fe5b614abd88886151cb565b614acb878987878a88614ff0565b838589600160a060020a03167f2de60ed106ca2007f575a4a2ff327cdde9bf801386463689ccb784d8bd4685628a8a878760405180806020018060200185151515158152602001848152602001838103835287818151815260200191508051906020019080838360005b83811015614b4d578181015183820152602001614b35565b50505050905090810190601f168015614b7a5780820380516001836020036101000a031916815260200191505b50838103825286518152865160209182019188019080838360005b83811015614bad578181015183820152602001614b95565b50505050905090810190601f168015614bda5780820380516001836020036101000a031916815260200191505b50965050505050505060405180910390a45050505050505050565b6000816040516020018082805190602001908083835b60208310614c2a5780518252601f199092019160209182019101614c0b565b6001836020036101000a0380198251168184511680821785525050505050509050019150506040516020818303038152906040526040518082805190602001908083835b60208310614c8d5780518252601f199092019160209182019101614c6e565b5181516020939093036101000a6000190180199091169216919091179052604051920182900390912095945050505050565b6040805160038082526080820190925260609182919060208201838038833950508151919250506201000062ffffff8516049082906000908110614cff57fe5b60ff909216602092830290910190910152805161010062ffffff8516049082906001908110614d2a57fe5b60ff9092166020928302909101909101528051839082906002908110614d4c57fe5b60ff9092166020928302909101909101529050919050565b600091825260046020526040909120805460ff1916911515919091179055565b600081815260096020908152604091829020805483518184028101840190945280845260609392830182828015611ec957602002820191906000526020600020905b8154600160a060020a03168152600190910190602001808311614dc65750505050509050919050565b6000614dfa8661493a565b9050600160a060020a03811615614e1557614e15818761496c565b614e1e86614788565b8015614e28575081155b15614e5d57614e5d612802604080519081016040528060158152602001600080516020615b7b833981519152815250886143b0565b8115614efd576000600160a060020a0316614e9e61149b604080519081016040528060158152602001600080516020615b7b833981519152815250896143b0565b600160a060020a03161415614efd576040805160e560020a62461bcd02815260206004820152601460248201527f546f6b656e206e6f742072656769737465726564000000000000000000000000604482015290519081900360640190fd5b614f0f87878787878760016000614ab3565b50505050505050565b614f60614f5a6040805190810160405280601581526020017f7365637572697479546f6b656e735f7469636b6572000000000000000000000081525086614512565b8461561b565b614fa8614fa26040805190810160405280601b81526020017f7365637572697479546f6b656e735f746f6b656e44657461696c73000000000081525086614512565b8361561b565b6140dc614fea6040805190810160405280601981526020017f7365637572697479546f6b656e735f6465706c6f79656441740000000000000081525086614512565b82614500565b600061501f604080519081016040528060178152602001600080516020615abb833981519152815250886143b0565b905085600160a060020a031661503482612916565b600160a060020a03161461504c5761504c81876144c5565b6150b2606060405190810160405280602281526020017f726567697374657265645469636b6572735f726567697374726174696f6e446181526020017f7465000000000000000000000000000000000000000000000000000000000000815250886143b0565b9050846150be82610c3a565b146150cd576150cd8186614500565b6150fa6040805190810160405280601c8152602001600080516020615b9b833981519152815250886143b0565b90508361510682610c3a565b14615115576151158185614500565b6151546040805190810160405280601b81526020017f726567697374657265645469636b6572735f746f6b656e4e616d650000000000815250886143b0565b905061515f83614bf5565b61517061516b83611e32565b614bf5565b1461517f5761517f818461561b565b6151ac604080519081016040528060188152602001600080516020615afb833981519152815250886143b0565b90508115156151ba8261094f565b151514614f0f57614f0f8183614d64565b60008060006151fd6040805190810160405280600d8152602001600080516020615b3b83398151915281525086614512565b9250615208836145d2565b51915061521d836152188661563a565b615647565b61526561525f6040805190810160405280600b81526020017f7469636b6572496e646578000000000000000000000000000000000000000000815250866143b0565b83614500565b6152a46040805190810160405280600981526020017f7365656e5573657273000000000000000000000000000000000000000000000081525086614512565b90506152af8161094f565b1515613cda576152fc6152f66040805190810160405280600b81526020017f6163746976655573657273000000000000000000000000000000000000000000815250614bf5565b8661566a565b613cda816001614d64565b60408051600380825260808201909252606091600091906020820184803883390190505091508482600081518110151561533d57fe5b60ff909216602092830290910190910152815184908390600190811061535f57fe5b60ff909216602092830290910190910152815183908390600290811061538157fe5b60ff90921660209283029091019091015261539d8585856156b6565b90506153b06153aa61125f565b836156d1565b1515615406576040805160e560020a62461bcd02815260206004820152601060248201527f496e2d76616c69642076657273696f6e00000000000000000000000000000000604482015290519081900360640190fd5b6154406154356040805190810160405280600d8152602001600080516020615a3b833981519152815250614bf5565b8262ffffff16614500565b613f466154ab6040805190810160405280601181526020017f70726f746f636f6c56657273696f6e5354000000000000000000000000000000815250614223610b286040805190810160405280600d8152602001600080516020615a3b833981519152815250614bf5565b876144c5565b600082826040516020018083805190602001908083835b602083106154e75780518252601f1990920191602091820191016154c8565b51815160001960209485036101000a019081169019919091161790529201938452506040805180850381529382019081905283519394509283925090840190808383602083106144925780518252601f199092019160209182019101614473565b6000828152600760205260409020805482106155d4576040805160e560020a62461bcd02815260206004820152602a60248201527f496e6465782073686f756c64206c657373207468616e206c656e677468206f6660448201527f2074686520617272617900000000000000000000000000000000000000000000606482015290519081900360840190fd5b8054819060001981019081106155e657fe5b906000526020600020015481838154811015156155ff57fe5b6000918252602090912001558054600019016140dc828261593e565b600082815260016020908152604090912082516121e792840190615962565b60006147bf8260006158e4565b600091825260076020908152604083208054600181018255908452922090910155565b6000918252600960209081526040832080546001810182559084529220909101805473ffffffffffffffffffffffffffffffffffffffff1916600160a060020a03909216919091179055565b60ff9081169181166101000292166201000002919091171790565b600060606000808551604051908082528060200260200182016040528015615703578160200160208202803883390190505b50925060009150600090505b85518160ff1610156157af57848160ff1681518110151561572c57fe5b9060200190602002015160ff16868260ff1681518110151561574a57fe5b9060200190602002015160ff161015615784576001838260ff1681518110151561577057fe5b9115156020928302909101909101526157a7565b6000838260ff1681518110151561579757fe5b9115156020928302909101909101525b60010161570f565b5060005b85518160ff1610156158ca5760ff8116151561584c57848160ff168151811015156157da57fe5b9060200190602002015160ff16868260ff168151811015156157f857fe5b6020908102909101015160ff161161583e5782600081518110151561581957fe5b9060200190602002015115615833578160030191506158ca565b600190910190615847565b600093506158db565b6158c2565b826001820360ff1681518110151561586057fe5b906020019060200201511561587a576001909101906158c2565b848160ff1681518110151561588b57fe5b9060200190602002015160ff16868260ff168151811015156158a957fe5b6020908102909101015160ff161161583e576001909101905b6001016157b3565b85518260ff1614156158db57600193505b50505092915050565b600080805b845181101561593657806008028582860181518110151561590657fe5b60209101015160029190910a60f860020a91829004909102600160f860020a0319160491909117906001016158e9565b509392505050565b8154818355818111156121e7576000838152602090206121e79181019083016159e0565b828054600181600116156101000203166002900490600052602060002090601f016020900481019282601f106159a357805160ff19168380011785556159d0565b828001600101855582156159d0579182015b828111156159d05782518255916020019190600101906159b5565b506159dc9291506159e0565b5090565b61094c91905b808211156159dc57600081556001016159e65600ee35723ac350a69d2a92d3703f17439cbaadf2f093a21ba5bf5f1a53eb2a14d92fcc69711628630fb5a42566c68bd1092bc4aa26826736293969fddcd11cb2d26c617465737456657273696f6e00000000000000000000000000000000000000604268e9a73dfd777dcecb8a614493dd65c638bad2f5e7d709d378bd2fb0baeed677304bb45536bb7fdfa6b9e47a3c58fe413f9e8f01474b0a4b9c6e0275baf2496e76616c696420616464726573730000000000000000000000000000000000726567697374657265645469636b6572735f6f776e657200000000000000000073656e646572206d757374206265206f776e6572000000000000000000000000726567697374657265645469636b6572735f737461747573000000000000000002016836a56b71f0d02689e69e326f4f4c1b9057164ef592671cf0d37c8040c075736572546f5469636b65727300000000000000000000000000000000000000acf8fbd51bb4b83ba426cdb12f63be74db97c412515797993d2a385542e311d77469636b6572546f5365637572697479546f6b656e0000000000000000000000726567697374657265645469636b6572735f65787069727944617465000000005469636b6572206c656e6774682072616e67652028302c31305d000000000000416c7265616479207061757365640000000000000000000000000000000000004e6f7420617574686f7269736564000000000000000000000000000000000000a165627a7a723058206088d623a4ee2cf3fd8f373b80ec16701a84bdcd379515d0710d6e754359e01b0029",
  "source": "pragma solidity ^0.4.24;\n\nimport \"../SecurityTokenRegistry.sol\";\n\n/**\n * @title Registry contract for issuers to register their security tokens\n */\ncontract SecurityTokenRegistryMock is SecurityTokenRegistry {\n    \n    /// @notice It is a dummy function\n    /// Alert! Alert! Do not use it for the mainnet release\n    function changeTheDeployedAddress(string _ticker, address _newSecurityTokenAddress) public {\n        set(Encoder.getKey(\"tickerToSecurityToken\", _ticker), _newSecurityTokenAddress);\n    } \n    \n}\n",
  "sourcePath": "/Users/polymath/polymath-core/contracts/mocks/SecurityTokenRegistryMock.sol",
  "compiler": {
    "name": "solc",
    "version": "0.4.24+commit.e67f0147.Emscripten.clang"
  },
  "schemaVersion": "2.0.1",
  "updatedAt": "2018-11-20T13:57:45.317Z"
}